{
	"contracts/arisan.sol": {
		"Arisan": {
			"abi": [
				{
					"inputs": [],
					"stateMutability": "nonpayable",
					"type": "constructor"
				},
				{
					"inputs": [],
					"name": "clearWinner",
					"outputs": [],
					"stateMutability": "nonpayable",
					"type": "function"
				},
				{
					"inputs": [
						{
							"internalType": "string",
							"name": "_name",
							"type": "string"
						}
					],
					"name": "enter",
					"outputs": [],
					"stateMutability": "payable",
					"type": "function"
				},
				{
					"inputs": [],
					"name": "getPlayers",
					"outputs": [
						{
							"components": [
								{
									"internalType": "string",
									"name": "name",
									"type": "string"
								},
								{
									"internalType": "address",
									"name": "playerAddress",
									"type": "address"
								},
								{
									"internalType": "uint256",
									"name": "balance",
									"type": "uint256"
								}
							],
							"internalType": "struct Arisan.PlayerData[]",
							"name": "",
							"type": "tuple[]"
						}
					],
					"stateMutability": "view",
					"type": "function"
				},
				{
					"inputs": [],
					"name": "getWinnerList",
					"outputs": [
						{
							"components": [
								{
									"internalType": "string",
									"name": "name",
									"type": "string"
								},
								{
									"internalType": "address",
									"name": "playerAddress",
									"type": "address"
								},
								{
									"internalType": "uint256",
									"name": "balance",
									"type": "uint256"
								}
							],
							"internalType": "struct Arisan.PlayerData[]",
							"name": "",
							"type": "tuple[]"
						}
					],
					"stateMutability": "view",
					"type": "function"
				},
				{
					"inputs": [],
					"name": "manager",
					"outputs": [
						{
							"internalType": "address",
							"name": "",
							"type": "address"
						}
					],
					"stateMutability": "view",
					"type": "function"
				},
				{
					"inputs": [],
					"name": "pickWinner",
					"outputs": [
						{
							"components": [
								{
									"internalType": "string",
									"name": "name",
									"type": "string"
								},
								{
									"internalType": "address",
									"name": "playerAddress",
									"type": "address"
								},
								{
									"internalType": "uint256",
									"name": "balance",
									"type": "uint256"
								}
							],
							"internalType": "struct Arisan.PlayerData",
							"name": "",
							"type": "tuple"
						}
					],
					"stateMutability": "nonpayable",
					"type": "function"
				},
				{
					"inputs": [
						{
							"internalType": "uint256",
							"name": "",
							"type": "uint256"
						}
					],
					"name": "players",
					"outputs": [
						{
							"internalType": "address",
							"name": "",
							"type": "address"
						}
					],
					"stateMutability": "view",
					"type": "function"
				}
			],
			"devdoc": {
				"kind": "dev",
				"methods": {},
				"version": 1
			},
			"evm": {
				"assembly": "    /* \"contracts/arisan.sol\":66:1844  contract Arisan {... */\n  mstore(0x40, 0x80)\n    /* \"contracts/arisan.sol\":329:380  constructor() {... */\n  callvalue\n  dup1\n  iszero\n  tag_1\n  jumpi\n  0x00\n  dup1\n  revert\ntag_1:\n  pop\n    /* \"contracts/arisan.sol\":363:373  msg.sender */\n  caller\n    /* \"contracts/arisan.sol\":353:360  manager */\n  0x00\n  dup1\n    /* \"contracts/arisan.sol\":353:373  manager = msg.sender */\n  0x0100\n  exp\n  dup2\n  sload\n  dup2\n  0xffffffffffffffffffffffffffffffffffffffff\n  mul\n  not\n  and\n  swap1\n  dup4\n  0xffffffffffffffffffffffffffffffffffffffff\n  and\n  mul\n  or\n  swap1\n  sstore\n  pop\n    /* \"contracts/arisan.sol\":66:1844  contract Arisan {... */\n  dataSize(sub_0)\n  dup1\n  dataOffset(sub_0)\n  0x00\n  codecopy\n  0x00\n  return\nstop\n\nsub_0: assembly {\n        /* \"contracts/arisan.sol\":66:1844  contract Arisan {... */\n      mstore(0x40, 0x80)\n      jumpi(tag_1, lt(calldatasize, 0x04))\n      shr(0xe0, calldataload(0x00))\n      dup1\n      0x7fc5af95\n      gt\n      tag_9\n      jumpi\n      dup1\n      0x7fc5af95\n      eq\n      tag_5\n      jumpi\n      dup1\n      0x8b5b9ccc\n      eq\n      tag_6\n      jumpi\n      dup1\n      0x9d4ff8ad\n      eq\n      tag_7\n      jumpi\n      dup1\n      0xf71d96cb\n      eq\n      tag_8\n      jumpi\n      jump(tag_1)\n    tag_9:\n      dup1\n      0x287bf3d3\n      eq\n      tag_2\n      jumpi\n      dup1\n      0x481c6a75\n      eq\n      tag_3\n      jumpi\n      dup1\n      0x5d495aea\n      eq\n      tag_4\n      jumpi\n    tag_1:\n      0x00\n      dup1\n      revert\n        /* \"contracts/arisan.sol\":1766:1842  function clearWinner() public onlyManager {... */\n    tag_2:\n      callvalue\n      dup1\n      iszero\n      tag_10\n      jumpi\n      0x00\n      dup1\n      revert\n    tag_10:\n      pop\n      tag_11\n      tag_12\n      jump\t// in\n    tag_11:\n      stop\n        /* \"contracts/arisan.sol\":196:218  address public manager */\n    tag_3:\n      callvalue\n      dup1\n      iszero\n      tag_13\n      jumpi\n      0x00\n      dup1\n      revert\n    tag_13:\n      pop\n      tag_14\n      tag_15\n      jump\t// in\n    tag_14:\n      mload(0x40)\n      tag_16\n      swap2\n      swap1\n      tag_17\n      jump\t// in\n    tag_16:\n      mload(0x40)\n      dup1\n      swap2\n      sub\n      swap1\n      return\n        /* \"contracts/arisan.sol\":988:1453  function pickWinner() public onlyManager returns (PlayerData memory){... */\n    tag_4:\n      callvalue\n      dup1\n      iszero\n      tag_18\n      jumpi\n      0x00\n      dup1\n      revert\n    tag_18:\n      pop\n      tag_19\n      tag_20\n      jump\t// in\n    tag_19:\n      mload(0x40)\n      tag_21\n      swap2\n      swap1\n      tag_22\n      jump\t// in\n    tag_21:\n      mload(0x40)\n      dup1\n      swap2\n      sub\n      swap1\n      return\n        /* \"contracts/arisan.sol\":1565:1666  function getWinnerList() public view returns (PlayerData[] memory) {... */\n    tag_5:\n      callvalue\n      dup1\n      iszero\n      tag_23\n      jumpi\n      0x00\n      dup1\n      revert\n    tag_23:\n      pop\n      tag_24\n      tag_25\n      jump\t// in\n    tag_24:\n      mload(0x40)\n      tag_26\n      swap2\n      swap1\n      tag_27\n      jump\t// in\n    tag_26:\n      mload(0x40)\n      dup1\n      swap2\n      sub\n      swap1\n      return\n        /* \"contracts/arisan.sol\":1459:1558  function getPlayers() public view returns (PlayerData[] memory) {... */\n    tag_6:\n      callvalue\n      dup1\n      iszero\n      tag_28\n      jumpi\n      0x00\n      dup1\n      revert\n    tag_28:\n      pop\n      tag_29\n      tag_30\n      jump\t// in\n    tag_29:\n      mload(0x40)\n      tag_31\n      swap2\n      swap1\n      tag_27\n      jump\t// in\n    tag_31:\n      mload(0x40)\n      dup1\n      swap2\n      sub\n      swap1\n      return\n        /* \"contracts/arisan.sol\":500:743  function enter(string memory _name) public payable {... */\n    tag_7:\n      tag_32\n      0x04\n      dup1\n      calldatasize\n      sub\n      dup2\n      add\n      swap1\n      tag_33\n      swap2\n      swap1\n      tag_34\n      jump\t// in\n    tag_33:\n      tag_35\n      jump\t// in\n    tag_32:\n      stop\n        /* \"contracts/arisan.sol\":224:248  address[] public players */\n    tag_8:\n      callvalue\n      dup1\n      iszero\n      tag_36\n      jumpi\n      0x00\n      dup1\n      revert\n    tag_36:\n      pop\n      tag_37\n      0x04\n      dup1\n      calldatasize\n      sub\n      dup2\n      add\n      swap1\n      tag_38\n      swap2\n      swap1\n      tag_39\n      jump\t// in\n    tag_38:\n      tag_40\n      jump\t// in\n    tag_37:\n      mload(0x40)\n      tag_41\n      swap2\n      swap1\n      tag_17\n      jump\t// in\n    tag_41:\n      mload(0x40)\n      dup1\n      swap2\n      sub\n      swap1\n      return\n        /* \"contracts/arisan.sol\":1766:1842  function clearWinner() public onlyManager {... */\n    tag_12:\n        /* \"contracts/arisan.sol\":441:448  manager */\n      0x00\n      dup1\n      sload\n      swap1\n      0x0100\n      exp\n      swap1\n      div\n      0xffffffffffffffffffffffffffffffffffffffff\n      and\n        /* \"contracts/arisan.sol\":427:448  msg.sender == manager */\n      0xffffffffffffffffffffffffffffffffffffffff\n      and\n        /* \"contracts/arisan.sol\":427:437  msg.sender */\n      caller\n        /* \"contracts/arisan.sol\":427:448  msg.sender == manager */\n      0xffffffffffffffffffffffffffffffffffffffff\n      and\n      eq\n        /* \"contracts/arisan.sol\":419:476  require(msg.sender == manager, \"Only Manager can run it\") */\n      tag_43\n      jumpi\n      mload(0x40)\n      0x08c379a000000000000000000000000000000000000000000000000000000000\n      dup2\n      mstore\n      0x04\n      add\n      tag_44\n      swap1\n      tag_45\n      jump\t// in\n    tag_44:\n      mload(0x40)\n      dup1\n      swap2\n      sub\n      swap1\n      revert\n    tag_43:\n        /* \"contracts/arisan.sol\":1825:1835  winnerList */\n      0x02\n      0x00\n        /* \"contracts/arisan.sol\":1818:1835  delete winnerList */\n      tag_47\n      swap2\n      swap1\n      tag_48\n      jump\t// in\n    tag_47:\n        /* \"contracts/arisan.sol\":1766:1842  function clearWinner() public onlyManager {... */\n      jump\t// out\n        /* \"contracts/arisan.sol\":196:218  address public manager */\n    tag_15:\n      0x00\n      dup1\n      sload\n      swap1\n      0x0100\n      exp\n      swap1\n      div\n      0xffffffffffffffffffffffffffffffffffffffff\n      and\n      dup2\n      jump\t// out\n        /* \"contracts/arisan.sol\":988:1453  function pickWinner() public onlyManager returns (PlayerData memory){... */\n    tag_20:\n        /* \"contracts/arisan.sol\":1038:1055  PlayerData memory */\n      tag_49\n      tag_50\n      jump\t// in\n    tag_49:\n        /* \"contracts/arisan.sol\":441:448  manager */\n      0x00\n      dup1\n      sload\n      swap1\n      0x0100\n      exp\n      swap1\n      div\n      0xffffffffffffffffffffffffffffffffffffffff\n      and\n        /* \"contracts/arisan.sol\":427:448  msg.sender == manager */\n      0xffffffffffffffffffffffffffffffffffffffff\n      and\n        /* \"contracts/arisan.sol\":427:437  msg.sender */\n      caller\n        /* \"contracts/arisan.sol\":427:448  msg.sender == manager */\n      0xffffffffffffffffffffffffffffffffffffffff\n      and\n      eq\n        /* \"contracts/arisan.sol\":419:476  require(msg.sender == manager, \"Only Manager can run it\") */\n      tag_52\n      jumpi\n      mload(0x40)\n      0x08c379a000000000000000000000000000000000000000000000000000000000\n      dup2\n      mstore\n      0x04\n      add\n      tag_53\n      swap1\n      tag_45\n      jump\t// in\n    tag_53:\n      mload(0x40)\n      dup1\n      swap2\n      sub\n      swap1\n      revert\n    tag_52:\n        /* \"contracts/arisan.sol\":1091:1092  0 */\n      0x00\n        /* \"contracts/arisan.sol\":1074:1081  players */\n      0x01\n        /* \"contracts/arisan.sol\":1074:1088  players.length */\n      dup1\n      sload\n      swap1\n      pop\n        /* \"contracts/arisan.sol\":1074:1092  players.length > 0 */\n      gt\n        /* \"contracts/arisan.sol\":1066:1124  require(players.length > 0, \"Please add the player first\") */\n      tag_55\n      jumpi\n      mload(0x40)\n      0x08c379a000000000000000000000000000000000000000000000000000000000\n      dup2\n      mstore\n      0x04\n      add\n      tag_56\n      swap1\n      tag_57\n      jump\t// in\n    tag_56:\n      mload(0x40)\n      dup1\n      swap2\n      sub\n      swap1\n      revert\n    tag_55:\n        /* \"contracts/arisan.sol\":1134:1147  uint256 index */\n      0x00\n        /* \"contracts/arisan.sol\":1161:1168  players */\n      0x01\n        /* \"contracts/arisan.sol\":1161:1175  players.length */\n      dup1\n      sload\n      swap1\n      pop\n        /* \"contracts/arisan.sol\":1150:1158  random() */\n      tag_58\n        /* \"contracts/arisan.sol\":1150:1156  random */\n      tag_59\n        /* \"contracts/arisan.sol\":1150:1158  random() */\n      jump\t// in\n    tag_58:\n        /* \"contracts/arisan.sol\":1150:1175  random() % players.length */\n      tag_60\n      swap2\n      swap1\n      tag_61\n      jump\t// in\n    tag_60:\n        /* \"contracts/arisan.sol\":1134:1175  uint256 index = random() % players.length */\n      swap1\n      pop\n        /* \"contracts/arisan.sol\":1185:1209  PlayerData memory winner */\n      0x00\n        /* \"contracts/arisan.sol\":1212:1304  PlayerData(listPlayers[index].name, listPlayers[index].playerAddress, address(this).balance) */\n      mload(0x40)\n      dup1\n      0x60\n      add\n      0x40\n      mstore\n      dup1\n        /* \"contracts/arisan.sol\":1223:1234  listPlayers */\n      0x03\n        /* \"contracts/arisan.sol\":1235:1240  index */\n      dup5\n        /* \"contracts/arisan.sol\":1223:1241  listPlayers[index] */\n      dup2\n      sload\n      dup2\n      lt\n      tag_62\n      jumpi\n      tag_63\n      tag_64\n      jump\t// in\n    tag_63:\n    tag_62:\n      swap1\n      0x00\n      mstore\n      keccak256(0x00, 0x20)\n      swap1\n      0x03\n      mul\n      add\n        /* \"contracts/arisan.sol\":1223:1246  listPlayers[index].name */\n      0x00\n      add\n        /* \"contracts/arisan.sol\":1212:1304  PlayerData(listPlayers[index].name, listPlayers[index].playerAddress, address(this).balance) */\n      dup1\n      sload\n      tag_66\n      swap1\n      tag_67\n      jump\t// in\n    tag_66:\n      dup1\n      0x1f\n      add\n      0x20\n      dup1\n      swap2\n      div\n      mul\n      0x20\n      add\n      mload(0x40)\n      swap1\n      dup2\n      add\n      0x40\n      mstore\n      dup1\n      swap3\n      swap2\n      swap1\n      dup2\n      dup2\n      mstore\n      0x20\n      add\n      dup3\n      dup1\n      sload\n      tag_68\n      swap1\n      tag_67\n      jump\t// in\n    tag_68:\n      dup1\n      iszero\n      tag_69\n      jumpi\n      dup1\n      0x1f\n      lt\n      tag_70\n      jumpi\n      0x0100\n      dup1\n      dup4\n      sload\n      div\n      mul\n      dup4\n      mstore\n      swap2\n      0x20\n      add\n      swap2\n      jump(tag_69)\n    tag_70:\n      dup3\n      add\n      swap2\n      swap1\n      0x00\n      mstore\n      keccak256(0x00, 0x20)\n      swap1\n    tag_71:\n      dup2\n      sload\n      dup2\n      mstore\n      swap1\n      0x01\n      add\n      swap1\n      0x20\n      add\n      dup1\n      dup4\n      gt\n      tag_71\n      jumpi\n      dup3\n      swap1\n      sub\n      0x1f\n      and\n      dup3\n      add\n      swap2\n    tag_69:\n      pop\n      pop\n      pop\n      pop\n      pop\n      dup2\n      mstore\n      0x20\n      add\n        /* \"contracts/arisan.sol\":1248:1259  listPlayers */\n      0x03\n        /* \"contracts/arisan.sol\":1260:1265  index */\n      dup5\n        /* \"contracts/arisan.sol\":1248:1266  listPlayers[index] */\n      dup2\n      sload\n      dup2\n      lt\n      tag_72\n      jumpi\n      tag_73\n      tag_64\n      jump\t// in\n    tag_73:\n    tag_72:\n      swap1\n      0x00\n      mstore\n      keccak256(0x00, 0x20)\n      swap1\n      0x03\n      mul\n      add\n        /* \"contracts/arisan.sol\":1248:1280  listPlayers[index].playerAddress */\n      0x01\n      add\n      0x00\n      swap1\n      sload\n      swap1\n      0x0100\n      exp\n      swap1\n      div\n      0xffffffffffffffffffffffffffffffffffffffff\n      and\n        /* \"contracts/arisan.sol\":1212:1304  PlayerData(listPlayers[index].name, listPlayers[index].playerAddress, address(this).balance) */\n      0xffffffffffffffffffffffffffffffffffffffff\n      and\n      dup2\n      mstore\n      0x20\n      add\n        /* \"contracts/arisan.sol\":1282:1303  address(this).balance */\n      selfbalance\n        /* \"contracts/arisan.sol\":1212:1304  PlayerData(listPlayers[index].name, listPlayers[index].playerAddress, address(this).balance) */\n      dup2\n      mstore\n      pop\n        /* \"contracts/arisan.sol\":1185:1304  PlayerData memory winner = PlayerData(listPlayers[index].name, listPlayers[index].playerAddress, address(this).balance) */\n      swap1\n      pop\n        /* \"contracts/arisan.sol\":1322:1329  players */\n      0x01\n        /* \"contracts/arisan.sol\":1330:1335  index */\n      dup3\n        /* \"contracts/arisan.sol\":1322:1336  players[index] */\n      dup2\n      sload\n      dup2\n      lt\n      tag_75\n      jumpi\n      tag_76\n      tag_64\n      jump\t// in\n    tag_76:\n    tag_75:\n      swap1\n      0x00\n      mstore\n      keccak256(0x00, 0x20)\n      add\n      0x00\n      swap1\n      sload\n      swap1\n      0x0100\n      exp\n      swap1\n      div\n      0xffffffffffffffffffffffffffffffffffffffff\n      and\n        /* \"contracts/arisan.sol\":1314:1346  payable(players[index]).transfer */\n      0xffffffffffffffffffffffffffffffffffffffff\n      and\n        /* \"contracts/arisan.sol\":1314:1369  payable(players[index]).transfer(address(this).balance) */\n      0x08fc\n        /* \"contracts/arisan.sol\":1347:1368  address(this).balance */\n      selfbalance\n        /* \"contracts/arisan.sol\":1314:1369  payable(players[index]).transfer(address(this).balance) */\n      swap1\n      dup2\n      iszero\n      mul\n      swap1\n      mload(0x40)\n      0x00\n      mload(0x40)\n      dup1\n      dup4\n      sub\n      dup2\n      dup6\n      dup9\n      dup9\n      call\n      swap4\n      pop\n      pop\n      pop\n      pop\n      iszero\n      dup1\n      iszero\n      tag_79\n      jumpi\n      returndatasize\n      0x00\n      dup1\n      returndatacopy\n      revert(0x00, returndatasize)\n    tag_79:\n      pop\n        /* \"contracts/arisan.sol\":1379:1389  winnerList */\n      0x02\n        /* \"contracts/arisan.sol\":1395:1401  winner */\n      dup2\n        /* \"contracts/arisan.sol\":1379:1402  winnerList.push(winner) */\n      swap1\n      dup1\n      0x01\n      dup2\n      sload\n      add\n      dup1\n      dup3\n      sstore\n      dup1\n      swap2\n      pop\n      pop\n      0x01\n      swap1\n      sub\n      swap1\n      0x00\n      mstore\n      keccak256(0x00, 0x20)\n      swap1\n      0x03\n      mul\n      add\n      0x00\n      swap1\n      swap2\n      swap1\n      swap2\n      swap1\n      swap2\n      pop\n      0x00\n      dup3\n      add\n      mload\n      dup2\n      0x00\n      add\n      swap1\n      dup2\n      tag_81\n      swap2\n      swap1\n      tag_82\n      jump\t// in\n    tag_81:\n      pop\n      0x20\n      dup3\n      add\n      mload\n      dup2\n      0x01\n      add\n      exp(0x0100, 0x00)\n      dup2\n      sload\n      dup2\n      0xffffffffffffffffffffffffffffffffffffffff\n      mul\n      not\n      and\n      swap1\n      dup4\n      0xffffffffffffffffffffffffffffffffffffffff\n      and\n      mul\n      or\n      swap1\n      sstore\n      pop\n      0x40\n      dup3\n      add\n      mload\n      dup2\n      0x02\n      add\n      sstore\n      pop\n      pop\n        /* \"contracts/arisan.sol\":1412:1423  clearData() */\n      tag_83\n        /* \"contracts/arisan.sol\":1412:1421  clearData */\n      tag_84\n        /* \"contracts/arisan.sol\":1412:1423  clearData() */\n      jump\t// in\n    tag_83:\n        /* \"contracts/arisan.sol\":1440:1446  winner */\n      dup1\n        /* \"contracts/arisan.sol\":1433:1446  return winner */\n      swap3\n      pop\n      pop\n      pop\n        /* \"contracts/arisan.sol\":988:1453  function pickWinner() public onlyManager returns (PlayerData memory){... */\n      swap1\n      jump\t// out\n        /* \"contracts/arisan.sol\":1565:1666  function getWinnerList() public view returns (PlayerData[] memory) {... */\n    tag_25:\n        /* \"contracts/arisan.sol\":1611:1630  PlayerData[] memory */\n      0x60\n        /* \"contracts/arisan.sol\":1649:1659  winnerList */\n      0x02\n        /* \"contracts/arisan.sol\":1642:1659  return winnerList */\n      dup1\n      sload\n      dup1\n      0x20\n      mul\n      0x20\n      add\n      mload(0x40)\n      swap1\n      dup2\n      add\n      0x40\n      mstore\n      dup1\n      swap3\n      swap2\n      swap1\n      dup2\n      dup2\n      mstore\n      0x20\n      add\n      0x00\n      swap1\n    tag_86:\n      dup3\n      dup3\n      lt\n      iszero\n      tag_87\n      jumpi\n      dup4\n      dup3\n      swap1\n      0x00\n      mstore\n      keccak256(0x00, 0x20)\n      swap1\n      0x03\n      mul\n      add\n      mload(0x40)\n      dup1\n      0x60\n      add\n      0x40\n      mstore\n      swap1\n      dup2\n      0x00\n      dup3\n      add\n      dup1\n      sload\n      tag_89\n      swap1\n      tag_67\n      jump\t// in\n    tag_89:\n      dup1\n      0x1f\n      add\n      0x20\n      dup1\n      swap2\n      div\n      mul\n      0x20\n      add\n      mload(0x40)\n      swap1\n      dup2\n      add\n      0x40\n      mstore\n      dup1\n      swap3\n      swap2\n      swap1\n      dup2\n      dup2\n      mstore\n      0x20\n      add\n      dup3\n      dup1\n      sload\n      tag_90\n      swap1\n      tag_67\n      jump\t// in\n    tag_90:\n      dup1\n      iszero\n      tag_91\n      jumpi\n      dup1\n      0x1f\n      lt\n      tag_92\n      jumpi\n      0x0100\n      dup1\n      dup4\n      sload\n      div\n      mul\n      dup4\n      mstore\n      swap2\n      0x20\n      add\n      swap2\n      jump(tag_91)\n    tag_92:\n      dup3\n      add\n      swap2\n      swap1\n      0x00\n      mstore\n      keccak256(0x00, 0x20)\n      swap1\n    tag_93:\n      dup2\n      sload\n      dup2\n      mstore\n      swap1\n      0x01\n      add\n      swap1\n      0x20\n      add\n      dup1\n      dup4\n      gt\n      tag_93\n      jumpi\n      dup3\n      swap1\n      sub\n      0x1f\n      and\n      dup3\n      add\n      swap2\n    tag_91:\n      pop\n      pop\n      pop\n      pop\n      pop\n      dup2\n      mstore\n      0x20\n      add\n      0x01\n      dup3\n      add\n      0x00\n      swap1\n      sload\n      swap1\n      0x0100\n      exp\n      swap1\n      div\n      0xffffffffffffffffffffffffffffffffffffffff\n      and\n      0xffffffffffffffffffffffffffffffffffffffff\n      and\n      0xffffffffffffffffffffffffffffffffffffffff\n      and\n      dup2\n      mstore\n      0x20\n      add\n      0x02\n      dup3\n      add\n      sload\n      dup2\n      mstore\n      pop\n      pop\n      dup2\n      mstore\n      0x20\n      add\n      swap1\n      0x01\n      add\n      swap1\n      jump(tag_86)\n    tag_87:\n      pop\n      pop\n      pop\n      pop\n      swap1\n      pop\n        /* \"contracts/arisan.sol\":1565:1666  function getWinnerList() public view returns (PlayerData[] memory) {... */\n      swap1\n      jump\t// out\n        /* \"contracts/arisan.sol\":1459:1558  function getPlayers() public view returns (PlayerData[] memory) {... */\n    tag_30:\n        /* \"contracts/arisan.sol\":1502:1521  PlayerData[] memory */\n      0x60\n        /* \"contracts/arisan.sol\":1540:1551  listPlayers */\n      0x03\n        /* \"contracts/arisan.sol\":1533:1551  return listPlayers */\n      dup1\n      sload\n      dup1\n      0x20\n      mul\n      0x20\n      add\n      mload(0x40)\n      swap1\n      dup2\n      add\n      0x40\n      mstore\n      dup1\n      swap3\n      swap2\n      swap1\n      dup2\n      dup2\n      mstore\n      0x20\n      add\n      0x00\n      swap1\n    tag_95:\n      dup3\n      dup3\n      lt\n      iszero\n      tag_96\n      jumpi\n      dup4\n      dup3\n      swap1\n      0x00\n      mstore\n      keccak256(0x00, 0x20)\n      swap1\n      0x03\n      mul\n      add\n      mload(0x40)\n      dup1\n      0x60\n      add\n      0x40\n      mstore\n      swap1\n      dup2\n      0x00\n      dup3\n      add\n      dup1\n      sload\n      tag_98\n      swap1\n      tag_67\n      jump\t// in\n    tag_98:\n      dup1\n      0x1f\n      add\n      0x20\n      dup1\n      swap2\n      div\n      mul\n      0x20\n      add\n      mload(0x40)\n      swap1\n      dup2\n      add\n      0x40\n      mstore\n      dup1\n      swap3\n      swap2\n      swap1\n      dup2\n      dup2\n      mstore\n      0x20\n      add\n      dup3\n      dup1\n      sload\n      tag_99\n      swap1\n      tag_67\n      jump\t// in\n    tag_99:\n      dup1\n      iszero\n      tag_100\n      jumpi\n      dup1\n      0x1f\n      lt\n      tag_101\n      jumpi\n      0x0100\n      dup1\n      dup4\n      sload\n      div\n      mul\n      dup4\n      mstore\n      swap2\n      0x20\n      add\n      swap2\n      jump(tag_100)\n    tag_101:\n      dup3\n      add\n      swap2\n      swap1\n      0x00\n      mstore\n      keccak256(0x00, 0x20)\n      swap1\n    tag_102:\n      dup2\n      sload\n      dup2\n      mstore\n      swap1\n      0x01\n      add\n      swap1\n      0x20\n      add\n      dup1\n      dup4\n      gt\n      tag_102\n      jumpi\n      dup3\n      swap1\n      sub\n      0x1f\n      and\n      dup3\n      add\n      swap2\n    tag_100:\n      pop\n      pop\n      pop\n      pop\n      pop\n      dup2\n      mstore\n      0x20\n      add\n      0x01\n      dup3\n      add\n      0x00\n      swap1\n      sload\n      swap1\n      0x0100\n      exp\n      swap1\n      div\n      0xffffffffffffffffffffffffffffffffffffffff\n      and\n      0xffffffffffffffffffffffffffffffffffffffff\n      and\n      0xffffffffffffffffffffffffffffffffffffffff\n      and\n      dup2\n      mstore\n      0x20\n      add\n      0x02\n      dup3\n      add\n      sload\n      dup2\n      mstore\n      pop\n      pop\n      dup2\n      mstore\n      0x20\n      add\n      swap1\n      0x01\n      add\n      swap1\n      jump(tag_95)\n    tag_96:\n      pop\n      pop\n      pop\n      pop\n      swap1\n      pop\n        /* \"contracts/arisan.sol\":1459:1558  function getPlayers() public view returns (PlayerData[] memory) {... */\n      swap1\n      jump\t// out\n        /* \"contracts/arisan.sol\":500:743  function enter(string memory _name) public payable {... */\n    tag_35:\n        /* \"contracts/arisan.sol\":581:590  .01 ether */\n      0x2386f26fc10000\n        /* \"contracts/arisan.sol\":569:578  msg.value */\n      callvalue\n        /* \"contracts/arisan.sol\":569:590  msg.value > .01 ether */\n      gt\n        /* \"contracts/arisan.sol\":561:595  require(msg.value > .01 ether, \"\") */\n      tag_104\n      jumpi\n      mload(0x40)\n      0x08c379a000000000000000000000000000000000000000000000000000000000\n      dup2\n      mstore\n      0x04\n      add\n      tag_105\n      swap1\n      tag_106\n      jump\t// in\n    tag_105:\n      mload(0x40)\n      dup1\n      swap2\n      sub\n      swap1\n      revert\n    tag_104:\n        /* \"contracts/arisan.sol\":605:627  PlayerData memory data */\n      0x00\n        /* \"contracts/arisan.sol\":630:670  PlayerData(_name, msg.sender, msg.value) */\n      mload(0x40)\n      dup1\n      0x60\n      add\n      0x40\n      mstore\n      dup1\n        /* \"contracts/arisan.sol\":641:646  _name */\n      dup4\n        /* \"contracts/arisan.sol\":630:670  PlayerData(_name, msg.sender, msg.value) */\n      dup2\n      mstore\n      0x20\n      add\n        /* \"contracts/arisan.sol\":648:658  msg.sender */\n      caller\n        /* \"contracts/arisan.sol\":630:670  PlayerData(_name, msg.sender, msg.value) */\n      0xffffffffffffffffffffffffffffffffffffffff\n      and\n      dup2\n      mstore\n      0x20\n      add\n        /* \"contracts/arisan.sol\":660:669  msg.value */\n      callvalue\n        /* \"contracts/arisan.sol\":630:670  PlayerData(_name, msg.sender, msg.value) */\n      dup2\n      mstore\n      pop\n        /* \"contracts/arisan.sol\":605:670  PlayerData memory data = PlayerData(_name, msg.sender, msg.value) */\n      swap1\n      pop\n        /* \"contracts/arisan.sol\":680:687  players */\n      0x01\n        /* \"contracts/arisan.sol\":693:703  msg.sender */\n      caller\n        /* \"contracts/arisan.sol\":680:704  players.push(msg.sender) */\n      swap1\n      dup1\n      0x01\n      dup2\n      sload\n      add\n      dup1\n      dup3\n      sstore\n      dup1\n      swap2\n      pop\n      pop\n      0x01\n      swap1\n      sub\n      swap1\n      0x00\n      mstore\n      keccak256(0x00, 0x20)\n      add\n      0x00\n      swap1\n      swap2\n      swap1\n      swap2\n      swap1\n      swap2\n      0x0100\n      exp\n      dup2\n      sload\n      dup2\n      0xffffffffffffffffffffffffffffffffffffffff\n      mul\n      not\n      and\n      swap1\n      dup4\n      0xffffffffffffffffffffffffffffffffffffffff\n      and\n      mul\n      or\n      swap1\n      sstore\n      pop\n        /* \"contracts/arisan.sol\":714:725  listPlayers */\n      0x03\n        /* \"contracts/arisan.sol\":731:735  data */\n      dup2\n        /* \"contracts/arisan.sol\":714:736  listPlayers.push(data) */\n      swap1\n      dup1\n      0x01\n      dup2\n      sload\n      add\n      dup1\n      dup3\n      sstore\n      dup1\n      swap2\n      pop\n      pop\n      0x01\n      swap1\n      sub\n      swap1\n      0x00\n      mstore\n      keccak256(0x00, 0x20)\n      swap1\n      0x03\n      mul\n      add\n      0x00\n      swap1\n      swap2\n      swap1\n      swap2\n      swap1\n      swap2\n      pop\n      0x00\n      dup3\n      add\n      mload\n      dup2\n      0x00\n      add\n      swap1\n      dup2\n      tag_109\n      swap2\n      swap1\n      tag_82\n      jump\t// in\n    tag_109:\n      pop\n      0x20\n      dup3\n      add\n      mload\n      dup2\n      0x01\n      add\n      exp(0x0100, 0x00)\n      dup2\n      sload\n      dup2\n      0xffffffffffffffffffffffffffffffffffffffff\n      mul\n      not\n      and\n      swap1\n      dup4\n      0xffffffffffffffffffffffffffffffffffffffff\n      and\n      mul\n      or\n      swap1\n      sstore\n      pop\n      0x40\n      dup3\n      add\n      mload\n      dup2\n      0x02\n      add\n      sstore\n      pop\n      pop\n        /* \"contracts/arisan.sol\":551:743  {... */\n      pop\n        /* \"contracts/arisan.sol\":500:743  function enter(string memory _name) public payable {... */\n      pop\n      jump\t// out\n        /* \"contracts/arisan.sol\":224:248  address[] public players */\n    tag_40:\n      0x01\n      dup2\n      dup2\n      sload\n      dup2\n      lt\n      tag_110\n      jumpi\n      0x00\n      dup1\n      revert\n    tag_110:\n      swap1\n      0x00\n      mstore\n      keccak256(0x00, 0x20)\n      add\n      0x00\n      swap2\n      pop\n      sload\n      swap1\n      0x0100\n      exp\n      swap1\n      div\n      0xffffffffffffffffffffffffffffffffffffffff\n      and\n      dup2\n      jump\t// out\n        /* \"contracts/arisan.sol\":749:982  function random() private view returns (uint256) {... */\n    tag_59:\n        /* \"contracts/arisan.sol\":789:796  uint256 */\n      0x00\n        /* \"contracts/arisan.sol\":900:916  block.difficulty */\n      difficulty\n        /* \"contracts/arisan.sol\":918:933  block.timestamp */\n      timestamp\n        /* \"contracts/arisan.sol\":935:942  players */\n      0x01\n        /* \"contracts/arisan.sol\":883:943  abi.encodePacked(block.difficulty, block.timestamp, players) */\n      add(0x20, mload(0x40))\n      tag_113\n      swap4\n      swap3\n      swap2\n      swap1\n      tag_114\n      jump\t// in\n    tag_113:\n      mload(0x40)\n      0x20\n      dup2\n      dup4\n      sub\n      sub\n      dup2\n      mstore\n      swap1\n      0x40\n      mstore\n        /* \"contracts/arisan.sol\":852:961  keccak256(... */\n      dup1\n      mload\n      swap1\n      0x20\n      add\n      keccak256\n        /* \"contracts/arisan.sol\":827:975  uint256(... */\n      0x00\n      shr\n        /* \"contracts/arisan.sol\":808:975  return... */\n      swap1\n      pop\n        /* \"contracts/arisan.sol\":749:982  function random() private view returns (uint256) {... */\n      swap1\n      jump\t// out\n        /* \"contracts/arisan.sol\":1672:1760  function clearData() private {... */\n    tag_84:\n        /* \"contracts/arisan.sol\":1718:1725  players */\n      0x01\n      0x00\n        /* \"contracts/arisan.sol\":1711:1725  delete players */\n      tag_116\n      swap2\n      swap1\n      tag_117\n      jump\t// in\n    tag_116:\n        /* \"contracts/arisan.sol\":1742:1753  listPlayers */\n      0x03\n      0x00\n        /* \"contracts/arisan.sol\":1735:1753  delete listPlayers */\n      tag_118\n      swap2\n      swap1\n      tag_48\n      jump\t// in\n    tag_118:\n        /* \"contracts/arisan.sol\":1672:1760  function clearData() private {... */\n      jump\t// out\n    tag_48:\n      pop\n      dup1\n      sload\n      0x00\n      dup3\n      sstore\n      0x03\n      mul\n      swap1\n      0x00\n      mstore\n      keccak256(0x00, 0x20)\n      swap1\n      dup2\n      add\n      swap1\n      tag_120\n      swap2\n      swap1\n      tag_121\n      jump\t// in\n    tag_120:\n      pop\n      jump\t// out\n    tag_50:\n      mload(0x40)\n      dup1\n      0x60\n      add\n      0x40\n      mstore\n      dup1\n      0x60\n      dup2\n      mstore\n      0x20\n      add\n      and(0xffffffffffffffffffffffffffffffffffffffff, 0x00)\n      dup2\n      mstore\n      0x20\n      add\n      0x00\n      dup2\n      mstore\n      pop\n      swap1\n      jump\t// out\n    tag_117:\n      pop\n      dup1\n      sload\n      0x00\n      dup3\n      sstore\n      swap1\n      0x00\n      mstore\n      keccak256(0x00, 0x20)\n      swap1\n      dup2\n      add\n      swap1\n      tag_123\n      swap2\n      swap1\n      tag_124\n      jump\t// in\n    tag_123:\n      pop\n      jump\t// out\n    tag_121:\n    tag_125:\n      dup1\n      dup3\n      gt\n      iszero\n      tag_126\n      jumpi\n      0x00\n      dup1\n      dup3\n      add\n      0x00\n      tag_127\n      swap2\n      swap1\n      tag_128\n      jump\t// in\n    tag_127:\n      0x01\n      dup3\n      add\n      exp(0x0100, 0x00)\n      dup2\n      sload\n      swap1\n      0xffffffffffffffffffffffffffffffffffffffff\n      mul\n      not\n      and\n      swap1\n      sstore\n      0x02\n      dup3\n      add\n      0x00\n      swap1\n      sstore\n      pop\n      0x03\n      add\n      jump(tag_125)\n    tag_126:\n      pop\n      swap1\n      jump\t// out\n    tag_124:\n    tag_129:\n      dup1\n      dup3\n      gt\n      iszero\n      tag_130\n      jumpi\n      0x00\n      dup2\n      0x00\n      swap1\n      sstore\n      pop\n      0x01\n      add\n      jump(tag_129)\n    tag_130:\n      pop\n      swap1\n      jump\t// out\n    tag_128:\n      pop\n      dup1\n      sload\n      tag_131\n      swap1\n      tag_67\n      jump\t// in\n    tag_131:\n      0x00\n      dup3\n      sstore\n      dup1\n      0x1f\n      lt\n      tag_133\n      jumpi\n      pop\n      jump(tag_132)\n    tag_133:\n      0x1f\n      add\n      0x20\n      swap1\n      div\n      swap1\n      0x00\n      mstore\n      keccak256(0x00, 0x20)\n      swap1\n      dup2\n      add\n      swap1\n      tag_134\n      swap2\n      swap1\n      tag_124\n      jump\t// in\n    tag_134:\n    tag_132:\n      pop\n      jump\t// out\n        /* \"#utility.yul\":7:133   */\n    tag_135:\n        /* \"#utility.yul\":44:51   */\n      0x00\n        /* \"#utility.yul\":84:126   */\n      0xffffffffffffffffffffffffffffffffffffffff\n        /* \"#utility.yul\":77:82   */\n      dup3\n        /* \"#utility.yul\":73:127   */\n      and\n        /* \"#utility.yul\":62:127   */\n      swap1\n      pop\n        /* \"#utility.yul\":7:133   */\n      swap2\n      swap1\n      pop\n      jump\t// out\n        /* \"#utility.yul\":139:235   */\n    tag_136:\n        /* \"#utility.yul\":176:183   */\n      0x00\n        /* \"#utility.yul\":205:229   */\n      tag_208\n        /* \"#utility.yul\":223:228   */\n      dup3\n        /* \"#utility.yul\":205:229   */\n      tag_135\n      jump\t// in\n    tag_208:\n        /* \"#utility.yul\":194:229   */\n      swap1\n      pop\n        /* \"#utility.yul\":139:235   */\n      swap2\n      swap1\n      pop\n      jump\t// out\n        /* \"#utility.yul\":241:359   */\n    tag_137:\n        /* \"#utility.yul\":328:352   */\n      tag_210\n        /* \"#utility.yul\":346:351   */\n      dup2\n        /* \"#utility.yul\":328:352   */\n      tag_136\n      jump\t// in\n    tag_210:\n        /* \"#utility.yul\":323:326   */\n      dup3\n        /* \"#utility.yul\":316:353   */\n      mstore\n        /* \"#utility.yul\":241:359   */\n      pop\n      pop\n      jump\t// out\n        /* \"#utility.yul\":365:587   */\n    tag_17:\n        /* \"#utility.yul\":458:462   */\n      0x00\n        /* \"#utility.yul\":496:498   */\n      0x20\n        /* \"#utility.yul\":485:494   */\n      dup3\n        /* \"#utility.yul\":481:499   */\n      add\n        /* \"#utility.yul\":473:499   */\n      swap1\n      pop\n        /* \"#utility.yul\":509:580   */\n      tag_212\n        /* \"#utility.yul\":577:578   */\n      0x00\n        /* \"#utility.yul\":566:575   */\n      dup4\n        /* \"#utility.yul\":562:579   */\n      add\n        /* \"#utility.yul\":553:559   */\n      dup5\n        /* \"#utility.yul\":509:580   */\n      tag_137\n      jump\t// in\n    tag_212:\n        /* \"#utility.yul\":365:587   */\n      swap3\n      swap2\n      pop\n      pop\n      jump\t// out\n        /* \"#utility.yul\":593:692   */\n    tag_138:\n        /* \"#utility.yul\":645:651   */\n      0x00\n        /* \"#utility.yul\":679:684   */\n      dup2\n        /* \"#utility.yul\":673:685   */\n      mload\n        /* \"#utility.yul\":663:685   */\n      swap1\n      pop\n        /* \"#utility.yul\":593:692   */\n      swap2\n      swap1\n      pop\n      jump\t// out\n        /* \"#utility.yul\":698:857   */\n    tag_139:\n        /* \"#utility.yul\":772:783   */\n      0x00\n        /* \"#utility.yul\":806:812   */\n      dup3\n        /* \"#utility.yul\":801:804   */\n      dup3\n        /* \"#utility.yul\":794:813   */\n      mstore\n        /* \"#utility.yul\":846:850   */\n      0x20\n        /* \"#utility.yul\":841:844   */\n      dup3\n        /* \"#utility.yul\":837:851   */\n      add\n        /* \"#utility.yul\":822:851   */\n      swap1\n      pop\n        /* \"#utility.yul\":698:857   */\n      swap3\n      swap2\n      pop\n      pop\n      jump\t// out\n        /* \"#utility.yul\":863:1109   */\n    tag_140:\n        /* \"#utility.yul\":944:945   */\n      0x00\n        /* \"#utility.yul\":954:1067   */\n    tag_216:\n        /* \"#utility.yul\":968:974   */\n      dup4\n        /* \"#utility.yul\":965:966   */\n      dup2\n        /* \"#utility.yul\":962:975   */\n      lt\n        /* \"#utility.yul\":954:1067   */\n      iszero\n      tag_218\n      jumpi\n        /* \"#utility.yul\":1053:1054   */\n      dup1\n        /* \"#utility.yul\":1048:1051   */\n      dup3\n        /* \"#utility.yul\":1044:1055   */\n      add\n        /* \"#utility.yul\":1038:1056   */\n      mload\n        /* \"#utility.yul\":1034:1035   */\n      dup2\n        /* \"#utility.yul\":1029:1032   */\n      dup5\n        /* \"#utility.yul\":1025:1036   */\n      add\n        /* \"#utility.yul\":1018:1057   */\n      mstore\n        /* \"#utility.yul\":990:992   */\n      0x20\n        /* \"#utility.yul\":987:988   */\n      dup2\n        /* \"#utility.yul\":983:993   */\n      add\n        /* \"#utility.yul\":978:993   */\n      swap1\n      pop\n        /* \"#utility.yul\":954:1067   */\n      jump(tag_216)\n    tag_218:\n        /* \"#utility.yul\":1101:1102   */\n      0x00\n        /* \"#utility.yul\":1092:1098   */\n      dup5\n        /* \"#utility.yul\":1087:1090   */\n      dup5\n        /* \"#utility.yul\":1083:1099   */\n      add\n        /* \"#utility.yul\":1076:1103   */\n      mstore\n        /* \"#utility.yul\":925:1109   */\n      pop\n        /* \"#utility.yul\":863:1109   */\n      pop\n      pop\n      pop\n      jump\t// out\n        /* \"#utility.yul\":1115:1217   */\n    tag_141:\n        /* \"#utility.yul\":1156:1162   */\n      0x00\n        /* \"#utility.yul\":1207:1209   */\n      0x1f\n        /* \"#utility.yul\":1203:1210   */\n      not\n        /* \"#utility.yul\":1198:1200   */\n      0x1f\n        /* \"#utility.yul\":1191:1196   */\n      dup4\n        /* \"#utility.yul\":1187:1201   */\n      add\n        /* \"#utility.yul\":1183:1211   */\n      and\n        /* \"#utility.yul\":1173:1211   */\n      swap1\n      pop\n        /* \"#utility.yul\":1115:1217   */\n      swap2\n      swap1\n      pop\n      jump\t// out\n        /* \"#utility.yul\":1223:1580   */\n    tag_142:\n        /* \"#utility.yul\":1301:1304   */\n      0x00\n        /* \"#utility.yul\":1329:1368   */\n      tag_221\n        /* \"#utility.yul\":1362:1367   */\n      dup3\n        /* \"#utility.yul\":1329:1368   */\n      tag_138\n      jump\t// in\n    tag_221:\n        /* \"#utility.yul\":1384:1445   */\n      tag_222\n        /* \"#utility.yul\":1438:1444   */\n      dup2\n        /* \"#utility.yul\":1433:1436   */\n      dup6\n        /* \"#utility.yul\":1384:1445   */\n      tag_139\n      jump\t// in\n    tag_222:\n        /* \"#utility.yul\":1377:1445   */\n      swap4\n      pop\n        /* \"#utility.yul\":1454:1519   */\n      tag_223\n        /* \"#utility.yul\":1512:1518   */\n      dup2\n        /* \"#utility.yul\":1507:1510   */\n      dup6\n        /* \"#utility.yul\":1500:1504   */\n      0x20\n        /* \"#utility.yul\":1493:1498   */\n      dup7\n        /* \"#utility.yul\":1489:1505   */\n      add\n        /* \"#utility.yul\":1454:1519   */\n      tag_140\n      jump\t// in\n    tag_223:\n        /* \"#utility.yul\":1544:1573   */\n      tag_224\n        /* \"#utility.yul\":1566:1572   */\n      dup2\n        /* \"#utility.yul\":1544:1573   */\n      tag_141\n      jump\t// in\n    tag_224:\n        /* \"#utility.yul\":1539:1542   */\n      dup5\n        /* \"#utility.yul\":1535:1574   */\n      add\n        /* \"#utility.yul\":1528:1574   */\n      swap2\n      pop\n        /* \"#utility.yul\":1305:1580   */\n      pop\n        /* \"#utility.yul\":1223:1580   */\n      swap3\n      swap2\n      pop\n      pop\n      jump\t// out\n        /* \"#utility.yul\":1586:1694   */\n    tag_143:\n        /* \"#utility.yul\":1663:1687   */\n      tag_226\n        /* \"#utility.yul\":1681:1686   */\n      dup2\n        /* \"#utility.yul\":1663:1687   */\n      tag_136\n      jump\t// in\n    tag_226:\n        /* \"#utility.yul\":1658:1661   */\n      dup3\n        /* \"#utility.yul\":1651:1688   */\n      mstore\n        /* \"#utility.yul\":1586:1694   */\n      pop\n      pop\n      jump\t// out\n        /* \"#utility.yul\":1700:1777   */\n    tag_144:\n        /* \"#utility.yul\":1737:1744   */\n      0x00\n        /* \"#utility.yul\":1766:1771   */\n      dup2\n        /* \"#utility.yul\":1755:1771   */\n      swap1\n      pop\n        /* \"#utility.yul\":1700:1777   */\n      swap2\n      swap1\n      pop\n      jump\t// out\n        /* \"#utility.yul\":1783:1891   */\n    tag_145:\n        /* \"#utility.yul\":1860:1884   */\n      tag_229\n        /* \"#utility.yul\":1878:1883   */\n      dup2\n        /* \"#utility.yul\":1860:1884   */\n      tag_144\n      jump\t// in\n    tag_229:\n        /* \"#utility.yul\":1855:1858   */\n      dup3\n        /* \"#utility.yul\":1848:1885   */\n      mstore\n        /* \"#utility.yul\":1783:1891   */\n      pop\n      pop\n      jump\t// out\n        /* \"#utility.yul\":1957:2749   */\n    tag_146:\n        /* \"#utility.yul\":2076:2079   */\n      0x00\n        /* \"#utility.yul\":2112:2116   */\n      0x60\n        /* \"#utility.yul\":2107:2110   */\n      dup4\n        /* \"#utility.yul\":2103:2117   */\n      add\n        /* \"#utility.yul\":2199:2203   */\n      0x00\n        /* \"#utility.yul\":2192:2197   */\n      dup4\n        /* \"#utility.yul\":2188:2204   */\n      add\n        /* \"#utility.yul\":2182:2205   */\n      mload\n        /* \"#utility.yul\":2252:2255   */\n      dup5\n        /* \"#utility.yul\":2246:2250   */\n      dup3\n        /* \"#utility.yul\":2242:2256   */\n      sub\n        /* \"#utility.yul\":2235:2239   */\n      0x00\n        /* \"#utility.yul\":2230:2233   */\n      dup7\n        /* \"#utility.yul\":2226:2240   */\n      add\n        /* \"#utility.yul\":2219:2257   */\n      mstore\n        /* \"#utility.yul\":2278:2351   */\n      tag_231\n        /* \"#utility.yul\":2346:2350   */\n      dup3\n        /* \"#utility.yul\":2332:2344   */\n      dup3\n        /* \"#utility.yul\":2278:2351   */\n      tag_142\n      jump\t// in\n    tag_231:\n        /* \"#utility.yul\":2270:2351   */\n      swap2\n      pop\n        /* \"#utility.yul\":2127:2362   */\n      pop\n        /* \"#utility.yul\":2453:2457   */\n      0x20\n        /* \"#utility.yul\":2446:2451   */\n      dup4\n        /* \"#utility.yul\":2442:2458   */\n      add\n        /* \"#utility.yul\":2436:2459   */\n      mload\n        /* \"#utility.yul\":2472:2535   */\n      tag_232\n        /* \"#utility.yul\":2529:2533   */\n      0x20\n        /* \"#utility.yul\":2524:2527   */\n      dup7\n        /* \"#utility.yul\":2520:2534   */\n      add\n        /* \"#utility.yul\":2506:2518   */\n      dup3\n        /* \"#utility.yul\":2472:2535   */\n      tag_143\n      jump\t// in\n    tag_232:\n        /* \"#utility.yul\":2372:2545   */\n      pop\n        /* \"#utility.yul\":2630:2634   */\n      0x40\n        /* \"#utility.yul\":2623:2628   */\n      dup4\n        /* \"#utility.yul\":2619:2635   */\n      add\n        /* \"#utility.yul\":2613:2636   */\n      mload\n        /* \"#utility.yul\":2649:2712   */\n      tag_233\n        /* \"#utility.yul\":2706:2710   */\n      0x40\n        /* \"#utility.yul\":2701:2704   */\n      dup7\n        /* \"#utility.yul\":2697:2711   */\n      add\n        /* \"#utility.yul\":2683:2695   */\n      dup3\n        /* \"#utility.yul\":2649:2712   */\n      tag_145\n      jump\t// in\n    tag_233:\n        /* \"#utility.yul\":2555:2722   */\n      pop\n        /* \"#utility.yul\":2739:2743   */\n      dup1\n        /* \"#utility.yul\":2732:2743   */\n      swap2\n      pop\n        /* \"#utility.yul\":2081:2749   */\n      pop\n        /* \"#utility.yul\":1957:2749   */\n      swap3\n      swap2\n      pop\n      pop\n      jump\t// out\n        /* \"#utility.yul\":2755:3128   */\n    tag_22:\n        /* \"#utility.yul\":2898:2902   */\n      0x00\n        /* \"#utility.yul\":2936:2938   */\n      0x20\n        /* \"#utility.yul\":2925:2934   */\n      dup3\n        /* \"#utility.yul\":2921:2939   */\n      add\n        /* \"#utility.yul\":2913:2939   */\n      swap1\n      pop\n        /* \"#utility.yul\":2985:2994   */\n      dup2\n        /* \"#utility.yul\":2979:2983   */\n      dup2\n        /* \"#utility.yul\":2975:2995   */\n      sub\n        /* \"#utility.yul\":2971:2972   */\n      0x00\n        /* \"#utility.yul\":2960:2969   */\n      dup4\n        /* \"#utility.yul\":2956:2973   */\n      add\n        /* \"#utility.yul\":2949:2996   */\n      mstore\n        /* \"#utility.yul\":3013:3121   */\n      tag_235\n        /* \"#utility.yul\":3116:3120   */\n      dup2\n        /* \"#utility.yul\":3107:3113   */\n      dup5\n        /* \"#utility.yul\":3013:3121   */\n      tag_146\n      jump\t// in\n    tag_235:\n        /* \"#utility.yul\":3005:3121   */\n      swap1\n      pop\n        /* \"#utility.yul\":2755:3128   */\n      swap3\n      swap2\n      pop\n      pop\n      jump\t// out\n        /* \"#utility.yul\":3134:3273   */\n    tag_147:\n        /* \"#utility.yul\":3226:3232   */\n      0x00\n        /* \"#utility.yul\":3260:3265   */\n      dup2\n        /* \"#utility.yul\":3254:3266   */\n      mload\n        /* \"#utility.yul\":3244:3266   */\n      swap1\n      pop\n        /* \"#utility.yul\":3134:3273   */\n      swap2\n      swap1\n      pop\n      jump\t// out\n        /* \"#utility.yul\":3279:3488   */\n    tag_148:\n        /* \"#utility.yul\":3403:3414   */\n      0x00\n        /* \"#utility.yul\":3437:3443   */\n      dup3\n        /* \"#utility.yul\":3432:3435   */\n      dup3\n        /* \"#utility.yul\":3425:3444   */\n      mstore\n        /* \"#utility.yul\":3477:3481   */\n      0x20\n        /* \"#utility.yul\":3472:3475   */\n      dup3\n        /* \"#utility.yul\":3468:3482   */\n      add\n        /* \"#utility.yul\":3453:3482   */\n      swap1\n      pop\n        /* \"#utility.yul\":3279:3488   */\n      swap3\n      swap2\n      pop\n      pop\n      jump\t// out\n        /* \"#utility.yul\":3494:3651   */\n    tag_149:\n        /* \"#utility.yul\":3586:3590   */\n      0x00\n        /* \"#utility.yul\":3609:3612   */\n      dup2\n        /* \"#utility.yul\":3601:3612   */\n      swap1\n      pop\n        /* \"#utility.yul\":3639:3643   */\n      0x20\n        /* \"#utility.yul\":3634:3637   */\n      dup3\n        /* \"#utility.yul\":3630:3644   */\n      add\n        /* \"#utility.yul\":3622:3644   */\n      swap1\n      pop\n        /* \"#utility.yul\":3494:3651   */\n      swap2\n      swap1\n      pop\n      jump\t// out\n        /* \"#utility.yul\":3717:4499   */\n    tag_150:\n        /* \"#utility.yul\":3826:3829   */\n      0x00\n        /* \"#utility.yul\":3862:3866   */\n      0x60\n        /* \"#utility.yul\":3857:3860   */\n      dup4\n        /* \"#utility.yul\":3853:3867   */\n      add\n        /* \"#utility.yul\":3949:3953   */\n      0x00\n        /* \"#utility.yul\":3942:3947   */\n      dup4\n        /* \"#utility.yul\":3938:3954   */\n      add\n        /* \"#utility.yul\":3932:3955   */\n      mload\n        /* \"#utility.yul\":4002:4005   */\n      dup5\n        /* \"#utility.yul\":3996:4000   */\n      dup3\n        /* \"#utility.yul\":3992:4006   */\n      sub\n        /* \"#utility.yul\":3985:3989   */\n      0x00\n        /* \"#utility.yul\":3980:3983   */\n      dup7\n        /* \"#utility.yul\":3976:3990   */\n      add\n        /* \"#utility.yul\":3969:4007   */\n      mstore\n        /* \"#utility.yul\":4028:4101   */\n      tag_240\n        /* \"#utility.yul\":4096:4100   */\n      dup3\n        /* \"#utility.yul\":4082:4094   */\n      dup3\n        /* \"#utility.yul\":4028:4101   */\n      tag_142\n      jump\t// in\n    tag_240:\n        /* \"#utility.yul\":4020:4101   */\n      swap2\n      pop\n        /* \"#utility.yul\":3877:4112   */\n      pop\n        /* \"#utility.yul\":4203:4207   */\n      0x20\n        /* \"#utility.yul\":4196:4201   */\n      dup4\n        /* \"#utility.yul\":4192:4208   */\n      add\n        /* \"#utility.yul\":4186:4209   */\n      mload\n        /* \"#utility.yul\":4222:4285   */\n      tag_241\n        /* \"#utility.yul\":4279:4283   */\n      0x20\n        /* \"#utility.yul\":4274:4277   */\n      dup7\n        /* \"#utility.yul\":4270:4284   */\n      add\n        /* \"#utility.yul\":4256:4268   */\n      dup3\n        /* \"#utility.yul\":4222:4285   */\n      tag_143\n      jump\t// in\n    tag_241:\n        /* \"#utility.yul\":4122:4295   */\n      pop\n        /* \"#utility.yul\":4380:4384   */\n      0x40\n        /* \"#utility.yul\":4373:4378   */\n      dup4\n        /* \"#utility.yul\":4369:4385   */\n      add\n        /* \"#utility.yul\":4363:4386   */\n      mload\n        /* \"#utility.yul\":4399:4462   */\n      tag_242\n        /* \"#utility.yul\":4456:4460   */\n      0x40\n        /* \"#utility.yul\":4451:4454   */\n      dup7\n        /* \"#utility.yul\":4447:4461   */\n      add\n        /* \"#utility.yul\":4433:4445   */\n      dup3\n        /* \"#utility.yul\":4399:4462   */\n      tag_145\n      jump\t// in\n    tag_242:\n        /* \"#utility.yul\":4305:4472   */\n      pop\n        /* \"#utility.yul\":4489:4493   */\n      dup1\n        /* \"#utility.yul\":4482:4493   */\n      swap2\n      pop\n        /* \"#utility.yul\":3831:4499   */\n      pop\n        /* \"#utility.yul\":3717:4499   */\n      swap3\n      swap2\n      pop\n      pop\n      jump\t// out\n        /* \"#utility.yul\":4505:4761   */\n    tag_151:\n        /* \"#utility.yul\":4624:4634   */\n      0x00\n        /* \"#utility.yul\":4659:4755   */\n      tag_244\n        /* \"#utility.yul\":4751:4754   */\n      dup4\n        /* \"#utility.yul\":4743:4749   */\n      dup4\n        /* \"#utility.yul\":4659:4755   */\n      tag_150\n      jump\t// in\n    tag_244:\n        /* \"#utility.yul\":4645:4755   */\n      swap1\n      pop\n        /* \"#utility.yul\":4505:4761   */\n      swap3\n      swap2\n      pop\n      pop\n      jump\t// out\n        /* \"#utility.yul\":4767:4905   */\n    tag_152:\n        /* \"#utility.yul\":4862:4866   */\n      0x00\n        /* \"#utility.yul\":4894:4898   */\n      0x20\n        /* \"#utility.yul\":4889:4892   */\n      dup3\n        /* \"#utility.yul\":4885:4899   */\n      add\n        /* \"#utility.yul\":4877:4899   */\n      swap1\n      pop\n        /* \"#utility.yul\":4767:4905   */\n      swap2\n      swap1\n      pop\n      jump\t// out\n        /* \"#utility.yul\":4975:6086   */\n    tag_153:\n        /* \"#utility.yul\":5144:5147   */\n      0x00\n        /* \"#utility.yul\":5173:5252   */\n      tag_247\n        /* \"#utility.yul\":5246:5251   */\n      dup3\n        /* \"#utility.yul\":5173:5252   */\n      tag_147\n      jump\t// in\n    tag_247:\n        /* \"#utility.yul\":5268:5379   */\n      tag_248\n        /* \"#utility.yul\":5372:5378   */\n      dup2\n        /* \"#utility.yul\":5367:5370   */\n      dup6\n        /* \"#utility.yul\":5268:5379   */\n      tag_148\n      jump\t// in\n    tag_248:\n        /* \"#utility.yul\":5261:5379   */\n      swap4\n      pop\n        /* \"#utility.yul\":5405:5408   */\n      dup4\n        /* \"#utility.yul\":5450:5454   */\n      0x20\n        /* \"#utility.yul\":5442:5448   */\n      dup3\n        /* \"#utility.yul\":5438:5455   */\n      mul\n        /* \"#utility.yul\":5433:5436   */\n      dup6\n        /* \"#utility.yul\":5429:5456   */\n      add\n        /* \"#utility.yul\":5480:5561   */\n      tag_249\n        /* \"#utility.yul\":5555:5560   */\n      dup6\n        /* \"#utility.yul\":5480:5561   */\n      tag_149\n      jump\t// in\n    tag_249:\n        /* \"#utility.yul\":5584:5591   */\n      dup1\n        /* \"#utility.yul\":5615:5616   */\n      0x00\n        /* \"#utility.yul\":5600:6041   */\n    tag_250:\n        /* \"#utility.yul\":5625:5631   */\n      dup6\n        /* \"#utility.yul\":5622:5623   */\n      dup2\n        /* \"#utility.yul\":5619:5632   */\n      lt\n        /* \"#utility.yul\":5600:6041   */\n      iszero\n      tag_252\n      jumpi\n        /* \"#utility.yul\":5696:5705   */\n      dup5\n        /* \"#utility.yul\":5690:5694   */\n      dup5\n        /* \"#utility.yul\":5686:5706   */\n      sub\n        /* \"#utility.yul\":5681:5684   */\n      dup10\n        /* \"#utility.yul\":5674:5707   */\n      mstore\n        /* \"#utility.yul\":5747:5753   */\n      dup2\n        /* \"#utility.yul\":5741:5754   */\n      mload\n        /* \"#utility.yul\":5775:5889   */\n      tag_253\n        /* \"#utility.yul\":5884:5888   */\n      dup6\n        /* \"#utility.yul\":5869:5882   */\n      dup3\n        /* \"#utility.yul\":5775:5889   */\n      tag_151\n      jump\t// in\n    tag_253:\n        /* \"#utility.yul\":5767:5889   */\n      swap5\n      pop\n        /* \"#utility.yul\":5912:5997   */\n      tag_254\n        /* \"#utility.yul\":5990:5996   */\n      dup4\n        /* \"#utility.yul\":5912:5997   */\n      tag_152\n      jump\t// in\n    tag_254:\n        /* \"#utility.yul\":5902:5997   */\n      swap3\n      pop\n        /* \"#utility.yul\":6026:6030   */\n      0x20\n        /* \"#utility.yul\":6021:6024   */\n      dup11\n        /* \"#utility.yul\":6017:6031   */\n      add\n        /* \"#utility.yul\":6010:6031   */\n      swap10\n      pop\n        /* \"#utility.yul\":5660:6041   */\n      pop\n        /* \"#utility.yul\":5647:5648   */\n      0x01\n        /* \"#utility.yul\":5644:5645   */\n      dup2\n        /* \"#utility.yul\":5640:5649   */\n      add\n        /* \"#utility.yul\":5635:5649   */\n      swap1\n      pop\n        /* \"#utility.yul\":5600:6041   */\n      jump(tag_250)\n    tag_252:\n        /* \"#utility.yul\":5604:5618   */\n      pop\n        /* \"#utility.yul\":6057:6061   */\n      dup3\n        /* \"#utility.yul\":6050:6061   */\n      swap8\n      pop\n        /* \"#utility.yul\":6077:6080   */\n      dup8\n        /* \"#utility.yul\":6070:6080   */\n      swap6\n      pop\n        /* \"#utility.yul\":5149:6086   */\n      pop\n      pop\n      pop\n      pop\n      pop\n        /* \"#utility.yul\":4975:6086   */\n      swap3\n      swap2\n      pop\n      pop\n      jump\t// out\n        /* \"#utility.yul\":6092:6565   */\n    tag_27:\n        /* \"#utility.yul\":6285:6289   */\n      0x00\n        /* \"#utility.yul\":6323:6325   */\n      0x20\n        /* \"#utility.yul\":6312:6321   */\n      dup3\n        /* \"#utility.yul\":6308:6326   */\n      add\n        /* \"#utility.yul\":6300:6326   */\n      swap1\n      pop\n        /* \"#utility.yul\":6372:6381   */\n      dup2\n        /* \"#utility.yul\":6366:6370   */\n      dup2\n        /* \"#utility.yul\":6362:6382   */\n      sub\n        /* \"#utility.yul\":6358:6359   */\n      0x00\n        /* \"#utility.yul\":6347:6356   */\n      dup4\n        /* \"#utility.yul\":6343:6360   */\n      add\n        /* \"#utility.yul\":6336:6383   */\n      mstore\n        /* \"#utility.yul\":6400:6558   */\n      tag_256\n        /* \"#utility.yul\":6553:6557   */\n      dup2\n        /* \"#utility.yul\":6544:6550   */\n      dup5\n        /* \"#utility.yul\":6400:6558   */\n      tag_153\n      jump\t// in\n    tag_256:\n        /* \"#utility.yul\":6392:6558   */\n      swap1\n      pop\n        /* \"#utility.yul\":6092:6565   */\n      swap3\n      swap2\n      pop\n      pop\n      jump\t// out\n        /* \"#utility.yul\":6571:6646   */\n    tag_154:\n        /* \"#utility.yul\":6604:6610   */\n      0x00\n        /* \"#utility.yul\":6637:6639   */\n      0x40\n        /* \"#utility.yul\":6631:6640   */\n      mload\n        /* \"#utility.yul\":6621:6640   */\n      swap1\n      pop\n        /* \"#utility.yul\":6571:6646   */\n      swap1\n      jump\t// out\n        /* \"#utility.yul\":6652:6769   */\n    tag_155:\n        /* \"#utility.yul\":6761:6762   */\n      0x00\n        /* \"#utility.yul\":6758:6759   */\n      dup1\n        /* \"#utility.yul\":6751:6763   */\n      revert\n        /* \"#utility.yul\":6775:6892   */\n    tag_156:\n        /* \"#utility.yul\":6884:6885   */\n      0x00\n        /* \"#utility.yul\":6881:6882   */\n      dup1\n        /* \"#utility.yul\":6874:6886   */\n      revert\n        /* \"#utility.yul\":6898:7015   */\n    tag_157:\n        /* \"#utility.yul\":7007:7008   */\n      0x00\n        /* \"#utility.yul\":7004:7005   */\n      dup1\n        /* \"#utility.yul\":6997:7009   */\n      revert\n        /* \"#utility.yul\":7021:7138   */\n    tag_158:\n        /* \"#utility.yul\":7130:7131   */\n      0x00\n        /* \"#utility.yul\":7127:7128   */\n      dup1\n        /* \"#utility.yul\":7120:7132   */\n      revert\n        /* \"#utility.yul\":7144:7324   */\n    tag_159:\n        /* \"#utility.yul\":7192:7269   */\n      0x4e487b7100000000000000000000000000000000000000000000000000000000\n        /* \"#utility.yul\":7189:7190   */\n      0x00\n        /* \"#utility.yul\":7182:7270   */\n      mstore\n        /* \"#utility.yul\":7289:7293   */\n      0x41\n        /* \"#utility.yul\":7286:7287   */\n      0x04\n        /* \"#utility.yul\":7279:7294   */\n      mstore\n        /* \"#utility.yul\":7313:7317   */\n      0x24\n        /* \"#utility.yul\":7310:7311   */\n      0x00\n        /* \"#utility.yul\":7303:7318   */\n      revert\n        /* \"#utility.yul\":7330:7611   */\n    tag_160:\n        /* \"#utility.yul\":7413:7440   */\n      tag_264\n        /* \"#utility.yul\":7435:7439   */\n      dup3\n        /* \"#utility.yul\":7413:7440   */\n      tag_141\n      jump\t// in\n    tag_264:\n        /* \"#utility.yul\":7405:7411   */\n      dup2\n        /* \"#utility.yul\":7401:7441   */\n      add\n        /* \"#utility.yul\":7543:7549   */\n      dup2\n        /* \"#utility.yul\":7531:7541   */\n      dup2\n        /* \"#utility.yul\":7528:7550   */\n      lt\n        /* \"#utility.yul\":7507:7525   */\n      0xffffffffffffffff\n        /* \"#utility.yul\":7495:7505   */\n      dup3\n        /* \"#utility.yul\":7492:7526   */\n      gt\n        /* \"#utility.yul\":7489:7551   */\n      or\n        /* \"#utility.yul\":7486:7574   */\n      iszero\n      tag_265\n      jumpi\n        /* \"#utility.yul\":7554:7572   */\n      tag_266\n      tag_159\n      jump\t// in\n    tag_266:\n        /* \"#utility.yul\":7486:7574   */\n    tag_265:\n        /* \"#utility.yul\":7594:7604   */\n      dup1\n        /* \"#utility.yul\":7590:7592   */\n      0x40\n        /* \"#utility.yul\":7583:7605   */\n      mstore\n        /* \"#utility.yul\":7373:7611   */\n      pop\n        /* \"#utility.yul\":7330:7611   */\n      pop\n      pop\n      jump\t// out\n        /* \"#utility.yul\":7617:7746   */\n    tag_161:\n        /* \"#utility.yul\":7651:7657   */\n      0x00\n        /* \"#utility.yul\":7678:7698   */\n      tag_268\n      tag_154\n      jump\t// in\n    tag_268:\n        /* \"#utility.yul\":7668:7698   */\n      swap1\n      pop\n        /* \"#utility.yul\":7707:7740   */\n      tag_269\n        /* \"#utility.yul\":7735:7739   */\n      dup3\n        /* \"#utility.yul\":7727:7733   */\n      dup3\n        /* \"#utility.yul\":7707:7740   */\n      tag_160\n      jump\t// in\n    tag_269:\n        /* \"#utility.yul\":7617:7746   */\n      swap2\n      swap1\n      pop\n      jump\t// out\n        /* \"#utility.yul\":7752:8060   */\n    tag_162:\n        /* \"#utility.yul\":7814:7818   */\n      0x00\n        /* \"#utility.yul\":7904:7922   */\n      0xffffffffffffffff\n        /* \"#utility.yul\":7896:7902   */\n      dup3\n        /* \"#utility.yul\":7893:7923   */\n      gt\n        /* \"#utility.yul\":7890:7946   */\n      iszero\n      tag_271\n      jumpi\n        /* \"#utility.yul\":7926:7944   */\n      tag_272\n      tag_159\n      jump\t// in\n    tag_272:\n        /* \"#utility.yul\":7890:7946   */\n    tag_271:\n        /* \"#utility.yul\":7964:7993   */\n      tag_273\n        /* \"#utility.yul\":7986:7992   */\n      dup3\n        /* \"#utility.yul\":7964:7993   */\n      tag_141\n      jump\t// in\n    tag_273:\n        /* \"#utility.yul\":7956:7993   */\n      swap1\n      pop\n        /* \"#utility.yul\":8048:8052   */\n      0x20\n        /* \"#utility.yul\":8042:8046   */\n      dup2\n        /* \"#utility.yul\":8038:8053   */\n      add\n        /* \"#utility.yul\":8030:8053   */\n      swap1\n      pop\n        /* \"#utility.yul\":7752:8060   */\n      swap2\n      swap1\n      pop\n      jump\t// out\n        /* \"#utility.yul\":8066:8212   */\n    tag_163:\n        /* \"#utility.yul\":8163:8169   */\n      dup3\n        /* \"#utility.yul\":8158:8161   */\n      dup2\n        /* \"#utility.yul\":8153:8156   */\n      dup4\n        /* \"#utility.yul\":8140:8170   */\n      calldatacopy\n        /* \"#utility.yul\":8204:8205   */\n      0x00\n        /* \"#utility.yul\":8195:8201   */\n      dup4\n        /* \"#utility.yul\":8190:8193   */\n      dup4\n        /* \"#utility.yul\":8186:8202   */\n      add\n        /* \"#utility.yul\":8179:8206   */\n      mstore\n        /* \"#utility.yul\":8066:8212   */\n      pop\n      pop\n      pop\n      jump\t// out\n        /* \"#utility.yul\":8218:8643   */\n    tag_164:\n        /* \"#utility.yul\":8296:8301   */\n      0x00\n        /* \"#utility.yul\":8321:8387   */\n      tag_276\n        /* \"#utility.yul\":8337:8386   */\n      tag_277\n        /* \"#utility.yul\":8379:8385   */\n      dup5\n        /* \"#utility.yul\":8337:8386   */\n      tag_162\n      jump\t// in\n    tag_277:\n        /* \"#utility.yul\":8321:8387   */\n      tag_161\n      jump\t// in\n    tag_276:\n        /* \"#utility.yul\":8312:8387   */\n      swap1\n      pop\n        /* \"#utility.yul\":8410:8416   */\n      dup3\n        /* \"#utility.yul\":8403:8408   */\n      dup2\n        /* \"#utility.yul\":8396:8417   */\n      mstore\n        /* \"#utility.yul\":8448:8452   */\n      0x20\n        /* \"#utility.yul\":8441:8446   */\n      dup2\n        /* \"#utility.yul\":8437:8453   */\n      add\n        /* \"#utility.yul\":8486:8489   */\n      dup5\n        /* \"#utility.yul\":8477:8483   */\n      dup5\n        /* \"#utility.yul\":8472:8475   */\n      dup5\n        /* \"#utility.yul\":8468:8484   */\n      add\n        /* \"#utility.yul\":8465:8490   */\n      gt\n        /* \"#utility.yul\":8462:8574   */\n      iszero\n      tag_278\n      jumpi\n        /* \"#utility.yul\":8493:8572   */\n      tag_279\n      tag_158\n      jump\t// in\n    tag_279:\n        /* \"#utility.yul\":8462:8574   */\n    tag_278:\n        /* \"#utility.yul\":8583:8637   */\n      tag_280\n        /* \"#utility.yul\":8630:8636   */\n      dup5\n        /* \"#utility.yul\":8625:8628   */\n      dup3\n        /* \"#utility.yul\":8620:8623   */\n      dup6\n        /* \"#utility.yul\":8583:8637   */\n      tag_163\n      jump\t// in\n    tag_280:\n        /* \"#utility.yul\":8302:8643   */\n      pop\n        /* \"#utility.yul\":8218:8643   */\n      swap4\n      swap3\n      pop\n      pop\n      pop\n      jump\t// out\n        /* \"#utility.yul\":8663:9003   */\n    tag_165:\n        /* \"#utility.yul\":8719:8724   */\n      0x00\n        /* \"#utility.yul\":8768:8771   */\n      dup3\n        /* \"#utility.yul\":8761:8765   */\n      0x1f\n        /* \"#utility.yul\":8753:8759   */\n      dup4\n        /* \"#utility.yul\":8749:8766   */\n      add\n        /* \"#utility.yul\":8745:8772   */\n      slt\n        /* \"#utility.yul\":8735:8857   */\n      tag_282\n      jumpi\n        /* \"#utility.yul\":8776:8855   */\n      tag_283\n      tag_157\n      jump\t// in\n    tag_283:\n        /* \"#utility.yul\":8735:8857   */\n    tag_282:\n        /* \"#utility.yul\":8893:8899   */\n      dup2\n        /* \"#utility.yul\":8880:8900   */\n      calldataload\n        /* \"#utility.yul\":8918:8997   */\n      tag_284\n        /* \"#utility.yul\":8993:8996   */\n      dup5\n        /* \"#utility.yul\":8985:8991   */\n      dup3\n        /* \"#utility.yul\":8978:8982   */\n      0x20\n        /* \"#utility.yul\":8970:8976   */\n      dup7\n        /* \"#utility.yul\":8966:8983   */\n      add\n        /* \"#utility.yul\":8918:8997   */\n      tag_164\n      jump\t// in\n    tag_284:\n        /* \"#utility.yul\":8909:8997   */\n      swap2\n      pop\n        /* \"#utility.yul\":8725:9003   */\n      pop\n        /* \"#utility.yul\":8663:9003   */\n      swap3\n      swap2\n      pop\n      pop\n      jump\t// out\n        /* \"#utility.yul\":9009:9518   */\n    tag_34:\n        /* \"#utility.yul\":9078:9084   */\n      0x00\n        /* \"#utility.yul\":9127:9129   */\n      0x20\n        /* \"#utility.yul\":9115:9124   */\n      dup3\n        /* \"#utility.yul\":9106:9113   */\n      dup5\n        /* \"#utility.yul\":9102:9125   */\n      sub\n        /* \"#utility.yul\":9098:9130   */\n      slt\n        /* \"#utility.yul\":9095:9214   */\n      iszero\n      tag_286\n      jumpi\n        /* \"#utility.yul\":9133:9212   */\n      tag_287\n      tag_155\n      jump\t// in\n    tag_287:\n        /* \"#utility.yul\":9095:9214   */\n    tag_286:\n        /* \"#utility.yul\":9281:9282   */\n      0x00\n        /* \"#utility.yul\":9270:9279   */\n      dup3\n        /* \"#utility.yul\":9266:9283   */\n      add\n        /* \"#utility.yul\":9253:9284   */\n      calldataload\n        /* \"#utility.yul\":9311:9329   */\n      0xffffffffffffffff\n        /* \"#utility.yul\":9303:9309   */\n      dup2\n        /* \"#utility.yul\":9300:9330   */\n      gt\n        /* \"#utility.yul\":9297:9414   */\n      iszero\n      tag_288\n      jumpi\n        /* \"#utility.yul\":9333:9412   */\n      tag_289\n      tag_156\n      jump\t// in\n    tag_289:\n        /* \"#utility.yul\":9297:9414   */\n    tag_288:\n        /* \"#utility.yul\":9438:9501   */\n      tag_290\n        /* \"#utility.yul\":9493:9500   */\n      dup5\n        /* \"#utility.yul\":9484:9490   */\n      dup3\n        /* \"#utility.yul\":9473:9482   */\n      dup6\n        /* \"#utility.yul\":9469:9491   */\n      add\n        /* \"#utility.yul\":9438:9501   */\n      tag_165\n      jump\t// in\n    tag_290:\n        /* \"#utility.yul\":9428:9501   */\n      swap2\n      pop\n        /* \"#utility.yul\":9224:9511   */\n      pop\n        /* \"#utility.yul\":9009:9518   */\n      swap3\n      swap2\n      pop\n      pop\n      jump\t// out\n        /* \"#utility.yul\":9524:9646   */\n    tag_166:\n        /* \"#utility.yul\":9597:9621   */\n      tag_292\n        /* \"#utility.yul\":9615:9620   */\n      dup2\n        /* \"#utility.yul\":9597:9621   */\n      tag_144\n      jump\t// in\n    tag_292:\n        /* \"#utility.yul\":9590:9595   */\n      dup2\n        /* \"#utility.yul\":9587:9622   */\n      eq\n        /* \"#utility.yul\":9577:9640   */\n      tag_293\n      jumpi\n        /* \"#utility.yul\":9636:9637   */\n      0x00\n        /* \"#utility.yul\":9633:9634   */\n      dup1\n        /* \"#utility.yul\":9626:9638   */\n      revert\n        /* \"#utility.yul\":9577:9640   */\n    tag_293:\n        /* \"#utility.yul\":9524:9646   */\n      pop\n      jump\t// out\n        /* \"#utility.yul\":9652:9791   */\n    tag_167:\n        /* \"#utility.yul\":9698:9703   */\n      0x00\n        /* \"#utility.yul\":9736:9742   */\n      dup2\n        /* \"#utility.yul\":9723:9743   */\n      calldataload\n        /* \"#utility.yul\":9714:9743   */\n      swap1\n      pop\n        /* \"#utility.yul\":9752:9785   */\n      tag_295\n        /* \"#utility.yul\":9779:9784   */\n      dup2\n        /* \"#utility.yul\":9752:9785   */\n      tag_166\n      jump\t// in\n    tag_295:\n        /* \"#utility.yul\":9652:9791   */\n      swap3\n      swap2\n      pop\n      pop\n      jump\t// out\n        /* \"#utility.yul\":9797:10126   */\n    tag_39:\n        /* \"#utility.yul\":9856:9862   */\n      0x00\n        /* \"#utility.yul\":9905:9907   */\n      0x20\n        /* \"#utility.yul\":9893:9902   */\n      dup3\n        /* \"#utility.yul\":9884:9891   */\n      dup5\n        /* \"#utility.yul\":9880:9903   */\n      sub\n        /* \"#utility.yul\":9876:9908   */\n      slt\n        /* \"#utility.yul\":9873:9992   */\n      iszero\n      tag_297\n      jumpi\n        /* \"#utility.yul\":9911:9990   */\n      tag_298\n      tag_155\n      jump\t// in\n    tag_298:\n        /* \"#utility.yul\":9873:9992   */\n    tag_297:\n        /* \"#utility.yul\":10031:10032   */\n      0x00\n        /* \"#utility.yul\":10056:10109   */\n      tag_299\n        /* \"#utility.yul\":10101:10108   */\n      dup5\n        /* \"#utility.yul\":10092:10098   */\n      dup3\n        /* \"#utility.yul\":10081:10090   */\n      dup6\n        /* \"#utility.yul\":10077:10099   */\n      add\n        /* \"#utility.yul\":10056:10109   */\n      tag_167\n      jump\t// in\n    tag_299:\n        /* \"#utility.yul\":10046:10109   */\n      swap2\n      pop\n        /* \"#utility.yul\":10002:10119   */\n      pop\n        /* \"#utility.yul\":9797:10126   */\n      swap3\n      swap2\n      pop\n      pop\n      jump\t// out\n        /* \"#utility.yul\":10132:10301   */\n    tag_168:\n        /* \"#utility.yul\":10216:10227   */\n      0x00\n        /* \"#utility.yul\":10250:10256   */\n      dup3\n        /* \"#utility.yul\":10245:10248   */\n      dup3\n        /* \"#utility.yul\":10238:10257   */\n      mstore\n        /* \"#utility.yul\":10290:10294   */\n      0x20\n        /* \"#utility.yul\":10285:10288   */\n      dup3\n        /* \"#utility.yul\":10281:10295   */\n      add\n        /* \"#utility.yul\":10266:10295   */\n      swap1\n      pop\n        /* \"#utility.yul\":10132:10301   */\n      swap3\n      swap2\n      pop\n      pop\n      jump\t// out\n        /* \"#utility.yul\":10307:10480   */\n    tag_169:\n        /* \"#utility.yul\":10447:10472   */\n      0x4f6e6c79204d616e616765722063616e2072756e206974000000000000000000\n        /* \"#utility.yul\":10443:10444   */\n      0x00\n        /* \"#utility.yul\":10435:10441   */\n      dup3\n        /* \"#utility.yul\":10431:10445   */\n      add\n        /* \"#utility.yul\":10424:10473   */\n      mstore\n        /* \"#utility.yul\":10307:10480   */\n      pop\n      jump\t// out\n        /* \"#utility.yul\":10486:10852   */\n    tag_170:\n        /* \"#utility.yul\":10628:10631   */\n      0x00\n        /* \"#utility.yul\":10649:10716   */\n      tag_303\n        /* \"#utility.yul\":10713:10715   */\n      0x17\n        /* \"#utility.yul\":10708:10711   */\n      dup4\n        /* \"#utility.yul\":10649:10716   */\n      tag_168\n      jump\t// in\n    tag_303:\n        /* \"#utility.yul\":10642:10716   */\n      swap2\n      pop\n        /* \"#utility.yul\":10725:10818   */\n      tag_304\n        /* \"#utility.yul\":10814:10817   */\n      dup3\n        /* \"#utility.yul\":10725:10818   */\n      tag_169\n      jump\t// in\n    tag_304:\n        /* \"#utility.yul\":10843:10845   */\n      0x20\n        /* \"#utility.yul\":10838:10841   */\n      dup3\n        /* \"#utility.yul\":10834:10846   */\n      add\n        /* \"#utility.yul\":10827:10846   */\n      swap1\n      pop\n        /* \"#utility.yul\":10486:10852   */\n      swap2\n      swap1\n      pop\n      jump\t// out\n        /* \"#utility.yul\":10858:11277   */\n    tag_45:\n        /* \"#utility.yul\":11024:11028   */\n      0x00\n        /* \"#utility.yul\":11062:11064   */\n      0x20\n        /* \"#utility.yul\":11051:11060   */\n      dup3\n        /* \"#utility.yul\":11047:11065   */\n      add\n        /* \"#utility.yul\":11039:11065   */\n      swap1\n      pop\n        /* \"#utility.yul\":11111:11120   */\n      dup2\n        /* \"#utility.yul\":11105:11109   */\n      dup2\n        /* \"#utility.yul\":11101:11121   */\n      sub\n        /* \"#utility.yul\":11097:11098   */\n      0x00\n        /* \"#utility.yul\":11086:11095   */\n      dup4\n        /* \"#utility.yul\":11082:11099   */\n      add\n        /* \"#utility.yul\":11075:11122   */\n      mstore\n        /* \"#utility.yul\":11139:11270   */\n      tag_306\n        /* \"#utility.yul\":11265:11269   */\n      dup2\n        /* \"#utility.yul\":11139:11270   */\n      tag_170\n      jump\t// in\n    tag_306:\n        /* \"#utility.yul\":11131:11270   */\n      swap1\n      pop\n        /* \"#utility.yul\":10858:11277   */\n      swap2\n      swap1\n      pop\n      jump\t// out\n        /* \"#utility.yul\":11283:11460   */\n    tag_171:\n        /* \"#utility.yul\":11423:11452   */\n      0x506c65617365206164642074686520706c617965722066697273740000000000\n        /* \"#utility.yul\":11419:11420   */\n      0x00\n        /* \"#utility.yul\":11411:11417   */\n      dup3\n        /* \"#utility.yul\":11407:11421   */\n      add\n        /* \"#utility.yul\":11400:11453   */\n      mstore\n        /* \"#utility.yul\":11283:11460   */\n      pop\n      jump\t// out\n        /* \"#utility.yul\":11466:11832   */\n    tag_172:\n        /* \"#utility.yul\":11608:11611   */\n      0x00\n        /* \"#utility.yul\":11629:11696   */\n      tag_309\n        /* \"#utility.yul\":11693:11695   */\n      0x1b\n        /* \"#utility.yul\":11688:11691   */\n      dup4\n        /* \"#utility.yul\":11629:11696   */\n      tag_168\n      jump\t// in\n    tag_309:\n        /* \"#utility.yul\":11622:11696   */\n      swap2\n      pop\n        /* \"#utility.yul\":11705:11798   */\n      tag_310\n        /* \"#utility.yul\":11794:11797   */\n      dup3\n        /* \"#utility.yul\":11705:11798   */\n      tag_171\n      jump\t// in\n    tag_310:\n        /* \"#utility.yul\":11823:11825   */\n      0x20\n        /* \"#utility.yul\":11818:11821   */\n      dup3\n        /* \"#utility.yul\":11814:11826   */\n      add\n        /* \"#utility.yul\":11807:11826   */\n      swap1\n      pop\n        /* \"#utility.yul\":11466:11832   */\n      swap2\n      swap1\n      pop\n      jump\t// out\n        /* \"#utility.yul\":11838:12257   */\n    tag_57:\n        /* \"#utility.yul\":12004:12008   */\n      0x00\n        /* \"#utility.yul\":12042:12044   */\n      0x20\n        /* \"#utility.yul\":12031:12040   */\n      dup3\n        /* \"#utility.yul\":12027:12045   */\n      add\n        /* \"#utility.yul\":12019:12045   */\n      swap1\n      pop\n        /* \"#utility.yul\":12091:12100   */\n      dup2\n        /* \"#utility.yul\":12085:12089   */\n      dup2\n        /* \"#utility.yul\":12081:12101   */\n      sub\n        /* \"#utility.yul\":12077:12078   */\n      0x00\n        /* \"#utility.yul\":12066:12075   */\n      dup4\n        /* \"#utility.yul\":12062:12079   */\n      add\n        /* \"#utility.yul\":12055:12102   */\n      mstore\n        /* \"#utility.yul\":12119:12250   */\n      tag_312\n        /* \"#utility.yul\":12245:12249   */\n      dup2\n        /* \"#utility.yul\":12119:12250   */\n      tag_172\n      jump\t// in\n    tag_312:\n        /* \"#utility.yul\":12111:12250   */\n      swap1\n      pop\n        /* \"#utility.yul\":11838:12257   */\n      swap2\n      swap1\n      pop\n      jump\t// out\n        /* \"#utility.yul\":12263:12443   */\n    tag_173:\n        /* \"#utility.yul\":12311:12388   */\n      0x4e487b7100000000000000000000000000000000000000000000000000000000\n        /* \"#utility.yul\":12308:12309   */\n      0x00\n        /* \"#utility.yul\":12301:12389   */\n      mstore\n        /* \"#utility.yul\":12408:12412   */\n      0x12\n        /* \"#utility.yul\":12405:12406   */\n      0x04\n        /* \"#utility.yul\":12398:12413   */\n      mstore\n        /* \"#utility.yul\":12432:12436   */\n      0x24\n        /* \"#utility.yul\":12429:12430   */\n      0x00\n        /* \"#utility.yul\":12422:12437   */\n      revert\n        /* \"#utility.yul\":12449:12625   */\n    tag_61:\n        /* \"#utility.yul\":12481:12482   */\n      0x00\n        /* \"#utility.yul\":12498:12518   */\n      tag_315\n        /* \"#utility.yul\":12516:12517   */\n      dup3\n        /* \"#utility.yul\":12498:12518   */\n      tag_144\n      jump\t// in\n    tag_315:\n        /* \"#utility.yul\":12493:12518   */\n      swap2\n      pop\n        /* \"#utility.yul\":12532:12552   */\n      tag_316\n        /* \"#utility.yul\":12550:12551   */\n      dup4\n        /* \"#utility.yul\":12532:12552   */\n      tag_144\n      jump\t// in\n    tag_316:\n        /* \"#utility.yul\":12527:12552   */\n      swap3\n      pop\n        /* \"#utility.yul\":12571:12572   */\n      dup3\n        /* \"#utility.yul\":12561:12596   */\n      tag_317\n      jumpi\n        /* \"#utility.yul\":12576:12594   */\n      tag_318\n      tag_173\n      jump\t// in\n    tag_318:\n        /* \"#utility.yul\":12561:12596   */\n    tag_317:\n        /* \"#utility.yul\":12617:12618   */\n      dup3\n        /* \"#utility.yul\":12614:12615   */\n      dup3\n        /* \"#utility.yul\":12610:12619   */\n      mod\n        /* \"#utility.yul\":12605:12619   */\n      swap1\n      pop\n        /* \"#utility.yul\":12449:12625   */\n      swap3\n      swap2\n      pop\n      pop\n      jump\t// out\n        /* \"#utility.yul\":12631:12811   */\n    tag_64:\n        /* \"#utility.yul\":12679:12756   */\n      0x4e487b7100000000000000000000000000000000000000000000000000000000\n        /* \"#utility.yul\":12676:12677   */\n      0x00\n        /* \"#utility.yul\":12669:12757   */\n      mstore\n        /* \"#utility.yul\":12776:12780   */\n      0x32\n        /* \"#utility.yul\":12773:12774   */\n      0x04\n        /* \"#utility.yul\":12766:12781   */\n      mstore\n        /* \"#utility.yul\":12800:12804   */\n      0x24\n        /* \"#utility.yul\":12797:12798   */\n      0x00\n        /* \"#utility.yul\":12790:12805   */\n      revert\n        /* \"#utility.yul\":12817:12997   */\n    tag_174:\n        /* \"#utility.yul\":12865:12942   */\n      0x4e487b7100000000000000000000000000000000000000000000000000000000\n        /* \"#utility.yul\":12862:12863   */\n      0x00\n        /* \"#utility.yul\":12855:12943   */\n      mstore\n        /* \"#utility.yul\":12962:12966   */\n      0x22\n        /* \"#utility.yul\":12959:12960   */\n      0x04\n        /* \"#utility.yul\":12952:12967   */\n      mstore\n        /* \"#utility.yul\":12986:12990   */\n      0x24\n        /* \"#utility.yul\":12983:12984   */\n      0x00\n        /* \"#utility.yul\":12976:12991   */\n      revert\n        /* \"#utility.yul\":13003:13323   */\n    tag_67:\n        /* \"#utility.yul\":13047:13053   */\n      0x00\n        /* \"#utility.yul\":13084:13085   */\n      0x02\n        /* \"#utility.yul\":13078:13082   */\n      dup3\n        /* \"#utility.yul\":13074:13086   */\n      div\n        /* \"#utility.yul\":13064:13086   */\n      swap1\n      pop\n        /* \"#utility.yul\":13131:13132   */\n      0x01\n        /* \"#utility.yul\":13125:13129   */\n      dup3\n        /* \"#utility.yul\":13121:13133   */\n      and\n        /* \"#utility.yul\":13152:13170   */\n      dup1\n        /* \"#utility.yul\":13142:13223   */\n      tag_322\n      jumpi\n        /* \"#utility.yul\":13208:13212   */\n      0x7f\n        /* \"#utility.yul\":13200:13206   */\n      dup3\n        /* \"#utility.yul\":13196:13213   */\n      and\n        /* \"#utility.yul\":13186:13213   */\n      swap2\n      pop\n        /* \"#utility.yul\":13142:13223   */\n    tag_322:\n        /* \"#utility.yul\":13270:13272   */\n      0x20\n        /* \"#utility.yul\":13262:13268   */\n      dup3\n        /* \"#utility.yul\":13259:13273   */\n      lt\n        /* \"#utility.yul\":13239:13257   */\n      dup2\n        /* \"#utility.yul\":13236:13274   */\n      sub\n        /* \"#utility.yul\":13233:13317   */\n      tag_323\n      jumpi\n        /* \"#utility.yul\":13289:13307   */\n      tag_324\n      tag_174\n      jump\t// in\n    tag_324:\n        /* \"#utility.yul\":13233:13317   */\n    tag_323:\n        /* \"#utility.yul\":13054:13323   */\n      pop\n        /* \"#utility.yul\":13003:13323   */\n      swap2\n      swap1\n      pop\n      jump\t// out\n        /* \"#utility.yul\":13329:13470   */\n    tag_175:\n        /* \"#utility.yul\":13378:13382   */\n      0x00\n        /* \"#utility.yul\":13401:13404   */\n      dup2\n        /* \"#utility.yul\":13393:13404   */\n      swap1\n      pop\n        /* \"#utility.yul\":13424:13427   */\n      dup2\n        /* \"#utility.yul\":13421:13422   */\n      0x00\n        /* \"#utility.yul\":13414:13428   */\n      mstore\n        /* \"#utility.yul\":13458:13462   */\n      0x20\n        /* \"#utility.yul\":13455:13456   */\n      0x00\n        /* \"#utility.yul\":13445:13463   */\n      keccak256\n        /* \"#utility.yul\":13437:13463   */\n      swap1\n      pop\n        /* \"#utility.yul\":13329:13470   */\n      swap2\n      swap1\n      pop\n      jump\t// out\n        /* \"#utility.yul\":13476:13569   */\n    tag_176:\n        /* \"#utility.yul\":13513:13519   */\n      0x00\n        /* \"#utility.yul\":13560:13562   */\n      0x20\n        /* \"#utility.yul\":13555:13557   */\n      0x1f\n        /* \"#utility.yul\":13548:13553   */\n      dup4\n        /* \"#utility.yul\":13544:13558   */\n      add\n        /* \"#utility.yul\":13540:13563   */\n      div\n        /* \"#utility.yul\":13530:13563   */\n      swap1\n      pop\n        /* \"#utility.yul\":13476:13569   */\n      swap2\n      swap1\n      pop\n      jump\t// out\n        /* \"#utility.yul\":13575:13682   */\n    tag_177:\n        /* \"#utility.yul\":13619:13627   */\n      0x00\n        /* \"#utility.yul\":13669:13674   */\n      dup3\n        /* \"#utility.yul\":13663:13667   */\n      dup3\n        /* \"#utility.yul\":13659:13675   */\n      shl\n        /* \"#utility.yul\":13638:13675   */\n      swap1\n      pop\n        /* \"#utility.yul\":13575:13682   */\n      swap3\n      swap2\n      pop\n      pop\n      jump\t// out\n        /* \"#utility.yul\":13688:14081   */\n    tag_178:\n        /* \"#utility.yul\":13757:13763   */\n      0x00\n        /* \"#utility.yul\":13807:13808   */\n      0x08\n        /* \"#utility.yul\":13795:13805   */\n      dup4\n        /* \"#utility.yul\":13791:13809   */\n      mul\n        /* \"#utility.yul\":13830:13927   */\n      tag_329\n        /* \"#utility.yul\":13860:13926   */\n      0xffffffffffffffffffffffffffffffffffffffffffffffffffffffffffffffff\n        /* \"#utility.yul\":13849:13858   */\n      dup3\n        /* \"#utility.yul\":13830:13927   */\n      tag_177\n      jump\t// in\n    tag_329:\n        /* \"#utility.yul\":13948:13987   */\n      tag_330\n        /* \"#utility.yul\":13978:13986   */\n      dup7\n        /* \"#utility.yul\":13967:13976   */\n      dup4\n        /* \"#utility.yul\":13948:13987   */\n      tag_177\n      jump\t// in\n    tag_330:\n        /* \"#utility.yul\":13936:13987   */\n      swap6\n      pop\n        /* \"#utility.yul\":14020:14024   */\n      dup1\n        /* \"#utility.yul\":14016:14025   */\n      not\n        /* \"#utility.yul\":14009:14014   */\n      dup5\n        /* \"#utility.yul\":14005:14026   */\n      and\n        /* \"#utility.yul\":13996:14026   */\n      swap4\n      pop\n        /* \"#utility.yul\":14069:14073   */\n      dup1\n        /* \"#utility.yul\":14059:14067   */\n      dup7\n        /* \"#utility.yul\":14055:14074   */\n      and\n        /* \"#utility.yul\":14048:14053   */\n      dup5\n        /* \"#utility.yul\":14045:14075   */\n      or\n        /* \"#utility.yul\":14035:14075   */\n      swap3\n      pop\n        /* \"#utility.yul\":13764:14081   */\n      pop\n      pop\n        /* \"#utility.yul\":13688:14081   */\n      swap4\n      swap3\n      pop\n      pop\n      pop\n      jump\t// out\n        /* \"#utility.yul\":14087:14147   */\n    tag_179:\n        /* \"#utility.yul\":14115:14118   */\n      0x00\n        /* \"#utility.yul\":14136:14141   */\n      dup2\n        /* \"#utility.yul\":14129:14141   */\n      swap1\n      pop\n        /* \"#utility.yul\":14087:14147   */\n      swap2\n      swap1\n      pop\n      jump\t// out\n        /* \"#utility.yul\":14153:14295   */\n    tag_180:\n        /* \"#utility.yul\":14203:14212   */\n      0x00\n        /* \"#utility.yul\":14236:14289   */\n      tag_333\n        /* \"#utility.yul\":14254:14288   */\n      tag_334\n        /* \"#utility.yul\":14263:14287   */\n      tag_335\n        /* \"#utility.yul\":14281:14286   */\n      dup5\n        /* \"#utility.yul\":14263:14287   */\n      tag_144\n      jump\t// in\n    tag_335:\n        /* \"#utility.yul\":14254:14288   */\n      tag_179\n      jump\t// in\n    tag_334:\n        /* \"#utility.yul\":14236:14289   */\n      tag_144\n      jump\t// in\n    tag_333:\n        /* \"#utility.yul\":14223:14289   */\n      swap1\n      pop\n        /* \"#utility.yul\":14153:14295   */\n      swap2\n      swap1\n      pop\n      jump\t// out\n        /* \"#utility.yul\":14301:14376   */\n    tag_181:\n        /* \"#utility.yul\":14344:14347   */\n      0x00\n        /* \"#utility.yul\":14365:14370   */\n      dup2\n        /* \"#utility.yul\":14358:14370   */\n      swap1\n      pop\n        /* \"#utility.yul\":14301:14376   */\n      swap2\n      swap1\n      pop\n      jump\t// out\n        /* \"#utility.yul\":14382:14651   */\n    tag_182:\n        /* \"#utility.yul\":14492:14531   */\n      tag_338\n        /* \"#utility.yul\":14523:14530   */\n      dup4\n        /* \"#utility.yul\":14492:14531   */\n      tag_180\n      jump\t// in\n    tag_338:\n        /* \"#utility.yul\":14553:14644   */\n      tag_339\n        /* \"#utility.yul\":14602:14643   */\n      tag_340\n        /* \"#utility.yul\":14626:14642   */\n      dup3\n        /* \"#utility.yul\":14602:14643   */\n      tag_181\n      jump\t// in\n    tag_340:\n        /* \"#utility.yul\":14594:14600   */\n      dup5\n        /* \"#utility.yul\":14587:14591   */\n      dup5\n        /* \"#utility.yul\":14581:14592   */\n      sload\n        /* \"#utility.yul\":14553:14644   */\n      tag_178\n      jump\t// in\n    tag_339:\n        /* \"#utility.yul\":14547:14551   */\n      dup3\n        /* \"#utility.yul\":14540:14645   */\n      sstore\n        /* \"#utility.yul\":14458:14651   */\n      pop\n        /* \"#utility.yul\":14382:14651   */\n      pop\n      pop\n      pop\n      jump\t// out\n        /* \"#utility.yul\":14657:14730   */\n    tag_183:\n        /* \"#utility.yul\":14702:14705   */\n      0x00\n        /* \"#utility.yul\":14657:14730   */\n      swap1\n      jump\t// out\n        /* \"#utility.yul\":14736:14925   */\n    tag_184:\n        /* \"#utility.yul\":14813:14845   */\n      tag_343\n      tag_183\n      jump\t// in\n    tag_343:\n        /* \"#utility.yul\":14854:14919   */\n      tag_344\n        /* \"#utility.yul\":14912:14918   */\n      dup2\n        /* \"#utility.yul\":14904:14910   */\n      dup5\n        /* \"#utility.yul\":14898:14902   */\n      dup5\n        /* \"#utility.yul\":14854:14919   */\n      tag_182\n      jump\t// in\n    tag_344:\n        /* \"#utility.yul\":14789:14925   */\n      pop\n        /* \"#utility.yul\":14736:14925   */\n      pop\n      pop\n      jump\t// out\n        /* \"#utility.yul\":14931:15117   */\n    tag_185:\n        /* \"#utility.yul\":14991:15111   */\n    tag_346:\n        /* \"#utility.yul\":15008:15011   */\n      dup2\n        /* \"#utility.yul\":15001:15006   */\n      dup2\n        /* \"#utility.yul\":14998:15012   */\n      lt\n        /* \"#utility.yul\":14991:15111   */\n      iszero\n      tag_348\n      jumpi\n        /* \"#utility.yul\":15062:15101   */\n      tag_349\n        /* \"#utility.yul\":15099:15100   */\n      0x00\n        /* \"#utility.yul\":15092:15097   */\n      dup3\n        /* \"#utility.yul\":15062:15101   */\n      tag_184\n      jump\t// in\n    tag_349:\n        /* \"#utility.yul\":15035:15036   */\n      0x01\n        /* \"#utility.yul\":15028:15033   */\n      dup2\n        /* \"#utility.yul\":15024:15037   */\n      add\n        /* \"#utility.yul\":15015:15037   */\n      swap1\n      pop\n        /* \"#utility.yul\":14991:15111   */\n      jump(tag_346)\n    tag_348:\n        /* \"#utility.yul\":14931:15117   */\n      pop\n      pop\n      jump\t// out\n        /* \"#utility.yul\":15123:15666   */\n    tag_186:\n        /* \"#utility.yul\":15224:15226   */\n      0x1f\n        /* \"#utility.yul\":15219:15222   */\n      dup3\n        /* \"#utility.yul\":15216:15227   */\n      gt\n        /* \"#utility.yul\":15213:15659   */\n      iszero\n      tag_351\n      jumpi\n        /* \"#utility.yul\":15258:15296   */\n      tag_352\n        /* \"#utility.yul\":15290:15295   */\n      dup2\n        /* \"#utility.yul\":15258:15296   */\n      tag_175\n      jump\t// in\n    tag_352:\n        /* \"#utility.yul\":15342:15371   */\n      tag_353\n        /* \"#utility.yul\":15360:15370   */\n      dup5\n        /* \"#utility.yul\":15342:15371   */\n      tag_176\n      jump\t// in\n    tag_353:\n        /* \"#utility.yul\":15332:15340   */\n      dup2\n        /* \"#utility.yul\":15328:15372   */\n      add\n        /* \"#utility.yul\":15525:15527   */\n      0x20\n        /* \"#utility.yul\":15513:15523   */\n      dup6\n        /* \"#utility.yul\":15510:15528   */\n      lt\n        /* \"#utility.yul\":15507:15556   */\n      iszero\n      tag_354\n      jumpi\n        /* \"#utility.yul\":15546:15554   */\n      dup2\n        /* \"#utility.yul\":15531:15554   */\n      swap1\n      pop\n        /* \"#utility.yul\":15507:15556   */\n    tag_354:\n        /* \"#utility.yul\":15569:15649   */\n      tag_355\n        /* \"#utility.yul\":15625:15647   */\n      tag_356\n        /* \"#utility.yul\":15643:15646   */\n      dup6\n        /* \"#utility.yul\":15625:15647   */\n      tag_176\n      jump\t// in\n    tag_356:\n        /* \"#utility.yul\":15615:15623   */\n      dup4\n        /* \"#utility.yul\":15611:15648   */\n      add\n        /* \"#utility.yul\":15598:15609   */\n      dup3\n        /* \"#utility.yul\":15569:15649   */\n      tag_185\n      jump\t// in\n    tag_355:\n        /* \"#utility.yul\":15228:15659   */\n      pop\n      pop\n        /* \"#utility.yul\":15213:15659   */\n    tag_351:\n        /* \"#utility.yul\":15123:15666   */\n      pop\n      pop\n      pop\n      jump\t// out\n        /* \"#utility.yul\":15672:15789   */\n    tag_187:\n        /* \"#utility.yul\":15726:15734   */\n      0x00\n        /* \"#utility.yul\":15776:15781   */\n      dup3\n        /* \"#utility.yul\":15770:15774   */\n      dup3\n        /* \"#utility.yul\":15766:15782   */\n      shr\n        /* \"#utility.yul\":15745:15782   */\n      swap1\n      pop\n        /* \"#utility.yul\":15672:15789   */\n      swap3\n      swap2\n      pop\n      pop\n      jump\t// out\n        /* \"#utility.yul\":15795:15964   */\n    tag_188:\n        /* \"#utility.yul\":15839:15845   */\n      0x00\n        /* \"#utility.yul\":15872:15923   */\n      tag_359\n        /* \"#utility.yul\":15920:15921   */\n      0x00\n        /* \"#utility.yul\":15916:15922   */\n      not\n        /* \"#utility.yul\":15908:15913   */\n      dup5\n        /* \"#utility.yul\":15905:15906   */\n      0x08\n        /* \"#utility.yul\":15901:15914   */\n      mul\n        /* \"#utility.yul\":15872:15923   */\n      tag_187\n      jump\t// in\n    tag_359:\n        /* \"#utility.yul\":15868:15924   */\n      not\n        /* \"#utility.yul\":15953:15957   */\n      dup1\n        /* \"#utility.yul\":15947:15951   */\n      dup4\n        /* \"#utility.yul\":15943:15958   */\n      and\n        /* \"#utility.yul\":15933:15958   */\n      swap2\n      pop\n        /* \"#utility.yul\":15846:15964   */\n      pop\n        /* \"#utility.yul\":15795:15964   */\n      swap3\n      swap2\n      pop\n      pop\n      jump\t// out\n        /* \"#utility.yul\":15969:16264   */\n    tag_189:\n        /* \"#utility.yul\":16045:16049   */\n      0x00\n        /* \"#utility.yul\":16191:16220   */\n      tag_361\n        /* \"#utility.yul\":16216:16219   */\n      dup4\n        /* \"#utility.yul\":16210:16214   */\n      dup4\n        /* \"#utility.yul\":16191:16220   */\n      tag_188\n      jump\t// in\n    tag_361:\n        /* \"#utility.yul\":16183:16220   */\n      swap2\n      pop\n        /* \"#utility.yul\":16253:16256   */\n      dup3\n        /* \"#utility.yul\":16250:16251   */\n      0x02\n        /* \"#utility.yul\":16246:16257   */\n      mul\n        /* \"#utility.yul\":16240:16244   */\n      dup3\n        /* \"#utility.yul\":16237:16258   */\n      or\n        /* \"#utility.yul\":16229:16258   */\n      swap1\n      pop\n        /* \"#utility.yul\":15969:16264   */\n      swap3\n      swap2\n      pop\n      pop\n      jump\t// out\n        /* \"#utility.yul\":16269:17664   */\n    tag_82:\n        /* \"#utility.yul\":16386:16423   */\n      tag_363\n        /* \"#utility.yul\":16419:16422   */\n      dup3\n        /* \"#utility.yul\":16386:16423   */\n      tag_138\n      jump\t// in\n    tag_363:\n        /* \"#utility.yul\":16488:16506   */\n      0xffffffffffffffff\n        /* \"#utility.yul\":16480:16486   */\n      dup2\n        /* \"#utility.yul\":16477:16507   */\n      gt\n        /* \"#utility.yul\":16474:16530   */\n      iszero\n      tag_364\n      jumpi\n        /* \"#utility.yul\":16510:16528   */\n      tag_365\n      tag_159\n      jump\t// in\n    tag_365:\n        /* \"#utility.yul\":16474:16530   */\n    tag_364:\n        /* \"#utility.yul\":16554:16592   */\n      tag_366\n        /* \"#utility.yul\":16586:16590   */\n      dup3\n        /* \"#utility.yul\":16580:16591   */\n      sload\n        /* \"#utility.yul\":16554:16592   */\n      tag_67\n      jump\t// in\n    tag_366:\n        /* \"#utility.yul\":16639:16706   */\n      tag_367\n        /* \"#utility.yul\":16699:16705   */\n      dup3\n        /* \"#utility.yul\":16691:16697   */\n      dup3\n        /* \"#utility.yul\":16685:16689   */\n      dup6\n        /* \"#utility.yul\":16639:16706   */\n      tag_186\n      jump\t// in\n    tag_367:\n        /* \"#utility.yul\":16733:16734   */\n      0x00\n        /* \"#utility.yul\":16757:16761   */\n      0x20\n        /* \"#utility.yul\":16744:16761   */\n      swap1\n      pop\n        /* \"#utility.yul\":16789:16791   */\n      0x1f\n        /* \"#utility.yul\":16781:16787   */\n      dup4\n        /* \"#utility.yul\":16778:16792   */\n      gt\n        /* \"#utility.yul\":16806:16807   */\n      0x01\n        /* \"#utility.yul\":16801:17419   */\n      dup2\n      eq\n      tag_369\n      jumpi\n        /* \"#utility.yul\":17463:17464   */\n      0x00\n        /* \"#utility.yul\":17480:17486   */\n      dup5\n        /* \"#utility.yul\":17477:17554   */\n      iszero\n      tag_370\n      jumpi\n        /* \"#utility.yul\":17529:17538   */\n      dup3\n        /* \"#utility.yul\":17524:17527   */\n      dup8\n        /* \"#utility.yul\":17520:17539   */\n      add\n        /* \"#utility.yul\":17514:17540   */\n      mload\n        /* \"#utility.yul\":17505:17540   */\n      swap1\n      pop\n        /* \"#utility.yul\":17477:17554   */\n    tag_370:\n        /* \"#utility.yul\":17580:17647   */\n      tag_371\n        /* \"#utility.yul\":17640:17646   */\n      dup6\n        /* \"#utility.yul\":17633:17638   */\n      dup3\n        /* \"#utility.yul\":17580:17647   */\n      tag_189\n      jump\t// in\n    tag_371:\n        /* \"#utility.yul\":17574:17578   */\n      dup7\n        /* \"#utility.yul\":17567:17648   */\n      sstore\n        /* \"#utility.yul\":17436:17658   */\n      pop\n        /* \"#utility.yul\":16771:17658   */\n      jump(tag_368)\n        /* \"#utility.yul\":16801:17419   */\n    tag_369:\n        /* \"#utility.yul\":16853:16857   */\n      0x1f\n        /* \"#utility.yul\":16849:16858   */\n      not\n        /* \"#utility.yul\":16841:16847   */\n      dup5\n        /* \"#utility.yul\":16837:16859   */\n      and\n        /* \"#utility.yul\":16887:16924   */\n      tag_372\n        /* \"#utility.yul\":16919:16923   */\n      dup7\n        /* \"#utility.yul\":16887:16924   */\n      tag_175\n      jump\t// in\n    tag_372:\n        /* \"#utility.yul\":16946:16947   */\n      0x00\n        /* \"#utility.yul\":16960:17168   */\n    tag_373:\n        /* \"#utility.yul\":16974:16981   */\n      dup3\n        /* \"#utility.yul\":16971:16972   */\n      dup2\n        /* \"#utility.yul\":16968:16982   */\n      lt\n        /* \"#utility.yul\":16960:17168   */\n      iszero\n      tag_375\n      jumpi\n        /* \"#utility.yul\":17053:17062   */\n      dup5\n        /* \"#utility.yul\":17048:17051   */\n      dup10\n        /* \"#utility.yul\":17044:17063   */\n      add\n        /* \"#utility.yul\":17038:17064   */\n      mload\n        /* \"#utility.yul\":17030:17036   */\n      dup3\n        /* \"#utility.yul\":17023:17065   */\n      sstore\n        /* \"#utility.yul\":17104:17105   */\n      0x01\n        /* \"#utility.yul\":17096:17102   */\n      dup3\n        /* \"#utility.yul\":17092:17106   */\n      add\n        /* \"#utility.yul\":17082:17106   */\n      swap2\n      pop\n        /* \"#utility.yul\":17151:17153   */\n      0x20\n        /* \"#utility.yul\":17140:17149   */\n      dup6\n        /* \"#utility.yul\":17136:17154   */\n      add\n        /* \"#utility.yul\":17123:17154   */\n      swap5\n      pop\n        /* \"#utility.yul\":16997:17001   */\n      0x20\n        /* \"#utility.yul\":16994:16995   */\n      dup2\n        /* \"#utility.yul\":16990:17002   */\n      add\n        /* \"#utility.yul\":16985:17002   */\n      swap1\n      pop\n        /* \"#utility.yul\":16960:17168   */\n      jump(tag_373)\n    tag_375:\n        /* \"#utility.yul\":17196:17202   */\n      dup7\n        /* \"#utility.yul\":17187:17194   */\n      dup4\n        /* \"#utility.yul\":17184:17203   */\n      lt\n        /* \"#utility.yul\":17181:17360   */\n      iszero\n      tag_376\n      jumpi\n        /* \"#utility.yul\":17254:17263   */\n      dup5\n        /* \"#utility.yul\":17249:17252   */\n      dup10\n        /* \"#utility.yul\":17245:17264   */\n      add\n        /* \"#utility.yul\":17239:17265   */\n      mload\n        /* \"#utility.yul\":17297:17345   */\n      tag_377\n        /* \"#utility.yul\":17339:17343   */\n      0x1f\n        /* \"#utility.yul\":17331:17337   */\n      dup10\n        /* \"#utility.yul\":17327:17344   */\n      and\n        /* \"#utility.yul\":17316:17325   */\n      dup3\n        /* \"#utility.yul\":17297:17345   */\n      tag_188\n      jump\t// in\n    tag_377:\n        /* \"#utility.yul\":17289:17295   */\n      dup4\n        /* \"#utility.yul\":17282:17346   */\n      sstore\n        /* \"#utility.yul\":17204:17360   */\n      pop\n        /* \"#utility.yul\":17181:17360   */\n    tag_376:\n        /* \"#utility.yul\":17406:17407   */\n      0x01\n        /* \"#utility.yul\":17402:17403   */\n      0x02\n        /* \"#utility.yul\":17394:17400   */\n      dup9\n        /* \"#utility.yul\":17390:17404   */\n      mul\n        /* \"#utility.yul\":17386:17408   */\n      add\n        /* \"#utility.yul\":17380:17384   */\n      dup9\n        /* \"#utility.yul\":17373:17409   */\n      sstore\n        /* \"#utility.yul\":16808:17419   */\n      pop\n      pop\n      pop\n        /* \"#utility.yul\":16771:17658   */\n    tag_368:\n      pop\n        /* \"#utility.yul\":16361:17664   */\n      pop\n      pop\n      pop\n        /* \"#utility.yul\":16269:17664   */\n      pop\n      pop\n      jump\t// out\n        /* \"#utility.yul\":17670:17784   */\n    tag_190:\n      pop\n      jump\t// out\n        /* \"#utility.yul\":17790:18154   */\n    tag_191:\n        /* \"#utility.yul\":17932:17935   */\n      0x00\n        /* \"#utility.yul\":17953:18019   */\n      tag_380\n        /* \"#utility.yul\":18017:18018   */\n      0x00\n        /* \"#utility.yul\":18012:18015   */\n      dup4\n        /* \"#utility.yul\":17953:18019   */\n      tag_168\n      jump\t// in\n    tag_380:\n        /* \"#utility.yul\":17946:18019   */\n      swap2\n      pop\n        /* \"#utility.yul\":18028:18121   */\n      tag_381\n        /* \"#utility.yul\":18117:18120   */\n      dup3\n        /* \"#utility.yul\":18028:18121   */\n      tag_190\n      jump\t// in\n    tag_381:\n        /* \"#utility.yul\":18146:18147   */\n      0x00\n        /* \"#utility.yul\":18141:18144   */\n      dup3\n        /* \"#utility.yul\":18137:18148   */\n      add\n        /* \"#utility.yul\":18130:18148   */\n      swap1\n      pop\n        /* \"#utility.yul\":17790:18154   */\n      swap2\n      swap1\n      pop\n      jump\t// out\n        /* \"#utility.yul\":18160:18579   */\n    tag_106:\n        /* \"#utility.yul\":18326:18330   */\n      0x00\n        /* \"#utility.yul\":18364:18366   */\n      0x20\n        /* \"#utility.yul\":18353:18362   */\n      dup3\n        /* \"#utility.yul\":18349:18367   */\n      add\n        /* \"#utility.yul\":18341:18367   */\n      swap1\n      pop\n        /* \"#utility.yul\":18413:18422   */\n      dup2\n        /* \"#utility.yul\":18407:18411   */\n      dup2\n        /* \"#utility.yul\":18403:18423   */\n      sub\n        /* \"#utility.yul\":18399:18400   */\n      0x00\n        /* \"#utility.yul\":18388:18397   */\n      dup4\n        /* \"#utility.yul\":18384:18401   */\n      add\n        /* \"#utility.yul\":18377:18424   */\n      mstore\n        /* \"#utility.yul\":18441:18572   */\n      tag_383\n        /* \"#utility.yul\":18567:18571   */\n      dup2\n        /* \"#utility.yul\":18441:18572   */\n      tag_191\n      jump\t// in\n    tag_383:\n        /* \"#utility.yul\":18433:18572   */\n      swap1\n      pop\n        /* \"#utility.yul\":18160:18579   */\n      swap2\n      swap1\n      pop\n      jump\t// out\n        /* \"#utility.yul\":18585:18664   */\n    tag_192:\n        /* \"#utility.yul\":18624:18631   */\n      0x00\n        /* \"#utility.yul\":18653:18658   */\n      dup2\n        /* \"#utility.yul\":18642:18658   */\n      swap1\n      pop\n        /* \"#utility.yul\":18585:18664   */\n      swap2\n      swap1\n      pop\n      jump\t// out\n        /* \"#utility.yul\":18670:18827   */\n    tag_193:\n        /* \"#utility.yul\":18775:18820   */\n      tag_386\n        /* \"#utility.yul\":18795:18819   */\n      tag_387\n        /* \"#utility.yul\":18813:18818   */\n      dup3\n        /* \"#utility.yul\":18795:18819   */\n      tag_144\n      jump\t// in\n    tag_387:\n        /* \"#utility.yul\":18775:18820   */\n      tag_192\n      jump\t// in\n    tag_386:\n        /* \"#utility.yul\":18770:18773   */\n      dup3\n        /* \"#utility.yul\":18763:18821   */\n      mstore\n        /* \"#utility.yul\":18670:18827   */\n      pop\n      pop\n      jump\t// out\n        /* \"#utility.yul\":18833:18944   */\n    tag_194:\n        /* \"#utility.yul\":18897:18903   */\n      0x00\n        /* \"#utility.yul\":18931:18936   */\n      dup2\n        /* \"#utility.yul\":18925:18937   */\n      sload\n        /* \"#utility.yul\":18915:18937   */\n      swap1\n      pop\n        /* \"#utility.yul\":18833:18944   */\n      swap2\n      swap1\n      pop\n      jump\t// out\n        /* \"#utility.yul\":18950:19113   */\n    tag_195:\n        /* \"#utility.yul\":19067:19078   */\n      0x00\n        /* \"#utility.yul\":19104:19107   */\n      dup2\n        /* \"#utility.yul\":19089:19107   */\n      swap1\n      pop\n        /* \"#utility.yul\":18950:19113   */\n      swap3\n      swap2\n      pop\n      pop\n      jump\t// out\n        /* \"#utility.yul\":19119:19275   */\n    tag_196:\n        /* \"#utility.yul\":19183:19187   */\n      0x00\n        /* \"#utility.yul\":19206:19209   */\n      dup2\n        /* \"#utility.yul\":19198:19209   */\n      swap1\n      pop\n        /* \"#utility.yul\":19229:19232   */\n      dup2\n        /* \"#utility.yul\":19226:19227   */\n      0x00\n        /* \"#utility.yul\":19219:19233   */\n      mstore\n        /* \"#utility.yul\":19263:19267   */\n      0x20\n        /* \"#utility.yul\":19260:19261   */\n      0x00\n        /* \"#utility.yul\":19250:19268   */\n      keccak256\n        /* \"#utility.yul\":19242:19268   */\n      swap1\n      pop\n        /* \"#utility.yul\":19119:19275   */\n      swap2\n      swap1\n      pop\n      jump\t// out\n        /* \"#utility.yul\":19281:19397   */\n    tag_197:\n        /* \"#utility.yul\":19366:19390   */\n      tag_392\n        /* \"#utility.yul\":19384:19389   */\n      dup2\n        /* \"#utility.yul\":19366:19390   */\n      tag_136\n      jump\t// in\n    tag_392:\n        /* \"#utility.yul\":19361:19364   */\n      dup3\n        /* \"#utility.yul\":19354:19391   */\n      mstore\n        /* \"#utility.yul\":19281:19397   */\n      pop\n      pop\n      jump\t// out\n        /* \"#utility.yul\":19403:19598   */\n    tag_198:\n        /* \"#utility.yul\":19480:19490   */\n      0x00\n        /* \"#utility.yul\":19501:19555   */\n      tag_394\n        /* \"#utility.yul\":19551:19554   */\n      dup4\n        /* \"#utility.yul\":19543:19549   */\n      dup4\n        /* \"#utility.yul\":19501:19555   */\n      tag_197\n      jump\t// in\n    tag_394:\n        /* \"#utility.yul\":19587:19591   */\n      0x20\n        /* \"#utility.yul\":19582:19585   */\n      dup4\n        /* \"#utility.yul\":19578:19592   */\n      add\n        /* \"#utility.yul\":19564:19592   */\n      swap1\n      pop\n        /* \"#utility.yul\":19403:19598   */\n      swap3\n      swap2\n      pop\n      pop\n      jump\t// out\n        /* \"#utility.yul\":19604:19706   */\n    tag_199:\n        /* \"#utility.yul\":19646:19654   */\n      0x00\n        /* \"#utility.yul\":19693:19698   */\n      dup2\n        /* \"#utility.yul\":19690:19691   */\n      0x00\n        /* \"#utility.yul\":19686:19699   */\n      shr\n        /* \"#utility.yul\":19665:19699   */\n      swap1\n      pop\n        /* \"#utility.yul\":19604:19706   */\n      swap2\n      swap1\n      pop\n      jump\t// out\n        /* \"#utility.yul\":19712:19851   */\n    tag_200:\n        /* \"#utility.yul\":19762:19769   */\n      0x00\n        /* \"#utility.yul\":19802:19844   */\n      0xffffffffffffffffffffffffffffffffffffffff\n        /* \"#utility.yul\":19795:19800   */\n      dup3\n        /* \"#utility.yul\":19791:19845   */\n      and\n        /* \"#utility.yul\":19780:19845   */\n      swap1\n      pop\n        /* \"#utility.yul\":19712:19851   */\n      swap2\n      swap1\n      pop\n      jump\t// out\n        /* \"#utility.yul\":19857:20023   */\n    tag_201:\n        /* \"#utility.yul\":19926:19931   */\n      0x00\n        /* \"#utility.yul\":19951:20017   */\n      tag_398\n        /* \"#utility.yul\":19982:20016   */\n      tag_399\n        /* \"#utility.yul\":20005:20015   */\n      dup4\n        /* \"#utility.yul\":19982:20016   */\n      tag_199\n      jump\t// in\n    tag_399:\n        /* \"#utility.yul\":19951:20017   */\n      tag_200\n      jump\t// in\n    tag_398:\n        /* \"#utility.yul\":19942:20017   */\n      swap1\n      pop\n        /* \"#utility.yul\":19857:20023   */\n      swap2\n      swap1\n      pop\n      jump\t// out\n        /* \"#utility.yul\":20029:20173   */\n    tag_202:\n        /* \"#utility.yul\":20084:20089   */\n      0x00\n        /* \"#utility.yul\":20109:20166   */\n      tag_401\n        /* \"#utility.yul\":20160:20164   */\n      dup3\n        /* \"#utility.yul\":20154:20165   */\n      sload\n        /* \"#utility.yul\":20109:20166   */\n      tag_201\n      jump\t// in\n    tag_401:\n        /* \"#utility.yul\":20100:20166   */\n      swap1\n      pop\n        /* \"#utility.yul\":20029:20173   */\n      swap2\n      swap1\n      pop\n      jump\t// out\n        /* \"#utility.yul\":20179:20289   */\n    tag_203:\n        /* \"#utility.yul\":20246:20250   */\n      0x00\n        /* \"#utility.yul\":20278:20282   */\n      0x01\n        /* \"#utility.yul\":20273:20276   */\n      dup3\n        /* \"#utility.yul\":20269:20283   */\n      add\n        /* \"#utility.yul\":20261:20283   */\n      swap1\n      pop\n        /* \"#utility.yul\":20179:20289   */\n      swap2\n      swap1\n      pop\n      jump\t// out\n        /* \"#utility.yul\":20325:21120   */\n    tag_204:\n        /* \"#utility.yul\":20459:20462   */\n      0x00\n        /* \"#utility.yul\":20488:20539   */\n      tag_404\n        /* \"#utility.yul\":20533:20538   */\n      dup3\n        /* \"#utility.yul\":20488:20539   */\n      tag_194\n      jump\t// in\n    tag_404:\n        /* \"#utility.yul\":20555:20659   */\n      tag_405\n        /* \"#utility.yul\":20652:20658   */\n      dup2\n        /* \"#utility.yul\":20647:20650   */\n      dup6\n        /* \"#utility.yul\":20555:20659   */\n      tag_195\n      jump\t// in\n    tag_405:\n        /* \"#utility.yul\":20548:20659   */\n      swap4\n      pop\n        /* \"#utility.yul\":20683:20736   */\n      tag_406\n        /* \"#utility.yul\":20730:20735   */\n      dup4\n        /* \"#utility.yul\":20683:20736   */\n      tag_196\n      jump\t// in\n    tag_406:\n        /* \"#utility.yul\":20759:20766   */\n      dup1\n        /* \"#utility.yul\":20790:20791   */\n      0x00\n        /* \"#utility.yul\":20775:21095   */\n    tag_407:\n        /* \"#utility.yul\":20800:20806   */\n      dup4\n        /* \"#utility.yul\":20797:20798   */\n      dup2\n        /* \"#utility.yul\":20794:20807   */\n      lt\n        /* \"#utility.yul\":20775:21095   */\n      iszero\n      tag_409\n      jumpi\n        /* \"#utility.yul\":20870:20914   */\n      tag_410\n        /* \"#utility.yul\":20907:20913   */\n      dup3\n        /* \"#utility.yul\":20870:20914   */\n      tag_202\n      jump\t// in\n    tag_410:\n        /* \"#utility.yul\":20934:21005   */\n      tag_411\n        /* \"#utility.yul\":21001:21004   */\n      dup9\n        /* \"#utility.yul\":20986:20999   */\n      dup3\n        /* \"#utility.yul\":20934:21005   */\n      tag_198\n      jump\t// in\n    tag_411:\n        /* \"#utility.yul\":20927:21005   */\n      swap8\n      pop\n        /* \"#utility.yul\":21028:21085   */\n      tag_412\n        /* \"#utility.yul\":21078:21084   */\n      dup4\n        /* \"#utility.yul\":21028:21085   */\n      tag_203\n      jump\t// in\n    tag_412:\n        /* \"#utility.yul\":21018:21085   */\n      swap3\n      pop\n        /* \"#utility.yul\":20835:21095   */\n      pop\n        /* \"#utility.yul\":20822:20823   */\n      0x01\n        /* \"#utility.yul\":20819:20820   */\n      dup2\n        /* \"#utility.yul\":20815:20824   */\n      add\n        /* \"#utility.yul\":20810:20824   */\n      swap1\n      pop\n        /* \"#utility.yul\":20775:21095   */\n      jump(tag_407)\n    tag_409:\n        /* \"#utility.yul\":20779:20793   */\n      pop\n        /* \"#utility.yul\":21111:21114   */\n      dup6\n        /* \"#utility.yul\":21104:21114   */\n      swap4\n      pop\n        /* \"#utility.yul\":20464:21120   */\n      pop\n      pop\n      pop\n        /* \"#utility.yul\":20325:21120   */\n      swap3\n      swap2\n      pop\n      pop\n      jump\t// out\n        /* \"#utility.yul\":21126:21737   */\n    tag_114:\n        /* \"#utility.yul\":21341:21344   */\n      0x00\n        /* \"#utility.yul\":21356:21431   */\n      tag_414\n        /* \"#utility.yul\":21427:21430   */\n      dup3\n        /* \"#utility.yul\":21418:21424   */\n      dup7\n        /* \"#utility.yul\":21356:21431   */\n      tag_193\n      jump\t// in\n    tag_414:\n        /* \"#utility.yul\":21456:21458   */\n      0x20\n        /* \"#utility.yul\":21451:21454   */\n      dup3\n        /* \"#utility.yul\":21447:21459   */\n      add\n        /* \"#utility.yul\":21440:21459   */\n      swap2\n      pop\n        /* \"#utility.yul\":21469:21544   */\n      tag_415\n        /* \"#utility.yul\":21540:21543   */\n      dup3\n        /* \"#utility.yul\":21531:21537   */\n      dup6\n        /* \"#utility.yul\":21469:21544   */\n      tag_193\n      jump\t// in\n    tag_415:\n        /* \"#utility.yul\":21569:21571   */\n      0x20\n        /* \"#utility.yul\":21564:21567   */\n      dup3\n        /* \"#utility.yul\":21560:21572   */\n      add\n        /* \"#utility.yul\":21553:21572   */\n      swap2\n      pop\n        /* \"#utility.yul\":21589:21711   */\n      tag_416\n        /* \"#utility.yul\":21707:21710   */\n      dup3\n        /* \"#utility.yul\":21698:21704   */\n      dup5\n        /* \"#utility.yul\":21589:21711   */\n      tag_204\n      jump\t// in\n    tag_416:\n        /* \"#utility.yul\":21582:21711   */\n      swap2\n      pop\n        /* \"#utility.yul\":21728:21731   */\n      dup2\n        /* \"#utility.yul\":21721:21731   */\n      swap1\n      pop\n        /* \"#utility.yul\":21126:21737   */\n      swap5\n      swap4\n      pop\n      pop\n      pop\n      pop\n      jump\t// out\n\n    auxdata: 0xa2646970667358221220b6a7a77ff5cb70ee46b766698f1efd2d2add2db93989d703b929e558278ad82264736f6c63430008110033\n}\n",
				"bytecode": {
					"linkReferences": {},
					"object": "608060405234801561001057600080fd5b50336000806101000a81548173ffffffffffffffffffffffffffffffffffffffff021916908373ffffffffffffffffffffffffffffffffffffffff16021790555061166b806100606000396000f3fe6080604052600436106100705760003560e01c80637fc5af951161004e5780637fc5af95146100e25780638b5b9ccc1461010d5780639d4ff8ad14610138578063f71d96cb1461015457610070565b8063287bf3d314610075578063481c6a751461008c5780635d495aea146100b7575b600080fd5b34801561008157600080fd5b5061008a610191565b005b34801561009857600080fd5b506100a161022f565b6040516100ae9190610bbd565b60405180910390f35b3480156100c357600080fd5b506100cc610253565b6040516100d99190610ce0565b60405180910390f35b3480156100ee57600080fd5b506100f761059e565b6040516101049190610e14565b60405180910390f35b34801561011957600080fd5b506101226106ef565b60405161012f9190610e14565b60405180910390f35b610152600480360381019061014d9190610f7f565b610840565b005b34801561016057600080fd5b5061017b60048036038101906101769190610ff4565b6109ba565b6040516101889190610bbd565b60405180910390f35b60008054906101000a900473ffffffffffffffffffffffffffffffffffffffff1673ffffffffffffffffffffffffffffffffffffffff163373ffffffffffffffffffffffffffffffffffffffff161461021f576040517f08c379a00000000000000000000000000000000000000000000000000000000081526004016102169061107e565b60405180910390fd5b6002600061022d9190610a4d565b565b60008054906101000a900473ffffffffffffffffffffffffffffffffffffffff1681565b61025b610a71565b60008054906101000a900473ffffffffffffffffffffffffffffffffffffffff1673ffffffffffffffffffffffffffffffffffffffff163373ffffffffffffffffffffffffffffffffffffffff16146102e9576040517f08c379a00000000000000000000000000000000000000000000000000000000081526004016102e09061107e565b60405180910390fd5b600060018054905011610331576040517f08c379a0000000000000000000000000000000000000000000000000000000008152600401610328906110ea565b60405180910390fd5b60006001805490506103416109f9565b61034b9190611139565b9050600060405180606001604052806003848154811061036e5761036d61116a565b5b9060005260206000209060030201600001805461038a906111c8565b80601f01602080910402602001604051908101604052809291908181526020018280546103b6906111c8565b80156104035780601f106103d857610100808354040283529160200191610403565b820191906000526020600020905b8154815290600101906020018083116103e657829003601f168201915b50505050508152602001600384815481106104215761042061116a565b5b906000526020600020906003020160010160009054906101000a900473ffffffffffffffffffffffffffffffffffffffff1673ffffffffffffffffffffffffffffffffffffffff168152602001478152509050600182815481106104885761048761116a565b5b9060005260206000200160009054906101000a900473ffffffffffffffffffffffffffffffffffffffff1673ffffffffffffffffffffffffffffffffffffffff166108fc479081150290604051600060405180830381858888f193505050501580156104f8573d6000803e3d6000fd5b506002819080600181540180825580915050600190039060005260206000209060030201600090919091909150600082015181600001908161053a91906113a5565b5060208201518160010160006101000a81548173ffffffffffffffffffffffffffffffffffffffff021916908373ffffffffffffffffffffffffffffffffffffffff160217905550604082015181600201555050610596610a2f565b809250505090565b60606002805480602002602001604051908101604052809291908181526020016000905b828210156106e657838290600052602060002090600302016040518060600160405290816000820180546105f5906111c8565b80601f0160208091040260200160405190810160405280929190818152602001828054610621906111c8565b801561066e5780601f106106435761010080835404028352916020019161066e565b820191906000526020600020905b81548152906001019060200180831161065157829003601f168201915b505050505081526020016001820160009054906101000a900473ffffffffffffffffffffffffffffffffffffffff1673ffffffffffffffffffffffffffffffffffffffff1673ffffffffffffffffffffffffffffffffffffffff168152602001600282015481525050815260200190600101906105c2565b50505050905090565b60606003805480602002602001604051908101604052809291908181526020016000905b828210156108375783829060005260206000209060030201604051806060016040529081600082018054610746906111c8565b80601f0160208091040260200160405190810160405280929190818152602001828054610772906111c8565b80156107bf5780601f10610794576101008083540402835291602001916107bf565b820191906000526020600020905b8154815290600101906020018083116107a257829003601f168201915b505050505081526020016001820160009054906101000a900473ffffffffffffffffffffffffffffffffffffffff1673ffffffffffffffffffffffffffffffffffffffff1673ffffffffffffffffffffffffffffffffffffffff16815260200160028201548152505081526020019060010190610713565b50505050905090565b662386f26fc100003411610889576040517f08c379a00000000000000000000000000000000000000000000000000000000081526004016108809061149d565b60405180910390fd5b600060405180606001604052808381526020013373ffffffffffffffffffffffffffffffffffffffff1681526020013481525090506001339080600181540180825580915050600190039060005260206000200160009091909190916101000a81548173ffffffffffffffffffffffffffffffffffffffff021916908373ffffffffffffffffffffffffffffffffffffffff1602179055506003819080600181540180825580915050600190039060005260206000209060030201600090919091909150600082015181600001908161096291906113a5565b5060208201518160010160006101000a81548173ffffffffffffffffffffffffffffffffffffffff021916908373ffffffffffffffffffffffffffffffffffffffff1602179055506040820151816002015550505050565b600181815481106109ca57600080fd5b906000526020600020016000915054906101000a900473ffffffffffffffffffffffffffffffffffffffff1681565b600044426001604051602001610a11939291906115fc565b6040516020818303038152906040528051906020012060001c905090565b60016000610a3d9190610aa8565b60036000610a4b9190610a4d565b565b5080546000825560030290600052602060002090810190610a6e9190610ac9565b50565b604051806060016040528060608152602001600073ffffffffffffffffffffffffffffffffffffffff168152602001600081525090565b5080546000825590600052602060002090810190610ac69190610b1f565b50565b5b80821115610b1b5760008082016000610ae39190610b3c565b6001820160006101000a81549073ffffffffffffffffffffffffffffffffffffffff0219169055600282016000905550600301610aca565b5090565b5b80821115610b38576000816000905550600101610b20565b5090565b508054610b48906111c8565b6000825580601f10610b5a5750610b79565b601f016020900490600052602060002090810190610b789190610b1f565b5b50565b600073ffffffffffffffffffffffffffffffffffffffff82169050919050565b6000610ba782610b7c565b9050919050565b610bb781610b9c565b82525050565b6000602082019050610bd26000830184610bae565b92915050565b600081519050919050565b600082825260208201905092915050565b60005b83811015610c12578082015181840152602081019050610bf7565b60008484015250505050565b6000601f19601f8301169050919050565b6000610c3a82610bd8565b610c448185610be3565b9350610c54818560208601610bf4565b610c5d81610c1e565b840191505092915050565b610c7181610b9c565b82525050565b6000819050919050565b610c8a81610c77565b82525050565b60006060830160008301518482036000860152610cad8282610c2f565b9150506020830151610cc26020860182610c68565b506040830151610cd56040860182610c81565b508091505092915050565b60006020820190508181036000830152610cfa8184610c90565b905092915050565b600081519050919050565b600082825260208201905092915050565b6000819050602082019050919050565b60006060830160008301518482036000860152610d4b8282610c2f565b9150506020830151610d606020860182610c68565b506040830151610d736040860182610c81565b508091505092915050565b6000610d8a8383610d2e565b905092915050565b6000602082019050919050565b6000610daa82610d02565b610db48185610d0d565b935083602082028501610dc685610d1e565b8060005b85811015610e025784840389528151610de38582610d7e565b9450610dee83610d92565b925060208a01995050600181019050610dca565b50829750879550505050505092915050565b60006020820190508181036000830152610e2e8184610d9f565b905092915050565b6000604051905090565b600080fd5b600080fd5b600080fd5b600080fd5b7f4e487b7100000000000000000000000000000000000000000000000000000000600052604160045260246000fd5b610e8c82610c1e565b810181811067ffffffffffffffff82111715610eab57610eaa610e54565b5b80604052505050565b6000610ebe610e36565b9050610eca8282610e83565b919050565b600067ffffffffffffffff821115610eea57610ee9610e54565b5b610ef382610c1e565b9050602081019050919050565b82818337600083830152505050565b6000610f22610f1d84610ecf565b610eb4565b905082815260208101848484011115610f3e57610f3d610e4f565b5b610f49848285610f00565b509392505050565b600082601f830112610f6657610f65610e4a565b5b8135610f76848260208601610f0f565b91505092915050565b600060208284031215610f9557610f94610e40565b5b600082013567ffffffffffffffff811115610fb357610fb2610e45565b5b610fbf84828501610f51565b91505092915050565b610fd181610c77565b8114610fdc57600080fd5b50565b600081359050610fee81610fc8565b92915050565b60006020828403121561100a57611009610e40565b5b600061101884828501610fdf565b91505092915050565b600082825260208201905092915050565b7f4f6e6c79204d616e616765722063616e2072756e206974000000000000000000600082015250565b6000611068601783611021565b915061107382611032565b602082019050919050565b600060208201905081810360008301526110978161105b565b9050919050565b7f506c65617365206164642074686520706c617965722066697273740000000000600082015250565b60006110d4601b83611021565b91506110df8261109e565b602082019050919050565b60006020820190508181036000830152611103816110c7565b9050919050565b7f4e487b7100000000000000000000000000000000000000000000000000000000600052601260045260246000fd5b600061114482610c77565b915061114f83610c77565b92508261115f5761115e61110a565b5b828206905092915050565b7f4e487b7100000000000000000000000000000000000000000000000000000000600052603260045260246000fd5b7f4e487b7100000000000000000000000000000000000000000000000000000000600052602260045260246000fd5b600060028204905060018216806111e057607f821691505b6020821081036111f3576111f2611199565b5b50919050565b60008190508160005260206000209050919050565b60006020601f8301049050919050565b600082821b905092915050565b60006008830261125b7fffffffffffffffffffffffffffffffffffffffffffffffffffffffffffffffff8261121e565b611265868361121e565b95508019841693508086168417925050509392505050565b6000819050919050565b60006112a261129d61129884610c77565b61127d565b610c77565b9050919050565b6000819050919050565b6112bc83611287565b6112d06112c8826112a9565b84845461122b565b825550505050565b600090565b6112e56112d8565b6112f08184846112b3565b505050565b5b81811015611314576113096000826112dd565b6001810190506112f6565b5050565b601f8211156113595761132a816111f9565b6113338461120e565b81016020851015611342578190505b61135661134e8561120e565b8301826112f5565b50505b505050565b600082821c905092915050565b600061137c6000198460080261135e565b1980831691505092915050565b6000611395838361136b565b9150826002028217905092915050565b6113ae82610bd8565b67ffffffffffffffff8111156113c7576113c6610e54565b5b6113d182546111c8565b6113dc828285611318565b600060209050601f83116001811461140f57600084156113fd578287015190505b6114078582611389565b86555061146f565b601f19841661141d866111f9565b60005b8281101561144557848901518255600182019150602085019450602081019050611420565b86831015611462578489015161145e601f89168261136b565b8355505b6001600288020188555050505b505050505050565b50565b6000611487600083611021565b915061149282611477565b600082019050919050565b600060208201905081810360008301526114b68161147a565b9050919050565b6000819050919050565b6114d86114d382610c77565b6114bd565b82525050565b600081549050919050565b600081905092915050565b60008190508160005260206000209050919050565b61151281610b9c565b82525050565b60006115248383611509565b60208301905092915050565b60008160001c9050919050565b600073ffffffffffffffffffffffffffffffffffffffff82169050919050565b600061157061156b83611530565b61153d565b9050919050565b6000611583825461155d565b9050919050565b6000600182019050919050565b60006115a2826114de565b6115ac81856114e9565b93506115b7836114f4565b8060005b838110156115ef576115cc82611577565b6115d68882611518565b97506115e18361158a565b9250506001810190506115bb565b5085935050505092915050565b600061160882866114c7565b60208201915061161882856114c7565b6020820191506116288284611597565b915081905094935050505056fea2646970667358221220b6a7a77ff5cb70ee46b766698f1efd2d2add2db93989d703b929e558278ad82264736f6c63430008110033",
					"opcodes": "PUSH1 0x80 PUSH1 0x40 MSTORE CALLVALUE DUP1 ISZERO PUSH2 0x10 JUMPI PUSH1 0x0 DUP1 REVERT JUMPDEST POP CALLER PUSH1 0x0 DUP1 PUSH2 0x100 EXP DUP2 SLOAD DUP2 PUSH20 0xFFFFFFFFFFFFFFFFFFFFFFFFFFFFFFFFFFFFFFFF MUL NOT AND SWAP1 DUP4 PUSH20 0xFFFFFFFFFFFFFFFFFFFFFFFFFFFFFFFFFFFFFFFF AND MUL OR SWAP1 SSTORE POP PUSH2 0x166B DUP1 PUSH2 0x60 PUSH1 0x0 CODECOPY PUSH1 0x0 RETURN INVALID PUSH1 0x80 PUSH1 0x40 MSTORE PUSH1 0x4 CALLDATASIZE LT PUSH2 0x70 JUMPI PUSH1 0x0 CALLDATALOAD PUSH1 0xE0 SHR DUP1 PUSH4 0x7FC5AF95 GT PUSH2 0x4E JUMPI DUP1 PUSH4 0x7FC5AF95 EQ PUSH2 0xE2 JUMPI DUP1 PUSH4 0x8B5B9CCC EQ PUSH2 0x10D JUMPI DUP1 PUSH4 0x9D4FF8AD EQ PUSH2 0x138 JUMPI DUP1 PUSH4 0xF71D96CB EQ PUSH2 0x154 JUMPI PUSH2 0x70 JUMP JUMPDEST DUP1 PUSH4 0x287BF3D3 EQ PUSH2 0x75 JUMPI DUP1 PUSH4 0x481C6A75 EQ PUSH2 0x8C JUMPI DUP1 PUSH4 0x5D495AEA EQ PUSH2 0xB7 JUMPI JUMPDEST PUSH1 0x0 DUP1 REVERT JUMPDEST CALLVALUE DUP1 ISZERO PUSH2 0x81 JUMPI PUSH1 0x0 DUP1 REVERT JUMPDEST POP PUSH2 0x8A PUSH2 0x191 JUMP JUMPDEST STOP JUMPDEST CALLVALUE DUP1 ISZERO PUSH2 0x98 JUMPI PUSH1 0x0 DUP1 REVERT JUMPDEST POP PUSH2 0xA1 PUSH2 0x22F JUMP JUMPDEST PUSH1 0x40 MLOAD PUSH2 0xAE SWAP2 SWAP1 PUSH2 0xBBD JUMP JUMPDEST PUSH1 0x40 MLOAD DUP1 SWAP2 SUB SWAP1 RETURN JUMPDEST CALLVALUE DUP1 ISZERO PUSH2 0xC3 JUMPI PUSH1 0x0 DUP1 REVERT JUMPDEST POP PUSH2 0xCC PUSH2 0x253 JUMP JUMPDEST PUSH1 0x40 MLOAD PUSH2 0xD9 SWAP2 SWAP1 PUSH2 0xCE0 JUMP JUMPDEST PUSH1 0x40 MLOAD DUP1 SWAP2 SUB SWAP1 RETURN JUMPDEST CALLVALUE DUP1 ISZERO PUSH2 0xEE JUMPI PUSH1 0x0 DUP1 REVERT JUMPDEST POP PUSH2 0xF7 PUSH2 0x59E JUMP JUMPDEST PUSH1 0x40 MLOAD PUSH2 0x104 SWAP2 SWAP1 PUSH2 0xE14 JUMP JUMPDEST PUSH1 0x40 MLOAD DUP1 SWAP2 SUB SWAP1 RETURN JUMPDEST CALLVALUE DUP1 ISZERO PUSH2 0x119 JUMPI PUSH1 0x0 DUP1 REVERT JUMPDEST POP PUSH2 0x122 PUSH2 0x6EF JUMP JUMPDEST PUSH1 0x40 MLOAD PUSH2 0x12F SWAP2 SWAP1 PUSH2 0xE14 JUMP JUMPDEST PUSH1 0x40 MLOAD DUP1 SWAP2 SUB SWAP1 RETURN JUMPDEST PUSH2 0x152 PUSH1 0x4 DUP1 CALLDATASIZE SUB DUP2 ADD SWAP1 PUSH2 0x14D SWAP2 SWAP1 PUSH2 0xF7F JUMP JUMPDEST PUSH2 0x840 JUMP JUMPDEST STOP JUMPDEST CALLVALUE DUP1 ISZERO PUSH2 0x160 JUMPI PUSH1 0x0 DUP1 REVERT JUMPDEST POP PUSH2 0x17B PUSH1 0x4 DUP1 CALLDATASIZE SUB DUP2 ADD SWAP1 PUSH2 0x176 SWAP2 SWAP1 PUSH2 0xFF4 JUMP JUMPDEST PUSH2 0x9BA JUMP JUMPDEST PUSH1 0x40 MLOAD PUSH2 0x188 SWAP2 SWAP1 PUSH2 0xBBD JUMP JUMPDEST PUSH1 0x40 MLOAD DUP1 SWAP2 SUB SWAP1 RETURN JUMPDEST PUSH1 0x0 DUP1 SLOAD SWAP1 PUSH2 0x100 EXP SWAP1 DIV PUSH20 0xFFFFFFFFFFFFFFFFFFFFFFFFFFFFFFFFFFFFFFFF AND PUSH20 0xFFFFFFFFFFFFFFFFFFFFFFFFFFFFFFFFFFFFFFFF AND CALLER PUSH20 0xFFFFFFFFFFFFFFFFFFFFFFFFFFFFFFFFFFFFFFFF AND EQ PUSH2 0x21F JUMPI PUSH1 0x40 MLOAD PUSH32 0x8C379A000000000000000000000000000000000000000000000000000000000 DUP2 MSTORE PUSH1 0x4 ADD PUSH2 0x216 SWAP1 PUSH2 0x107E JUMP JUMPDEST PUSH1 0x40 MLOAD DUP1 SWAP2 SUB SWAP1 REVERT JUMPDEST PUSH1 0x2 PUSH1 0x0 PUSH2 0x22D SWAP2 SWAP1 PUSH2 0xA4D JUMP JUMPDEST JUMP JUMPDEST PUSH1 0x0 DUP1 SLOAD SWAP1 PUSH2 0x100 EXP SWAP1 DIV PUSH20 0xFFFFFFFFFFFFFFFFFFFFFFFFFFFFFFFFFFFFFFFF AND DUP2 JUMP JUMPDEST PUSH2 0x25B PUSH2 0xA71 JUMP JUMPDEST PUSH1 0x0 DUP1 SLOAD SWAP1 PUSH2 0x100 EXP SWAP1 DIV PUSH20 0xFFFFFFFFFFFFFFFFFFFFFFFFFFFFFFFFFFFFFFFF AND PUSH20 0xFFFFFFFFFFFFFFFFFFFFFFFFFFFFFFFFFFFFFFFF AND CALLER PUSH20 0xFFFFFFFFFFFFFFFFFFFFFFFFFFFFFFFFFFFFFFFF AND EQ PUSH2 0x2E9 JUMPI PUSH1 0x40 MLOAD PUSH32 0x8C379A000000000000000000000000000000000000000000000000000000000 DUP2 MSTORE PUSH1 0x4 ADD PUSH2 0x2E0 SWAP1 PUSH2 0x107E JUMP JUMPDEST PUSH1 0x40 MLOAD DUP1 SWAP2 SUB SWAP1 REVERT JUMPDEST PUSH1 0x0 PUSH1 0x1 DUP1 SLOAD SWAP1 POP GT PUSH2 0x331 JUMPI PUSH1 0x40 MLOAD PUSH32 0x8C379A000000000000000000000000000000000000000000000000000000000 DUP2 MSTORE PUSH1 0x4 ADD PUSH2 0x328 SWAP1 PUSH2 0x10EA JUMP JUMPDEST PUSH1 0x40 MLOAD DUP1 SWAP2 SUB SWAP1 REVERT JUMPDEST PUSH1 0x0 PUSH1 0x1 DUP1 SLOAD SWAP1 POP PUSH2 0x341 PUSH2 0x9F9 JUMP JUMPDEST PUSH2 0x34B SWAP2 SWAP1 PUSH2 0x1139 JUMP JUMPDEST SWAP1 POP PUSH1 0x0 PUSH1 0x40 MLOAD DUP1 PUSH1 0x60 ADD PUSH1 0x40 MSTORE DUP1 PUSH1 0x3 DUP5 DUP2 SLOAD DUP2 LT PUSH2 0x36E JUMPI PUSH2 0x36D PUSH2 0x116A JUMP JUMPDEST JUMPDEST SWAP1 PUSH1 0x0 MSTORE PUSH1 0x20 PUSH1 0x0 KECCAK256 SWAP1 PUSH1 0x3 MUL ADD PUSH1 0x0 ADD DUP1 SLOAD PUSH2 0x38A SWAP1 PUSH2 0x11C8 JUMP JUMPDEST DUP1 PUSH1 0x1F ADD PUSH1 0x20 DUP1 SWAP2 DIV MUL PUSH1 0x20 ADD PUSH1 0x40 MLOAD SWAP1 DUP2 ADD PUSH1 0x40 MSTORE DUP1 SWAP3 SWAP2 SWAP1 DUP2 DUP2 MSTORE PUSH1 0x20 ADD DUP3 DUP1 SLOAD PUSH2 0x3B6 SWAP1 PUSH2 0x11C8 JUMP JUMPDEST DUP1 ISZERO PUSH2 0x403 JUMPI DUP1 PUSH1 0x1F LT PUSH2 0x3D8 JUMPI PUSH2 0x100 DUP1 DUP4 SLOAD DIV MUL DUP4 MSTORE SWAP2 PUSH1 0x20 ADD SWAP2 PUSH2 0x403 JUMP JUMPDEST DUP3 ADD SWAP2 SWAP1 PUSH1 0x0 MSTORE PUSH1 0x20 PUSH1 0x0 KECCAK256 SWAP1 JUMPDEST DUP2 SLOAD DUP2 MSTORE SWAP1 PUSH1 0x1 ADD SWAP1 PUSH1 0x20 ADD DUP1 DUP4 GT PUSH2 0x3E6 JUMPI DUP3 SWAP1 SUB PUSH1 0x1F AND DUP3 ADD SWAP2 JUMPDEST POP POP POP POP POP DUP2 MSTORE PUSH1 0x20 ADD PUSH1 0x3 DUP5 DUP2 SLOAD DUP2 LT PUSH2 0x421 JUMPI PUSH2 0x420 PUSH2 0x116A JUMP JUMPDEST JUMPDEST SWAP1 PUSH1 0x0 MSTORE PUSH1 0x20 PUSH1 0x0 KECCAK256 SWAP1 PUSH1 0x3 MUL ADD PUSH1 0x1 ADD PUSH1 0x0 SWAP1 SLOAD SWAP1 PUSH2 0x100 EXP SWAP1 DIV PUSH20 0xFFFFFFFFFFFFFFFFFFFFFFFFFFFFFFFFFFFFFFFF AND PUSH20 0xFFFFFFFFFFFFFFFFFFFFFFFFFFFFFFFFFFFFFFFF AND DUP2 MSTORE PUSH1 0x20 ADD SELFBALANCE DUP2 MSTORE POP SWAP1 POP PUSH1 0x1 DUP3 DUP2 SLOAD DUP2 LT PUSH2 0x488 JUMPI PUSH2 0x487 PUSH2 0x116A JUMP JUMPDEST JUMPDEST SWAP1 PUSH1 0x0 MSTORE PUSH1 0x20 PUSH1 0x0 KECCAK256 ADD PUSH1 0x0 SWAP1 SLOAD SWAP1 PUSH2 0x100 EXP SWAP1 DIV PUSH20 0xFFFFFFFFFFFFFFFFFFFFFFFFFFFFFFFFFFFFFFFF AND PUSH20 0xFFFFFFFFFFFFFFFFFFFFFFFFFFFFFFFFFFFFFFFF AND PUSH2 0x8FC SELFBALANCE SWAP1 DUP2 ISZERO MUL SWAP1 PUSH1 0x40 MLOAD PUSH1 0x0 PUSH1 0x40 MLOAD DUP1 DUP4 SUB DUP2 DUP6 DUP9 DUP9 CALL SWAP4 POP POP POP POP ISZERO DUP1 ISZERO PUSH2 0x4F8 JUMPI RETURNDATASIZE PUSH1 0x0 DUP1 RETURNDATACOPY RETURNDATASIZE PUSH1 0x0 REVERT JUMPDEST POP PUSH1 0x2 DUP2 SWAP1 DUP1 PUSH1 0x1 DUP2 SLOAD ADD DUP1 DUP3 SSTORE DUP1 SWAP2 POP POP PUSH1 0x1 SWAP1 SUB SWAP1 PUSH1 0x0 MSTORE PUSH1 0x20 PUSH1 0x0 KECCAK256 SWAP1 PUSH1 0x3 MUL ADD PUSH1 0x0 SWAP1 SWAP2 SWAP1 SWAP2 SWAP1 SWAP2 POP PUSH1 0x0 DUP3 ADD MLOAD DUP2 PUSH1 0x0 ADD SWAP1 DUP2 PUSH2 0x53A SWAP2 SWAP1 PUSH2 0x13A5 JUMP JUMPDEST POP PUSH1 0x20 DUP3 ADD MLOAD DUP2 PUSH1 0x1 ADD PUSH1 0x0 PUSH2 0x100 EXP DUP2 SLOAD DUP2 PUSH20 0xFFFFFFFFFFFFFFFFFFFFFFFFFFFFFFFFFFFFFFFF MUL NOT AND SWAP1 DUP4 PUSH20 0xFFFFFFFFFFFFFFFFFFFFFFFFFFFFFFFFFFFFFFFF AND MUL OR SWAP1 SSTORE POP PUSH1 0x40 DUP3 ADD MLOAD DUP2 PUSH1 0x2 ADD SSTORE POP POP PUSH2 0x596 PUSH2 0xA2F JUMP JUMPDEST DUP1 SWAP3 POP POP POP SWAP1 JUMP JUMPDEST PUSH1 0x60 PUSH1 0x2 DUP1 SLOAD DUP1 PUSH1 0x20 MUL PUSH1 0x20 ADD PUSH1 0x40 MLOAD SWAP1 DUP2 ADD PUSH1 0x40 MSTORE DUP1 SWAP3 SWAP2 SWAP1 DUP2 DUP2 MSTORE PUSH1 0x20 ADD PUSH1 0x0 SWAP1 JUMPDEST DUP3 DUP3 LT ISZERO PUSH2 0x6E6 JUMPI DUP4 DUP3 SWAP1 PUSH1 0x0 MSTORE PUSH1 0x20 PUSH1 0x0 KECCAK256 SWAP1 PUSH1 0x3 MUL ADD PUSH1 0x40 MLOAD DUP1 PUSH1 0x60 ADD PUSH1 0x40 MSTORE SWAP1 DUP2 PUSH1 0x0 DUP3 ADD DUP1 SLOAD PUSH2 0x5F5 SWAP1 PUSH2 0x11C8 JUMP JUMPDEST DUP1 PUSH1 0x1F ADD PUSH1 0x20 DUP1 SWAP2 DIV MUL PUSH1 0x20 ADD PUSH1 0x40 MLOAD SWAP1 DUP2 ADD PUSH1 0x40 MSTORE DUP1 SWAP3 SWAP2 SWAP1 DUP2 DUP2 MSTORE PUSH1 0x20 ADD DUP3 DUP1 SLOAD PUSH2 0x621 SWAP1 PUSH2 0x11C8 JUMP JUMPDEST DUP1 ISZERO PUSH2 0x66E JUMPI DUP1 PUSH1 0x1F LT PUSH2 0x643 JUMPI PUSH2 0x100 DUP1 DUP4 SLOAD DIV MUL DUP4 MSTORE SWAP2 PUSH1 0x20 ADD SWAP2 PUSH2 0x66E JUMP JUMPDEST DUP3 ADD SWAP2 SWAP1 PUSH1 0x0 MSTORE PUSH1 0x20 PUSH1 0x0 KECCAK256 SWAP1 JUMPDEST DUP2 SLOAD DUP2 MSTORE SWAP1 PUSH1 0x1 ADD SWAP1 PUSH1 0x20 ADD DUP1 DUP4 GT PUSH2 0x651 JUMPI DUP3 SWAP1 SUB PUSH1 0x1F AND DUP3 ADD SWAP2 JUMPDEST POP POP POP POP POP DUP2 MSTORE PUSH1 0x20 ADD PUSH1 0x1 DUP3 ADD PUSH1 0x0 SWAP1 SLOAD SWAP1 PUSH2 0x100 EXP SWAP1 DIV PUSH20 0xFFFFFFFFFFFFFFFFFFFFFFFFFFFFFFFFFFFFFFFF AND PUSH20 0xFFFFFFFFFFFFFFFFFFFFFFFFFFFFFFFFFFFFFFFF AND PUSH20 0xFFFFFFFFFFFFFFFFFFFFFFFFFFFFFFFFFFFFFFFF AND DUP2 MSTORE PUSH1 0x20 ADD PUSH1 0x2 DUP3 ADD SLOAD DUP2 MSTORE POP POP DUP2 MSTORE PUSH1 0x20 ADD SWAP1 PUSH1 0x1 ADD SWAP1 PUSH2 0x5C2 JUMP JUMPDEST POP POP POP POP SWAP1 POP SWAP1 JUMP JUMPDEST PUSH1 0x60 PUSH1 0x3 DUP1 SLOAD DUP1 PUSH1 0x20 MUL PUSH1 0x20 ADD PUSH1 0x40 MLOAD SWAP1 DUP2 ADD PUSH1 0x40 MSTORE DUP1 SWAP3 SWAP2 SWAP1 DUP2 DUP2 MSTORE PUSH1 0x20 ADD PUSH1 0x0 SWAP1 JUMPDEST DUP3 DUP3 LT ISZERO PUSH2 0x837 JUMPI DUP4 DUP3 SWAP1 PUSH1 0x0 MSTORE PUSH1 0x20 PUSH1 0x0 KECCAK256 SWAP1 PUSH1 0x3 MUL ADD PUSH1 0x40 MLOAD DUP1 PUSH1 0x60 ADD PUSH1 0x40 MSTORE SWAP1 DUP2 PUSH1 0x0 DUP3 ADD DUP1 SLOAD PUSH2 0x746 SWAP1 PUSH2 0x11C8 JUMP JUMPDEST DUP1 PUSH1 0x1F ADD PUSH1 0x20 DUP1 SWAP2 DIV MUL PUSH1 0x20 ADD PUSH1 0x40 MLOAD SWAP1 DUP2 ADD PUSH1 0x40 MSTORE DUP1 SWAP3 SWAP2 SWAP1 DUP2 DUP2 MSTORE PUSH1 0x20 ADD DUP3 DUP1 SLOAD PUSH2 0x772 SWAP1 PUSH2 0x11C8 JUMP JUMPDEST DUP1 ISZERO PUSH2 0x7BF JUMPI DUP1 PUSH1 0x1F LT PUSH2 0x794 JUMPI PUSH2 0x100 DUP1 DUP4 SLOAD DIV MUL DUP4 MSTORE SWAP2 PUSH1 0x20 ADD SWAP2 PUSH2 0x7BF JUMP JUMPDEST DUP3 ADD SWAP2 SWAP1 PUSH1 0x0 MSTORE PUSH1 0x20 PUSH1 0x0 KECCAK256 SWAP1 JUMPDEST DUP2 SLOAD DUP2 MSTORE SWAP1 PUSH1 0x1 ADD SWAP1 PUSH1 0x20 ADD DUP1 DUP4 GT PUSH2 0x7A2 JUMPI DUP3 SWAP1 SUB PUSH1 0x1F AND DUP3 ADD SWAP2 JUMPDEST POP POP POP POP POP DUP2 MSTORE PUSH1 0x20 ADD PUSH1 0x1 DUP3 ADD PUSH1 0x0 SWAP1 SLOAD SWAP1 PUSH2 0x100 EXP SWAP1 DIV PUSH20 0xFFFFFFFFFFFFFFFFFFFFFFFFFFFFFFFFFFFFFFFF AND PUSH20 0xFFFFFFFFFFFFFFFFFFFFFFFFFFFFFFFFFFFFFFFF AND PUSH20 0xFFFFFFFFFFFFFFFFFFFFFFFFFFFFFFFFFFFFFFFF AND DUP2 MSTORE PUSH1 0x20 ADD PUSH1 0x2 DUP3 ADD SLOAD DUP2 MSTORE POP POP DUP2 MSTORE PUSH1 0x20 ADD SWAP1 PUSH1 0x1 ADD SWAP1 PUSH2 0x713 JUMP JUMPDEST POP POP POP POP SWAP1 POP SWAP1 JUMP JUMPDEST PUSH7 0x2386F26FC10000 CALLVALUE GT PUSH2 0x889 JUMPI PUSH1 0x40 MLOAD PUSH32 0x8C379A000000000000000000000000000000000000000000000000000000000 DUP2 MSTORE PUSH1 0x4 ADD PUSH2 0x880 SWAP1 PUSH2 0x149D JUMP JUMPDEST PUSH1 0x40 MLOAD DUP1 SWAP2 SUB SWAP1 REVERT JUMPDEST PUSH1 0x0 PUSH1 0x40 MLOAD DUP1 PUSH1 0x60 ADD PUSH1 0x40 MSTORE DUP1 DUP4 DUP2 MSTORE PUSH1 0x20 ADD CALLER PUSH20 0xFFFFFFFFFFFFFFFFFFFFFFFFFFFFFFFFFFFFFFFF AND DUP2 MSTORE PUSH1 0x20 ADD CALLVALUE DUP2 MSTORE POP SWAP1 POP PUSH1 0x1 CALLER SWAP1 DUP1 PUSH1 0x1 DUP2 SLOAD ADD DUP1 DUP3 SSTORE DUP1 SWAP2 POP POP PUSH1 0x1 SWAP1 SUB SWAP1 PUSH1 0x0 MSTORE PUSH1 0x20 PUSH1 0x0 KECCAK256 ADD PUSH1 0x0 SWAP1 SWAP2 SWAP1 SWAP2 SWAP1 SWAP2 PUSH2 0x100 EXP DUP2 SLOAD DUP2 PUSH20 0xFFFFFFFFFFFFFFFFFFFFFFFFFFFFFFFFFFFFFFFF MUL NOT AND SWAP1 DUP4 PUSH20 0xFFFFFFFFFFFFFFFFFFFFFFFFFFFFFFFFFFFFFFFF AND MUL OR SWAP1 SSTORE POP PUSH1 0x3 DUP2 SWAP1 DUP1 PUSH1 0x1 DUP2 SLOAD ADD DUP1 DUP3 SSTORE DUP1 SWAP2 POP POP PUSH1 0x1 SWAP1 SUB SWAP1 PUSH1 0x0 MSTORE PUSH1 0x20 PUSH1 0x0 KECCAK256 SWAP1 PUSH1 0x3 MUL ADD PUSH1 0x0 SWAP1 SWAP2 SWAP1 SWAP2 SWAP1 SWAP2 POP PUSH1 0x0 DUP3 ADD MLOAD DUP2 PUSH1 0x0 ADD SWAP1 DUP2 PUSH2 0x962 SWAP2 SWAP1 PUSH2 0x13A5 JUMP JUMPDEST POP PUSH1 0x20 DUP3 ADD MLOAD DUP2 PUSH1 0x1 ADD PUSH1 0x0 PUSH2 0x100 EXP DUP2 SLOAD DUP2 PUSH20 0xFFFFFFFFFFFFFFFFFFFFFFFFFFFFFFFFFFFFFFFF MUL NOT AND SWAP1 DUP4 PUSH20 0xFFFFFFFFFFFFFFFFFFFFFFFFFFFFFFFFFFFFFFFF AND MUL OR SWAP1 SSTORE POP PUSH1 0x40 DUP3 ADD MLOAD DUP2 PUSH1 0x2 ADD SSTORE POP POP POP POP JUMP JUMPDEST PUSH1 0x1 DUP2 DUP2 SLOAD DUP2 LT PUSH2 0x9CA JUMPI PUSH1 0x0 DUP1 REVERT JUMPDEST SWAP1 PUSH1 0x0 MSTORE PUSH1 0x20 PUSH1 0x0 KECCAK256 ADD PUSH1 0x0 SWAP2 POP SLOAD SWAP1 PUSH2 0x100 EXP SWAP1 DIV PUSH20 0xFFFFFFFFFFFFFFFFFFFFFFFFFFFFFFFFFFFFFFFF AND DUP2 JUMP JUMPDEST PUSH1 0x0 DIFFICULTY TIMESTAMP PUSH1 0x1 PUSH1 0x40 MLOAD PUSH1 0x20 ADD PUSH2 0xA11 SWAP4 SWAP3 SWAP2 SWAP1 PUSH2 0x15FC JUMP JUMPDEST PUSH1 0x40 MLOAD PUSH1 0x20 DUP2 DUP4 SUB SUB DUP2 MSTORE SWAP1 PUSH1 0x40 MSTORE DUP1 MLOAD SWAP1 PUSH1 0x20 ADD KECCAK256 PUSH1 0x0 SHR SWAP1 POP SWAP1 JUMP JUMPDEST PUSH1 0x1 PUSH1 0x0 PUSH2 0xA3D SWAP2 SWAP1 PUSH2 0xAA8 JUMP JUMPDEST PUSH1 0x3 PUSH1 0x0 PUSH2 0xA4B SWAP2 SWAP1 PUSH2 0xA4D JUMP JUMPDEST JUMP JUMPDEST POP DUP1 SLOAD PUSH1 0x0 DUP3 SSTORE PUSH1 0x3 MUL SWAP1 PUSH1 0x0 MSTORE PUSH1 0x20 PUSH1 0x0 KECCAK256 SWAP1 DUP2 ADD SWAP1 PUSH2 0xA6E SWAP2 SWAP1 PUSH2 0xAC9 JUMP JUMPDEST POP JUMP JUMPDEST PUSH1 0x40 MLOAD DUP1 PUSH1 0x60 ADD PUSH1 0x40 MSTORE DUP1 PUSH1 0x60 DUP2 MSTORE PUSH1 0x20 ADD PUSH1 0x0 PUSH20 0xFFFFFFFFFFFFFFFFFFFFFFFFFFFFFFFFFFFFFFFF AND DUP2 MSTORE PUSH1 0x20 ADD PUSH1 0x0 DUP2 MSTORE POP SWAP1 JUMP JUMPDEST POP DUP1 SLOAD PUSH1 0x0 DUP3 SSTORE SWAP1 PUSH1 0x0 MSTORE PUSH1 0x20 PUSH1 0x0 KECCAK256 SWAP1 DUP2 ADD SWAP1 PUSH2 0xAC6 SWAP2 SWAP1 PUSH2 0xB1F JUMP JUMPDEST POP JUMP JUMPDEST JUMPDEST DUP1 DUP3 GT ISZERO PUSH2 0xB1B JUMPI PUSH1 0x0 DUP1 DUP3 ADD PUSH1 0x0 PUSH2 0xAE3 SWAP2 SWAP1 PUSH2 0xB3C JUMP JUMPDEST PUSH1 0x1 DUP3 ADD PUSH1 0x0 PUSH2 0x100 EXP DUP2 SLOAD SWAP1 PUSH20 0xFFFFFFFFFFFFFFFFFFFFFFFFFFFFFFFFFFFFFFFF MUL NOT AND SWAP1 SSTORE PUSH1 0x2 DUP3 ADD PUSH1 0x0 SWAP1 SSTORE POP PUSH1 0x3 ADD PUSH2 0xACA JUMP JUMPDEST POP SWAP1 JUMP JUMPDEST JUMPDEST DUP1 DUP3 GT ISZERO PUSH2 0xB38 JUMPI PUSH1 0x0 DUP2 PUSH1 0x0 SWAP1 SSTORE POP PUSH1 0x1 ADD PUSH2 0xB20 JUMP JUMPDEST POP SWAP1 JUMP JUMPDEST POP DUP1 SLOAD PUSH2 0xB48 SWAP1 PUSH2 0x11C8 JUMP JUMPDEST PUSH1 0x0 DUP3 SSTORE DUP1 PUSH1 0x1F LT PUSH2 0xB5A JUMPI POP PUSH2 0xB79 JUMP JUMPDEST PUSH1 0x1F ADD PUSH1 0x20 SWAP1 DIV SWAP1 PUSH1 0x0 MSTORE PUSH1 0x20 PUSH1 0x0 KECCAK256 SWAP1 DUP2 ADD SWAP1 PUSH2 0xB78 SWAP2 SWAP1 PUSH2 0xB1F JUMP JUMPDEST JUMPDEST POP JUMP JUMPDEST PUSH1 0x0 PUSH20 0xFFFFFFFFFFFFFFFFFFFFFFFFFFFFFFFFFFFFFFFF DUP3 AND SWAP1 POP SWAP2 SWAP1 POP JUMP JUMPDEST PUSH1 0x0 PUSH2 0xBA7 DUP3 PUSH2 0xB7C JUMP JUMPDEST SWAP1 POP SWAP2 SWAP1 POP JUMP JUMPDEST PUSH2 0xBB7 DUP2 PUSH2 0xB9C JUMP JUMPDEST DUP3 MSTORE POP POP JUMP JUMPDEST PUSH1 0x0 PUSH1 0x20 DUP3 ADD SWAP1 POP PUSH2 0xBD2 PUSH1 0x0 DUP4 ADD DUP5 PUSH2 0xBAE JUMP JUMPDEST SWAP3 SWAP2 POP POP JUMP JUMPDEST PUSH1 0x0 DUP2 MLOAD SWAP1 POP SWAP2 SWAP1 POP JUMP JUMPDEST PUSH1 0x0 DUP3 DUP3 MSTORE PUSH1 0x20 DUP3 ADD SWAP1 POP SWAP3 SWAP2 POP POP JUMP JUMPDEST PUSH1 0x0 JUMPDEST DUP4 DUP2 LT ISZERO PUSH2 0xC12 JUMPI DUP1 DUP3 ADD MLOAD DUP2 DUP5 ADD MSTORE PUSH1 0x20 DUP2 ADD SWAP1 POP PUSH2 0xBF7 JUMP JUMPDEST PUSH1 0x0 DUP5 DUP5 ADD MSTORE POP POP POP POP JUMP JUMPDEST PUSH1 0x0 PUSH1 0x1F NOT PUSH1 0x1F DUP4 ADD AND SWAP1 POP SWAP2 SWAP1 POP JUMP JUMPDEST PUSH1 0x0 PUSH2 0xC3A DUP3 PUSH2 0xBD8 JUMP JUMPDEST PUSH2 0xC44 DUP2 DUP6 PUSH2 0xBE3 JUMP JUMPDEST SWAP4 POP PUSH2 0xC54 DUP2 DUP6 PUSH1 0x20 DUP7 ADD PUSH2 0xBF4 JUMP JUMPDEST PUSH2 0xC5D DUP2 PUSH2 0xC1E JUMP JUMPDEST DUP5 ADD SWAP2 POP POP SWAP3 SWAP2 POP POP JUMP JUMPDEST PUSH2 0xC71 DUP2 PUSH2 0xB9C JUMP JUMPDEST DUP3 MSTORE POP POP JUMP JUMPDEST PUSH1 0x0 DUP2 SWAP1 POP SWAP2 SWAP1 POP JUMP JUMPDEST PUSH2 0xC8A DUP2 PUSH2 0xC77 JUMP JUMPDEST DUP3 MSTORE POP POP JUMP JUMPDEST PUSH1 0x0 PUSH1 0x60 DUP4 ADD PUSH1 0x0 DUP4 ADD MLOAD DUP5 DUP3 SUB PUSH1 0x0 DUP7 ADD MSTORE PUSH2 0xCAD DUP3 DUP3 PUSH2 0xC2F JUMP JUMPDEST SWAP2 POP POP PUSH1 0x20 DUP4 ADD MLOAD PUSH2 0xCC2 PUSH1 0x20 DUP7 ADD DUP3 PUSH2 0xC68 JUMP JUMPDEST POP PUSH1 0x40 DUP4 ADD MLOAD PUSH2 0xCD5 PUSH1 0x40 DUP7 ADD DUP3 PUSH2 0xC81 JUMP JUMPDEST POP DUP1 SWAP2 POP POP SWAP3 SWAP2 POP POP JUMP JUMPDEST PUSH1 0x0 PUSH1 0x20 DUP3 ADD SWAP1 POP DUP2 DUP2 SUB PUSH1 0x0 DUP4 ADD MSTORE PUSH2 0xCFA DUP2 DUP5 PUSH2 0xC90 JUMP JUMPDEST SWAP1 POP SWAP3 SWAP2 POP POP JUMP JUMPDEST PUSH1 0x0 DUP2 MLOAD SWAP1 POP SWAP2 SWAP1 POP JUMP JUMPDEST PUSH1 0x0 DUP3 DUP3 MSTORE PUSH1 0x20 DUP3 ADD SWAP1 POP SWAP3 SWAP2 POP POP JUMP JUMPDEST PUSH1 0x0 DUP2 SWAP1 POP PUSH1 0x20 DUP3 ADD SWAP1 POP SWAP2 SWAP1 POP JUMP JUMPDEST PUSH1 0x0 PUSH1 0x60 DUP4 ADD PUSH1 0x0 DUP4 ADD MLOAD DUP5 DUP3 SUB PUSH1 0x0 DUP7 ADD MSTORE PUSH2 0xD4B DUP3 DUP3 PUSH2 0xC2F JUMP JUMPDEST SWAP2 POP POP PUSH1 0x20 DUP4 ADD MLOAD PUSH2 0xD60 PUSH1 0x20 DUP7 ADD DUP3 PUSH2 0xC68 JUMP JUMPDEST POP PUSH1 0x40 DUP4 ADD MLOAD PUSH2 0xD73 PUSH1 0x40 DUP7 ADD DUP3 PUSH2 0xC81 JUMP JUMPDEST POP DUP1 SWAP2 POP POP SWAP3 SWAP2 POP POP JUMP JUMPDEST PUSH1 0x0 PUSH2 0xD8A DUP4 DUP4 PUSH2 0xD2E JUMP JUMPDEST SWAP1 POP SWAP3 SWAP2 POP POP JUMP JUMPDEST PUSH1 0x0 PUSH1 0x20 DUP3 ADD SWAP1 POP SWAP2 SWAP1 POP JUMP JUMPDEST PUSH1 0x0 PUSH2 0xDAA DUP3 PUSH2 0xD02 JUMP JUMPDEST PUSH2 0xDB4 DUP2 DUP6 PUSH2 0xD0D JUMP JUMPDEST SWAP4 POP DUP4 PUSH1 0x20 DUP3 MUL DUP6 ADD PUSH2 0xDC6 DUP6 PUSH2 0xD1E JUMP JUMPDEST DUP1 PUSH1 0x0 JUMPDEST DUP6 DUP2 LT ISZERO PUSH2 0xE02 JUMPI DUP5 DUP5 SUB DUP10 MSTORE DUP2 MLOAD PUSH2 0xDE3 DUP6 DUP3 PUSH2 0xD7E JUMP JUMPDEST SWAP5 POP PUSH2 0xDEE DUP4 PUSH2 0xD92 JUMP JUMPDEST SWAP3 POP PUSH1 0x20 DUP11 ADD SWAP10 POP POP PUSH1 0x1 DUP2 ADD SWAP1 POP PUSH2 0xDCA JUMP JUMPDEST POP DUP3 SWAP8 POP DUP8 SWAP6 POP POP POP POP POP POP SWAP3 SWAP2 POP POP JUMP JUMPDEST PUSH1 0x0 PUSH1 0x20 DUP3 ADD SWAP1 POP DUP2 DUP2 SUB PUSH1 0x0 DUP4 ADD MSTORE PUSH2 0xE2E DUP2 DUP5 PUSH2 0xD9F JUMP JUMPDEST SWAP1 POP SWAP3 SWAP2 POP POP JUMP JUMPDEST PUSH1 0x0 PUSH1 0x40 MLOAD SWAP1 POP SWAP1 JUMP JUMPDEST PUSH1 0x0 DUP1 REVERT JUMPDEST PUSH1 0x0 DUP1 REVERT JUMPDEST PUSH1 0x0 DUP1 REVERT JUMPDEST PUSH1 0x0 DUP1 REVERT JUMPDEST PUSH32 0x4E487B7100000000000000000000000000000000000000000000000000000000 PUSH1 0x0 MSTORE PUSH1 0x41 PUSH1 0x4 MSTORE PUSH1 0x24 PUSH1 0x0 REVERT JUMPDEST PUSH2 0xE8C DUP3 PUSH2 0xC1E JUMP JUMPDEST DUP2 ADD DUP2 DUP2 LT PUSH8 0xFFFFFFFFFFFFFFFF DUP3 GT OR ISZERO PUSH2 0xEAB JUMPI PUSH2 0xEAA PUSH2 0xE54 JUMP JUMPDEST JUMPDEST DUP1 PUSH1 0x40 MSTORE POP POP POP JUMP JUMPDEST PUSH1 0x0 PUSH2 0xEBE PUSH2 0xE36 JUMP JUMPDEST SWAP1 POP PUSH2 0xECA DUP3 DUP3 PUSH2 0xE83 JUMP JUMPDEST SWAP2 SWAP1 POP JUMP JUMPDEST PUSH1 0x0 PUSH8 0xFFFFFFFFFFFFFFFF DUP3 GT ISZERO PUSH2 0xEEA JUMPI PUSH2 0xEE9 PUSH2 0xE54 JUMP JUMPDEST JUMPDEST PUSH2 0xEF3 DUP3 PUSH2 0xC1E JUMP JUMPDEST SWAP1 POP PUSH1 0x20 DUP2 ADD SWAP1 POP SWAP2 SWAP1 POP JUMP JUMPDEST DUP3 DUP2 DUP4 CALLDATACOPY PUSH1 0x0 DUP4 DUP4 ADD MSTORE POP POP POP JUMP JUMPDEST PUSH1 0x0 PUSH2 0xF22 PUSH2 0xF1D DUP5 PUSH2 0xECF JUMP JUMPDEST PUSH2 0xEB4 JUMP JUMPDEST SWAP1 POP DUP3 DUP2 MSTORE PUSH1 0x20 DUP2 ADD DUP5 DUP5 DUP5 ADD GT ISZERO PUSH2 0xF3E JUMPI PUSH2 0xF3D PUSH2 0xE4F JUMP JUMPDEST JUMPDEST PUSH2 0xF49 DUP5 DUP3 DUP6 PUSH2 0xF00 JUMP JUMPDEST POP SWAP4 SWAP3 POP POP POP JUMP JUMPDEST PUSH1 0x0 DUP3 PUSH1 0x1F DUP4 ADD SLT PUSH2 0xF66 JUMPI PUSH2 0xF65 PUSH2 0xE4A JUMP JUMPDEST JUMPDEST DUP2 CALLDATALOAD PUSH2 0xF76 DUP5 DUP3 PUSH1 0x20 DUP7 ADD PUSH2 0xF0F JUMP JUMPDEST SWAP2 POP POP SWAP3 SWAP2 POP POP JUMP JUMPDEST PUSH1 0x0 PUSH1 0x20 DUP3 DUP5 SUB SLT ISZERO PUSH2 0xF95 JUMPI PUSH2 0xF94 PUSH2 0xE40 JUMP JUMPDEST JUMPDEST PUSH1 0x0 DUP3 ADD CALLDATALOAD PUSH8 0xFFFFFFFFFFFFFFFF DUP2 GT ISZERO PUSH2 0xFB3 JUMPI PUSH2 0xFB2 PUSH2 0xE45 JUMP JUMPDEST JUMPDEST PUSH2 0xFBF DUP5 DUP3 DUP6 ADD PUSH2 0xF51 JUMP JUMPDEST SWAP2 POP POP SWAP3 SWAP2 POP POP JUMP JUMPDEST PUSH2 0xFD1 DUP2 PUSH2 0xC77 JUMP JUMPDEST DUP2 EQ PUSH2 0xFDC JUMPI PUSH1 0x0 DUP1 REVERT JUMPDEST POP JUMP JUMPDEST PUSH1 0x0 DUP2 CALLDATALOAD SWAP1 POP PUSH2 0xFEE DUP2 PUSH2 0xFC8 JUMP JUMPDEST SWAP3 SWAP2 POP POP JUMP JUMPDEST PUSH1 0x0 PUSH1 0x20 DUP3 DUP5 SUB SLT ISZERO PUSH2 0x100A JUMPI PUSH2 0x1009 PUSH2 0xE40 JUMP JUMPDEST JUMPDEST PUSH1 0x0 PUSH2 0x1018 DUP5 DUP3 DUP6 ADD PUSH2 0xFDF JUMP JUMPDEST SWAP2 POP POP SWAP3 SWAP2 POP POP JUMP JUMPDEST PUSH1 0x0 DUP3 DUP3 MSTORE PUSH1 0x20 DUP3 ADD SWAP1 POP SWAP3 SWAP2 POP POP JUMP JUMPDEST PUSH32 0x4F6E6C79204D616E616765722063616E2072756E206974000000000000000000 PUSH1 0x0 DUP3 ADD MSTORE POP JUMP JUMPDEST PUSH1 0x0 PUSH2 0x1068 PUSH1 0x17 DUP4 PUSH2 0x1021 JUMP JUMPDEST SWAP2 POP PUSH2 0x1073 DUP3 PUSH2 0x1032 JUMP JUMPDEST PUSH1 0x20 DUP3 ADD SWAP1 POP SWAP2 SWAP1 POP JUMP JUMPDEST PUSH1 0x0 PUSH1 0x20 DUP3 ADD SWAP1 POP DUP2 DUP2 SUB PUSH1 0x0 DUP4 ADD MSTORE PUSH2 0x1097 DUP2 PUSH2 0x105B JUMP JUMPDEST SWAP1 POP SWAP2 SWAP1 POP JUMP JUMPDEST PUSH32 0x506C65617365206164642074686520706C617965722066697273740000000000 PUSH1 0x0 DUP3 ADD MSTORE POP JUMP JUMPDEST PUSH1 0x0 PUSH2 0x10D4 PUSH1 0x1B DUP4 PUSH2 0x1021 JUMP JUMPDEST SWAP2 POP PUSH2 0x10DF DUP3 PUSH2 0x109E JUMP JUMPDEST PUSH1 0x20 DUP3 ADD SWAP1 POP SWAP2 SWAP1 POP JUMP JUMPDEST PUSH1 0x0 PUSH1 0x20 DUP3 ADD SWAP1 POP DUP2 DUP2 SUB PUSH1 0x0 DUP4 ADD MSTORE PUSH2 0x1103 DUP2 PUSH2 0x10C7 JUMP JUMPDEST SWAP1 POP SWAP2 SWAP1 POP JUMP JUMPDEST PUSH32 0x4E487B7100000000000000000000000000000000000000000000000000000000 PUSH1 0x0 MSTORE PUSH1 0x12 PUSH1 0x4 MSTORE PUSH1 0x24 PUSH1 0x0 REVERT JUMPDEST PUSH1 0x0 PUSH2 0x1144 DUP3 PUSH2 0xC77 JUMP JUMPDEST SWAP2 POP PUSH2 0x114F DUP4 PUSH2 0xC77 JUMP JUMPDEST SWAP3 POP DUP3 PUSH2 0x115F JUMPI PUSH2 0x115E PUSH2 0x110A JUMP JUMPDEST JUMPDEST DUP3 DUP3 MOD SWAP1 POP SWAP3 SWAP2 POP POP JUMP JUMPDEST PUSH32 0x4E487B7100000000000000000000000000000000000000000000000000000000 PUSH1 0x0 MSTORE PUSH1 0x32 PUSH1 0x4 MSTORE PUSH1 0x24 PUSH1 0x0 REVERT JUMPDEST PUSH32 0x4E487B7100000000000000000000000000000000000000000000000000000000 PUSH1 0x0 MSTORE PUSH1 0x22 PUSH1 0x4 MSTORE PUSH1 0x24 PUSH1 0x0 REVERT JUMPDEST PUSH1 0x0 PUSH1 0x2 DUP3 DIV SWAP1 POP PUSH1 0x1 DUP3 AND DUP1 PUSH2 0x11E0 JUMPI PUSH1 0x7F DUP3 AND SWAP2 POP JUMPDEST PUSH1 0x20 DUP3 LT DUP2 SUB PUSH2 0x11F3 JUMPI PUSH2 0x11F2 PUSH2 0x1199 JUMP JUMPDEST JUMPDEST POP SWAP2 SWAP1 POP JUMP JUMPDEST PUSH1 0x0 DUP2 SWAP1 POP DUP2 PUSH1 0x0 MSTORE PUSH1 0x20 PUSH1 0x0 KECCAK256 SWAP1 POP SWAP2 SWAP1 POP JUMP JUMPDEST PUSH1 0x0 PUSH1 0x20 PUSH1 0x1F DUP4 ADD DIV SWAP1 POP SWAP2 SWAP1 POP JUMP JUMPDEST PUSH1 0x0 DUP3 DUP3 SHL SWAP1 POP SWAP3 SWAP2 POP POP JUMP JUMPDEST PUSH1 0x0 PUSH1 0x8 DUP4 MUL PUSH2 0x125B PUSH32 0xFFFFFFFFFFFFFFFFFFFFFFFFFFFFFFFFFFFFFFFFFFFFFFFFFFFFFFFFFFFFFFFF DUP3 PUSH2 0x121E JUMP JUMPDEST PUSH2 0x1265 DUP7 DUP4 PUSH2 0x121E JUMP JUMPDEST SWAP6 POP DUP1 NOT DUP5 AND SWAP4 POP DUP1 DUP7 AND DUP5 OR SWAP3 POP POP POP SWAP4 SWAP3 POP POP POP JUMP JUMPDEST PUSH1 0x0 DUP2 SWAP1 POP SWAP2 SWAP1 POP JUMP JUMPDEST PUSH1 0x0 PUSH2 0x12A2 PUSH2 0x129D PUSH2 0x1298 DUP5 PUSH2 0xC77 JUMP JUMPDEST PUSH2 0x127D JUMP JUMPDEST PUSH2 0xC77 JUMP JUMPDEST SWAP1 POP SWAP2 SWAP1 POP JUMP JUMPDEST PUSH1 0x0 DUP2 SWAP1 POP SWAP2 SWAP1 POP JUMP JUMPDEST PUSH2 0x12BC DUP4 PUSH2 0x1287 JUMP JUMPDEST PUSH2 0x12D0 PUSH2 0x12C8 DUP3 PUSH2 0x12A9 JUMP JUMPDEST DUP5 DUP5 SLOAD PUSH2 0x122B JUMP JUMPDEST DUP3 SSTORE POP POP POP POP JUMP JUMPDEST PUSH1 0x0 SWAP1 JUMP JUMPDEST PUSH2 0x12E5 PUSH2 0x12D8 JUMP JUMPDEST PUSH2 0x12F0 DUP2 DUP5 DUP5 PUSH2 0x12B3 JUMP JUMPDEST POP POP POP JUMP JUMPDEST JUMPDEST DUP2 DUP2 LT ISZERO PUSH2 0x1314 JUMPI PUSH2 0x1309 PUSH1 0x0 DUP3 PUSH2 0x12DD JUMP JUMPDEST PUSH1 0x1 DUP2 ADD SWAP1 POP PUSH2 0x12F6 JUMP JUMPDEST POP POP JUMP JUMPDEST PUSH1 0x1F DUP3 GT ISZERO PUSH2 0x1359 JUMPI PUSH2 0x132A DUP2 PUSH2 0x11F9 JUMP JUMPDEST PUSH2 0x1333 DUP5 PUSH2 0x120E JUMP JUMPDEST DUP2 ADD PUSH1 0x20 DUP6 LT ISZERO PUSH2 0x1342 JUMPI DUP2 SWAP1 POP JUMPDEST PUSH2 0x1356 PUSH2 0x134E DUP6 PUSH2 0x120E JUMP JUMPDEST DUP4 ADD DUP3 PUSH2 0x12F5 JUMP JUMPDEST POP POP JUMPDEST POP POP POP JUMP JUMPDEST PUSH1 0x0 DUP3 DUP3 SHR SWAP1 POP SWAP3 SWAP2 POP POP JUMP JUMPDEST PUSH1 0x0 PUSH2 0x137C PUSH1 0x0 NOT DUP5 PUSH1 0x8 MUL PUSH2 0x135E JUMP JUMPDEST NOT DUP1 DUP4 AND SWAP2 POP POP SWAP3 SWAP2 POP POP JUMP JUMPDEST PUSH1 0x0 PUSH2 0x1395 DUP4 DUP4 PUSH2 0x136B JUMP JUMPDEST SWAP2 POP DUP3 PUSH1 0x2 MUL DUP3 OR SWAP1 POP SWAP3 SWAP2 POP POP JUMP JUMPDEST PUSH2 0x13AE DUP3 PUSH2 0xBD8 JUMP JUMPDEST PUSH8 0xFFFFFFFFFFFFFFFF DUP2 GT ISZERO PUSH2 0x13C7 JUMPI PUSH2 0x13C6 PUSH2 0xE54 JUMP JUMPDEST JUMPDEST PUSH2 0x13D1 DUP3 SLOAD PUSH2 0x11C8 JUMP JUMPDEST PUSH2 0x13DC DUP3 DUP3 DUP6 PUSH2 0x1318 JUMP JUMPDEST PUSH1 0x0 PUSH1 0x20 SWAP1 POP PUSH1 0x1F DUP4 GT PUSH1 0x1 DUP2 EQ PUSH2 0x140F JUMPI PUSH1 0x0 DUP5 ISZERO PUSH2 0x13FD JUMPI DUP3 DUP8 ADD MLOAD SWAP1 POP JUMPDEST PUSH2 0x1407 DUP6 DUP3 PUSH2 0x1389 JUMP JUMPDEST DUP7 SSTORE POP PUSH2 0x146F JUMP JUMPDEST PUSH1 0x1F NOT DUP5 AND PUSH2 0x141D DUP7 PUSH2 0x11F9 JUMP JUMPDEST PUSH1 0x0 JUMPDEST DUP3 DUP2 LT ISZERO PUSH2 0x1445 JUMPI DUP5 DUP10 ADD MLOAD DUP3 SSTORE PUSH1 0x1 DUP3 ADD SWAP2 POP PUSH1 0x20 DUP6 ADD SWAP5 POP PUSH1 0x20 DUP2 ADD SWAP1 POP PUSH2 0x1420 JUMP JUMPDEST DUP7 DUP4 LT ISZERO PUSH2 0x1462 JUMPI DUP5 DUP10 ADD MLOAD PUSH2 0x145E PUSH1 0x1F DUP10 AND DUP3 PUSH2 0x136B JUMP JUMPDEST DUP4 SSTORE POP JUMPDEST PUSH1 0x1 PUSH1 0x2 DUP9 MUL ADD DUP9 SSTORE POP POP POP JUMPDEST POP POP POP POP POP POP JUMP JUMPDEST POP JUMP JUMPDEST PUSH1 0x0 PUSH2 0x1487 PUSH1 0x0 DUP4 PUSH2 0x1021 JUMP JUMPDEST SWAP2 POP PUSH2 0x1492 DUP3 PUSH2 0x1477 JUMP JUMPDEST PUSH1 0x0 DUP3 ADD SWAP1 POP SWAP2 SWAP1 POP JUMP JUMPDEST PUSH1 0x0 PUSH1 0x20 DUP3 ADD SWAP1 POP DUP2 DUP2 SUB PUSH1 0x0 DUP4 ADD MSTORE PUSH2 0x14B6 DUP2 PUSH2 0x147A JUMP JUMPDEST SWAP1 POP SWAP2 SWAP1 POP JUMP JUMPDEST PUSH1 0x0 DUP2 SWAP1 POP SWAP2 SWAP1 POP JUMP JUMPDEST PUSH2 0x14D8 PUSH2 0x14D3 DUP3 PUSH2 0xC77 JUMP JUMPDEST PUSH2 0x14BD JUMP JUMPDEST DUP3 MSTORE POP POP JUMP JUMPDEST PUSH1 0x0 DUP2 SLOAD SWAP1 POP SWAP2 SWAP1 POP JUMP JUMPDEST PUSH1 0x0 DUP2 SWAP1 POP SWAP3 SWAP2 POP POP JUMP JUMPDEST PUSH1 0x0 DUP2 SWAP1 POP DUP2 PUSH1 0x0 MSTORE PUSH1 0x20 PUSH1 0x0 KECCAK256 SWAP1 POP SWAP2 SWAP1 POP JUMP JUMPDEST PUSH2 0x1512 DUP2 PUSH2 0xB9C JUMP JUMPDEST DUP3 MSTORE POP POP JUMP JUMPDEST PUSH1 0x0 PUSH2 0x1524 DUP4 DUP4 PUSH2 0x1509 JUMP JUMPDEST PUSH1 0x20 DUP4 ADD SWAP1 POP SWAP3 SWAP2 POP POP JUMP JUMPDEST PUSH1 0x0 DUP2 PUSH1 0x0 SHR SWAP1 POP SWAP2 SWAP1 POP JUMP JUMPDEST PUSH1 0x0 PUSH20 0xFFFFFFFFFFFFFFFFFFFFFFFFFFFFFFFFFFFFFFFF DUP3 AND SWAP1 POP SWAP2 SWAP1 POP JUMP JUMPDEST PUSH1 0x0 PUSH2 0x1570 PUSH2 0x156B DUP4 PUSH2 0x1530 JUMP JUMPDEST PUSH2 0x153D JUMP JUMPDEST SWAP1 POP SWAP2 SWAP1 POP JUMP JUMPDEST PUSH1 0x0 PUSH2 0x1583 DUP3 SLOAD PUSH2 0x155D JUMP JUMPDEST SWAP1 POP SWAP2 SWAP1 POP JUMP JUMPDEST PUSH1 0x0 PUSH1 0x1 DUP3 ADD SWAP1 POP SWAP2 SWAP1 POP JUMP JUMPDEST PUSH1 0x0 PUSH2 0x15A2 DUP3 PUSH2 0x14DE JUMP JUMPDEST PUSH2 0x15AC DUP2 DUP6 PUSH2 0x14E9 JUMP JUMPDEST SWAP4 POP PUSH2 0x15B7 DUP4 PUSH2 0x14F4 JUMP JUMPDEST DUP1 PUSH1 0x0 JUMPDEST DUP4 DUP2 LT ISZERO PUSH2 0x15EF JUMPI PUSH2 0x15CC DUP3 PUSH2 0x1577 JUMP JUMPDEST PUSH2 0x15D6 DUP9 DUP3 PUSH2 0x1518 JUMP JUMPDEST SWAP8 POP PUSH2 0x15E1 DUP4 PUSH2 0x158A JUMP JUMPDEST SWAP3 POP POP PUSH1 0x1 DUP2 ADD SWAP1 POP PUSH2 0x15BB JUMP JUMPDEST POP DUP6 SWAP4 POP POP POP POP SWAP3 SWAP2 POP POP JUMP JUMPDEST PUSH1 0x0 PUSH2 0x1608 DUP3 DUP7 PUSH2 0x14C7 JUMP JUMPDEST PUSH1 0x20 DUP3 ADD SWAP2 POP PUSH2 0x1618 DUP3 DUP6 PUSH2 0x14C7 JUMP JUMPDEST PUSH1 0x20 DUP3 ADD SWAP2 POP PUSH2 0x1628 DUP3 DUP5 PUSH2 0x1597 JUMP JUMPDEST SWAP2 POP DUP2 SWAP1 POP SWAP5 SWAP4 POP POP POP POP JUMP INVALID LOG2 PUSH5 0x6970667358 0x22 SLT KECCAK256 0xB6 0xA7 0xA7 PUSH32 0xF5CB70EE46B766698F1EFD2D2ADD2DB93989D703B929E558278AD82264736F6C PUSH4 0x43000811 STOP CALLER "
				},
				"gasEstimates": {
					"creation": {
						"codeDepositCost": "1147800",
						"executionCost": "25460",
						"totalCost": "1173260"
					},
					"external": {
						"clearWinner()": "infinite",
						"enter(string)": "infinite",
						"getPlayers()": "infinite",
						"getWinnerList()": "infinite",
						"manager()": "2534",
						"pickWinner()": "infinite",
						"players(uint256)": "5022"
					},
					"internal": {
						"clearData()": "infinite",
						"random()": "infinite"
					}
				},
				"methodIdentifiers": {
					"clearWinner()": "287bf3d3",
					"enter(string)": "9d4ff8ad",
					"getPlayers()": "8b5b9ccc",
					"getWinnerList()": "7fc5af95",
					"manager()": "481c6a75",
					"pickWinner()": "5d495aea",
					"players(uint256)": "f71d96cb"
				}
			},
			"storageLayout": {
				"storage": [
					{
						"astId": 10,
						"contract": "contracts/arisan.sol:Arisan",
						"label": "manager",
						"offset": 0,
						"slot": "0",
						"type": "t_address"
					},
					{
						"astId": 13,
						"contract": "contracts/arisan.sol:Arisan",
						"label": "players",
						"offset": 0,
						"slot": "1",
						"type": "t_array(t_address)dyn_storage"
					},
					{
						"astId": 17,
						"contract": "contracts/arisan.sol:Arisan",
						"label": "winnerList",
						"offset": 0,
						"slot": "2",
						"type": "t_array(t_struct(PlayerData)8_storage)dyn_storage"
					},
					{
						"astId": 21,
						"contract": "contracts/arisan.sol:Arisan",
						"label": "listPlayers",
						"offset": 0,
						"slot": "3",
						"type": "t_array(t_struct(PlayerData)8_storage)dyn_storage"
					}
				],
				"types": {
					"t_address": {
						"encoding": "inplace",
						"label": "address",
						"numberOfBytes": "20"
					},
					"t_array(t_address)dyn_storage": {
						"base": "t_address",
						"encoding": "dynamic_array",
						"label": "address[]",
						"numberOfBytes": "32"
					},
					"t_array(t_struct(PlayerData)8_storage)dyn_storage": {
						"base": "t_struct(PlayerData)8_storage",
						"encoding": "dynamic_array",
						"label": "struct Arisan.PlayerData[]",
						"numberOfBytes": "32"
					},
					"t_string_storage": {
						"encoding": "bytes",
						"label": "string",
						"numberOfBytes": "32"
					},
					"t_struct(PlayerData)8_storage": {
						"encoding": "inplace",
						"label": "struct Arisan.PlayerData",
						"members": [
							{
								"astId": 3,
								"contract": "contracts/arisan.sol:Arisan",
								"label": "name",
								"offset": 0,
								"slot": "0",
								"type": "t_string_storage"
							},
							{
								"astId": 5,
								"contract": "contracts/arisan.sol:Arisan",
								"label": "playerAddress",
								"offset": 0,
								"slot": "1",
								"type": "t_address"
							},
							{
								"astId": 7,
								"contract": "contracts/arisan.sol:Arisan",
								"label": "balance",
								"offset": 0,
								"slot": "2",
								"type": "t_uint256"
							}
						],
						"numberOfBytes": "96"
					},
					"t_uint256": {
						"encoding": "inplace",
						"label": "uint256",
						"numberOfBytes": "32"
					}
				}
			},
			"userdoc": {
				"kind": "user",
				"methods": {},
				"version": 1
			}
		}
	}
}